:020000040800F2
:1000000000000520414D0008394900083D4900081D
:10001000414900084549000849490008000000001E
:1000200000000000000000000000000061AA0008BD
:100030004D4900080000000001AB000865AB000856
:10004000914D0008914D0008914D0008914D000818
:10005000914D0008914D0008914D0008914D000808
:10006000914D0008914D0008914D0008914D0008F8
:1000700051490008914D00085D490008914D000864
:10008000914D0008914D0008914D0008914D0008D8
:10009000914D0008914D0008914D0008914D0008C8
:1000A000914D0008914D0008914D0008914D0008B8
:1000B000914D0008914D0008914D0008914D0008A8
:1000C000914D0008914D0008914D0008914D000898
:1000D000914D0008914D0008914D000869490008B4
:1000E000914D0008914D0008914D0008914D000878
:1000F000914D0008914D0008914D0008914D000868
:10010000914D0008914D0008914D0008914D000857
:10011000914D0008914D000875490008914D000867
:10012000914D0008914D0008914D0008814900084B
:10013000914D0008914D0008914D0008914D000827
:10014000914D0008914D0008914D0008914D000817
:100150008D490008914D0008914D0008914D00080F
:10016000914D0008914D0008914D0008914D0008F7
:10017000914D0008914D0008914D000800000000CD
:10018000914D0008914D0008914D0008914D0008D7
:10019000914D0008914D0008914D0008914D0008C7
:1001A000914D0008914D0008914D0008914D0008B7
:1001B000914D0008914D0008914D0008914D0008A7
:0801C000914D0008914D00086B
:1001D00010B5054C237833B9044B13B10448AFF381
:1001E00000800123237010BD60000120000000008A
:1001F00098B9000808B5034B1BB103490348AFF396
:10020000008008BD000000006400012098B90008CB
:1002100001F0FF01102A2BDB10F0070F08D010F8B7
:10022000013B013A8B422DD010F0070F42B3F6D1BB
:10023000F0B441EA012141EA014122F007047FF0D4
:1002400000070023F0E80256083C85EA010586EA2B
:10025000010685FA47F5A3FA87F586FA47F6A5FA67
:1002600087F68EB9EED1F0BC01F0FF0102F0070273
:1002700032B110F8013B013A83EA010313B1F8D11E
:100280000020704701387047002D06BF35460338FF
:10029000073815F0010F07D1013015F4807F02BF38
:1002A000013015F4C03F0130F0BC0138704700BF89
:1002B00053B94AB9002908BF00281CBF4FF0FF31CD
:1002C0004FF0FF3000F06AB9ADF1080C6DE904CED3
:1002D00000F006F8DDF804E0DDE9022304B0704721
:1002E0002DE9F047089D0C46002B4ED194468C45D5
:1002F0008646B2FA82F262D94AB1C2F12003914035
:1003000020FA03F30CFA02FC194300FA02FE4FEA4A
:100310001C471FFA8CF6B1FBF7F44FEA1E4307FBAC
:10032000141143EA014304FB06F199420AD91CEB7C
:10033000030304F1FF3080F01281994240F20F81F3
:10034000023C6344591A1FFA8EF3B1FBF7F007FB26
:10035000101143EA014300FB06F69E420AD91CEB4A
:10036000030300F1FF3180F0FC809E4240F2F980EF
:10037000634402389B1B40EA044000211DB1D34076
:100380000022C5E90032BDE8F0878B4205D90DB1E6
:10039000C5E9000100210846F5E7B3FA83F1002919
:1003A00046D1A34202D39042C0F0F080861A64EB9B
:1003B00003030120002DE6D0C5E90063E3E7002A2E
:1003C00040F09080A1EB0C044FEA1C481FFA8CF718
:1003D0000121B4FBF8F64FEA1E4308FB164443EA3A
:1003E000044307FB06F0984208D91CEB030306F10F
:1003F000FF3402D2984200F2CD8026461C1A1FFA22
:100400008EF3B4FBF8F008FB104443EA044300FB0E
:1004100007F79F4208D91CEB030300F1FF3402D217
:100420009F4200F2B0802046DB1B40EA0640A5E771
:10043000C1F120068B4022FA06F71F4320FA06FC82
:1004400004FA01F343EA0C03F44000FA01F8380C13
:100450004FEA1349B4FBF0FE1FFA87FC00FB1E4471
:1004600049EA04440EFB0CF9A14502FA01F20AD94B
:100470003C190EF1FF3A80F08480A14540F2818062
:10048000AEF1020E3C44A4EB09041FFA83F9B4FB5D
:10049000F0F300FB134449EA044403FB0CFCA445BD
:1004A00007D93C1903F1FF3067D2A44565D9023B57
:1004B0003C4443EA0E40A0FB0293A4EB0C049C4294
:1004C000CE469C4651D34ED055B1B8EB0E0364EBEB
:1004D0000C0404FA06F6CB401E43CC40C5E9006488
:1004E000002150E7C2F1200320FA03F10CFA02FCCC
:1004F00024FA03F394400C434FEA1C4800FA02FE2E
:100500001FFA8CF7B3FBF8F008FB1031230C43EA19
:10051000014300FB07F1994208D91CEB030300F1EA
:10052000FF362CD299422AD9023863445B1AA4B20E
:10053000B3FBF8F108FB113344EA034401FB07F372
:10054000A34208D91CEB040401F1FF3613D2A342E5
:1005500011D902396444E41A41EA004139E70446FA
:10056000F0E6084606E7C845AED2B9EB020E63EBEB
:10057000070C0138A8E73146EDE7034699E7304616
:10058000D4E7D6467FE7634402384DE70646234664
:1005900008460FE7023E634430E700BF704700BFE4
:1005A00008B5012008F092F9FBE700BF30B595B01F
:1005B00030220021022408A80AF018FD0023CDE90A
:1005C0000333CDE90533079304F0C8FF214A08A897
:1005D000214B116C41F080511164126C02F0805279
:1005E0000192019A1A6842F440421A6001221B6883
:1005F00003F4404302934FF4A0230299CDE908236A
:1006000004234FF480021093D823CDE90E421193B6
:1006100002220323CDE9122304F0E2FF08B172B6EF
:10062000FEE704F0A3FF034608B172B6FEE70F220F
:100630004FF4A05503A80721CDE903244FF48052BD
:10064000CDE90535079205F0B9F908B172B6FEE7B4
:1006500015B030BD00380240007000402DE9F04375
:1006600099B0BFF34F8FBFF36F8FBC480022C0F823
:100670005022BFF34F8FBFF36F8F436943F40033B2
:100680004361BFF34F8FBFF36F8FC0F88420BFF378
:100690004F8FD0F8805043F6E07CC5F34E34C5F35D
:1006A000C905640104EA0C012B4641EA8372013B4F
:1006B0005E1CC0F86022F8D1203C14F1200FF1D16B
:1006C000BFF34F8F436943F480334361BFF34F8FD0
:1006D000BFF36F8F0024A24D04F05CFB4FF4005871
:1006E000FFF764FF159449F2204122469D480126F8
:1006F00002274FF40049CDE91144CDE913442B6B97
:1007000043F004032B632B6B03F004030293029B5F
:100710002B6B43F020032B632B6B03F0200303931D
:10072000039B2B6B43F080032B632B6B03F0800345
:100730000493049B2B6B43F001032B632B6B03F09F
:1007400001030593059B2B6B43F002032B632B6B7B
:1007500003F002030693069B2B6B43F010032B63FD
:100760002B6B03F010030793079B2B6B43F00803DD
:100770002B632B6B03F008030893089B2B6B43F050
:1007800040032B632B6B03F040030993099B04F098
:10079000D7FE224644F68131734804F0D1FE22464A
:1007A0004FF43E41714804F0CBFE22464FF4004125
:1007B0006F4804F0C5FE224644F244216D4804F01F
:1007C000BFFE4FF4881311A96B481394CDE9118330
:1007D00004F07CFD4FF4A15311A9624811931296C5
:1007E000CDE9134404F072FD44F6813311A95E484B
:1007F00011931494CDE9126404F068FD11A95948CD
:100800001394CDE9118404F061FD11A955481497A2
:10081000CDF84490CDE9126404F058FD4FF41E4326
:1008200011A9524811931494CDE9126404F04EFDBD
:1008300011A94E48CDE91186CDE9134704F046FDD4
:100840004FF480430321494811930523CDE9141344
:1008500011A9CDE9127404F039FD11A94448CDF86D
:1008600044901494CDE9126404F030FD44F2442322
:1008700011A9404811931296CDE9134404F026FDC6
:10088000802311A93B481394CDE9113404F01EFDD7
:10089000602311A936481394CDE9113404F016FDF4
:1008A0002B6B0721224643F480030C202B632B6B18
:1008B00003F480030093009B2B6B43F400132B6322
:1008C0002B6B03F400130193019B04F0A5FA0C2099
:1008D00004F0DEFA224607210E2004F09DFA0E20D5
:1008E00004F0D6FA224606213B2004F095FA3B207C
:1008F00004F0CEFA22460621442004F08DFA44206A
:1009000004F0C6FA1D481E4A4FF4E1230461446214
:10091000C0E900230C23C0E90244C0E90534C0E962
:10092000074407F059FD034608B172B6FEE7154CBF
:100930006B2215490D90A361CDE91100CDE913009B
:10094000C4E90010C4E902022046C4E90433CDE939
:100950000E3305F09FFEC8B172B6FEE700ED00E071
:10096000003802400014024000040240001002401F
:10097000000C024000180240000802404001012023
:100980000048004020030120000001404FF4805542
:1009900011A92046119506F013FD034608B172B661
:1009A000FEE720460DA90F93CDE90D3306F024FF95
:1009B000D8B9714C714B0A9023604FF6FF73A06158
:1009C000E360CDE90D00CDE90F00CDE91100CDE9DF
:1009D0001300CDE90B00C4E90100C4E9040020467E
:1009E00005F058FE18B172B6FEE772B6FEE70DA923
:1009F00020460D9506F0E4FC08B172B6FEE72046ED
:100A000006F090F8034608B172B6FEE720460AA940
:100A10000C93CDE90A3306F0EFFE08B172B6FEE79B
:100A20000A220023012711A911920422524813938C
:100A30001493129706F070FA08B172B6FEE7504CA4
:100A40004FF482734F4D4FF4007CA060A06220638E
:100A5000C4E900534FF47063E3601023C4E906C394
:100A60000723E3620823C4E90400C4E90800204620
:100A7000636305F0AFFC08B172B6FEE7424D434B2D
:100A80000C902B60782317902861A861EB60CDE96A
:100A90000D00CDE90F00CDE90A00CDE91100CDE947
:100AA0001300CDE91500C5E90100284605F0F2FD67
:100AB00008B172B6FEE74FF480530DA928460D9396
:100AC00006F07EFC08B172B6FEE7284605F0D8FEB7
:100AD00008B172B6FEE70A900AA90C90284606F003
:100AE0008BFE024608B172B6FEE760213C231390EC
:100AF00015902846CDE9111311A906F0E1FA064632
:100B000008B172B6FEE7284603F006FE31462846D5
:100B100005F058FF642004F05BF940F20D333246D3
:100B20004FF480411A48ADF8443004F009FD6423C5
:100B300011A93A46204605F0C3FC4FF48041144801
:100B40003A4604F0FDFC1349134802F0E9FE08B9E7
:100B500072B6FEE707F0E6FC104A3146104807F08F
:100B600039FD104B186003F02BF808B972B6FEE798
:100B700007F0F4FCFEE700BF8802012000040140FA
:100B80006C03012000300140D40201200004004029
:100B9000000C024010BA0008B0B900083CBA0008C6
:100BA000A10500087C000120034B02689A4200D096
:100BB000704704F0FBB800BF0010004072B6FEE7BB
:100BC00010B4034600240846D11D9C60C3E900020E
:100BD000CA0821465DF8044B0AF008BA0246D0E97B
:100BE0000103984240F2918030B4CC090FD04FEA13
:100BF000D30CDB431468012003F0070300FA03F36E
:100C000014F80C00034304F80C30D2E9010301335B
:100C10008342936076D24D060CD5DC08DB43156821
:100C2000012003F0070300FA03F3285D03432B556B
:100C3000D2E9010301338342936063D28C060CD561
:100C4000DC08DB431568012003F0070300FA03F317
:100C5000285D03432B55D2E901030133834293609E
:100C600050D2CD060CD5DC08DB431568012003F01B
:100C7000070300FA03F3285D03432B55D2E9010370
:100C80000133834293603DD20C070CD5DC08DB4373
:100C90001568012003F0070300FA03F3285D0343FE
:100CA0002B55D2E901030133834293602AD24D07C9
:100CB0002DD401338342936024D28C070CD5DC08F9
:100CC000DB431568012003F0070300FA03F3285DF6
:100CD00003432B55D2E9010301339842936011D9A4
:100CE000C9070AD5D8431468DB08012100F00700C2
:100CF0008140E05C0143E15493680133012030BC42
:100D000093607047002030BC704700207047DC08BB
:100D1000DB431568012003F0070300FA03F3285DA5
:100D200003432B55D2E90103C3E700BFCB08C943F6
:100D3000C05C01F00701084100F00100704700BFEE
:100D400000293FD000F1FF3C4FF6FF7000B5614431
:100D500041F2210E1CF8013F80EA03204300020407
:100D60009BB248BF83EA0E035A00180492B248BFF0
:100D700082EA0E02530012049BB248BF83EA0E03BC
:100D80005A00180492B248BF82EA0E0253001204BD
:100D90009BB248BF83EA0E035A00180492B248BFC0
:100DA00082EA0E02530012049BB248BF83EA0E038C
:100DB00058001B0480B248BF80EA0E006145C9D1CB
:100DC0005DF804FB4FF6FF70704700BF00230380FF
:100DD000704700BF00B501F0010190F800C04FF06E
:100DE000000E41EA4C0190F801C00CF1010CC9B2AF
:100DF0005FFA8CFC0170BCF1080F80F801C082F82A
:100E000000E004D1197001231370A0F800E0012064
:100E10005DF804FBC00070478AB10A4470B51E46F5
:100E20004C1E551E01E0AC4207D014F8011F30469D
:100E3000FFF7D4FE0028F6D170BD012070BD01205F
:100E4000704700BF004870476CBA00080020704728
:100E500000285DD02DE9F0470D46C6B0002953D0DB
:100E60001646002A50D01F46002B4DD04E9B002B1B
:100E70004AD0509B509AB3FA83F35B09002A43D0BF
:100E8000B1F80290B9F5807F3ED80A78044609F19E
:100E900006080DF1140A62F307034A7862F30F2380
:100EA0004FEA192262F3174369F31F630493B9F100
:100EB000000F4BD109F1040104A8FFF741FF6B8833
:100EC000257B020A02350AF803200DF11502ED0018
:100ED000D0544046736998474F9B05449D4213D8B0
:100EE0001A464E9901A8FFF76BFE237B93B10025AC
:100EF00002E0227B9A420DD90135552101A8FFF766
:100F00006DFEEBB20028F4D1002046B0BDE8F087BA
:100F100000207047E18901A8090AFFF75FFE002859
:100F2000F2D0A17B01A8FFF759FE0028ECD038468B
:100F3000B3689847F468424604A9384601ABA04715
:100F40000028E1D0039B509A1360DEE74A46043143
:100F500050460AF0D5F8ADE702F036BF02F082BF86
:100F600002F096BF03F096B903F0B6B903F0D6B914
:100F70002DE9F04F83B09B4606460D460E9C109B14
:100F8000002C18BF00289DF83010BDF834700CBF3D
:100F90004FF0010A4FF0000A002B14BF50464AF0F0
:100FA000010068BB6B0001930F9BB3EB450F24D38B
:100FB000002D53D04FEA074832B301F00109043441
:100FC000824651463046FFF7B1FE89F0010110B16B
:100FD0000846494681468B450CBF40463846CB45BE
:100FE0000AF1010A44F8040C33D0554544F8087B53
:100FF000E7D1109B0120019A1A6003B0BDE8F08F81
:10100000002003B0BDE8F08F914604F1040A494680
:101010003046FFF78BFE002813BF012200224FF05D
:10102000010C4FF0000CDC4514BF38464046934598
:1010300044F8390006D14AF8398009F10109A94577
:10104000E5D1D6E74AF8397009F101094D45DED1FD
:10105000CFE7554544F8088BB3D1CAE70195C8E7F7
:101060002DE9F04701F5805741F22A020C46064669
:10107000B7F82C80881841F22B05C2B098FA98F97D
:101080001FFA89FA0AF1040189B263189A5C5D5D5E
:1010900045EA0225FFF754FE854220D006F540556B
:1010A000D5F8603795F86417002B5CD0DA68013208
:1010B000DA6029B9012285F864271A6901321A61B8
:1010C000002341F2341063712044D5F85427C7F847
:1010D000303192683B8542B0BDE8F04710477B8DC8
:1010E000ADF80690ADF80430B8F1000F41D106F527
:1010F0004055D5F8603713B19A6801329A60D5F837
:1011000058371BB101A9D5F85C079847002406F5AC
:10111000005706F58058D5F8543742F29E50A8F88B
:101120006A4488F86D44304488F86F449B68C7F877
:101130009A45A7F892449847D5F8543743F212706D
:1011400001229B68304487F8E14587F8E345A7F81A
:10115000DE25C5F80E47A5F80646984788F84A44A4
:1011600042B0BDE8F0870029AAD1012385F8643791
:10117000A6E741F22E01524602A8214409F0C0FF21
:10118000B5E700BF41F26A432DE9F04103440C4644
:1011900089780546B4EB030E4FF0000082B018BF0B
:1011A0004FF0010E9142607000F096802878002880
:1011B00053D0E378002B00F0C98023792271591AAB
:1011C000B1FA81F149098C4850F82E20013240F8DB
:1011D0002E206379002B47D104F58056338D33B927
:1011E000A8E092F815383385002B00F0A380E218B0
:1011F00092F806C08C45F4D1804F37F81E0080B2BB
:10120000984201D227F81E3092798A4200F09A80E3
:10121000338DF28C9A421DD12344012205F54057AB
:1012200041F2341093F8153820443385627100225E
:10123000D7F85437C6F830219B68984797F8643739
:101240002BB1D7F8603713B15A6A01325A620023C2
:1012500087F8643702B0BDE8F081002908BF012A91
:101260000CBF01210021AEE7002341F2341805F53F
:1012700040570DF10602A0448DF806308DF8073076
:10128000D7F8543740461E690DF10703B0470028D0
:1012900062D09DF80630002BDCD004F58056B6F8FD
:1012A0003031B3F5837F76D25A1C41F22A012344B0
:1012B0009DF8070092B2042AA6F83021585400F095
:1012C0008C80B6F83231002BC4D09A42C2D121466C
:1012D0002846FFF7C5FEBDE7494A52F82E300133D4
:1012E00042F82E306379012B04D00023E37002B062
:1012F000BDE8F08105F54057D7F8602797F86407F7
:10130000002A5FD0916A0131916220B9116987F892
:10131000643701311161002204F5805341F2341029
:101320006271D7F854172044C3F8302189681A85B0
:101330008847DAE7314A32F81E20224692798A42FB
:101340007FF466AF01339BB2338562E701232271DC
:10135000E37002B0BDE8F081D7F8603797F8641702
:10136000002B34D01A6B01321A6329B9012287F895
:1013700064271A6901321A61002304F5805240463D
:101380006371D7F85417C2F8303113858B689847CA
:1013900002B0BDE8F08197F8643743B9012387F8BC
:1013A0006437D7F8603713B11A6901321A61002324
:1013B00040466371D7F85427C6F8303133859368B7
:1013C000984747E70028A6D187F86437A3E70029A4
:1013D000D2D1012387F86437CEE72A89B38DB2F5DD
:1013E000807F5BBA28BF4FF480729BB29342D2D801
:1013F0000633A6F832312DE7640401206004012091
:101400006C0401202DE9F04F9D4D85B004462978EC
:10141000002940F0C9809B49012704F5805EA66A37
:101420004FF000092F709EF84A5426FA07FBC1E9D5
:1014300000231B0443EA12431204002D00F0DF8056
:1014400004F5A358904D4FF0AA3758F8080C58F8F7
:10145000041C0290B0EB0B00039161F1000C101A18
:1014600063EB0C0C16EB09010090A5FB019ACDF87B
:1014700004C02AF0010909EB5A09A1EB0901711A0C
:1014800001FB07F766EB0606BCF1000F05FB0677CC
:10149000A1FB05153D447CDB009EB14201998D41C5
:1014A00057DA04F54055D5F8600710B1C16A01312B
:1014B000C1629EF868140131C9B205298EF868141A
:1014C00064D995F8641731B9012185F8641710B112
:1014D00001690131016141F250401BEB02014FF003
:1014E000000604F50057225020444FF000024360EC
:1014F00043F1000348F8081C42F29E5048F8043CAF
:1015000000232044C8E900238EF86864D5F85437D6
:10151000AEF86A648EF86D648EF86F649B68C7F8E5
:101520009A65A7F892649847012343F2127087F8EE
:10153000E165A7F8DE35D5F85437204487F8E36530
:101540009B68C5F80E67A5F8066605B0BDE8F04FC4
:101550001847BCF1000F02DA07304CF1000C41F2E1
:1015600050410023C0088EF868346518635840EA7B
:101570004C706A681B18635042EBEC02029B6A6075
:101580001818039B43EBEC0248E9020205B0BDE8E2
:10159000F08F464200966CEB4C060196009EB142DD
:1015A00001998D41D5DA7CE73649384F0868D7F87C
:1015B00000C0101A4E6863EB0606BCF13F0F12D84C
:1015C000D7F800E0B0F5803F84460EF10108C7F877
:1015D000008076F100072E4F28BF4FF6FF7C1FFAE0
:1015E0008CFC27F81EC0202876F10006BFF414AF4B
:1015F000284F57F82060013647F820600CE741F289
:1016000050418EF84A7412EB0B0004F540586250BA
:10161000214404F5A3524FF0000A4B604FF0000B39
:1016200043F1000304F5005642E90203C2E900ABAE
:1016300042F29E508EF86854D8F85437AEF86A5487
:1016400020448EF86D548EF86F549B68C6F89A55F6
:10165000A6F892549847D8F8543743F21270A6F877
:10166000DE759B68204486F8E15586F8E355C8F896
:101670000E57A8F8065605B0BDE8F04F184700BF52
:10168000D0030120D8030120ABAAAAAA7404012028
:1016900078040120E00301202DE9F04F8BB0049382
:1016A000002800F09E8000F580579246064697F885
:1016B0004914002900F0A280194600F5A2530593B1
:1016C000D3E90023524573EB010180F08A8097F83B
:1016D0004A14002975D0816A1B04032097F84884B6
:1016E00043EA1243A1FB0014120488184FEA0A418E
:1016F00044EB0305049B88428B464FEA034343EACD
:101700001A4375EB030299466EDB41F26A42CDF84B
:101710000CA006F5A354C2463244CDE90613CDE928
:10172000080502925246029954E902C0DC4570EB6A
:10173000090370DAB36A2568019315F1010863683B
:1017400005F0010EC4F8008043F10008019BC4F8C5
:10175000048013EB0C0340F1000044F8083C97F8B8
:101760006B3444F8040C30461BBB97F86A249B4248
:1017700008BF964505D14FF0010387F86CA487F8A0
:101780006B3406F5005C42F2DE5105F0010552466D
:101790009CF8DF35314430464BBB9CF8DE259B423C
:1017A00008BF9542BED101238CF8E0A58CF8DF3547
:1017B000B8E7FFF7E7FC97F84A34002BE1D1DDF8F2
:1017C0000CA0049C524630462346FFF71BFE059AA8
:1017D000C2F800A0546097F8483483F0010387F8FA
:1017E00048340BB0BDE8F08F8346A9468DE7FFF77C
:1017F000C9FC97F84A34002B94D1E0E700F5A256D3
:1018000040F2011132607360A7F848140BB0BDE8D4
:10181000F04FFFF7F7BDDDE90613DDE90805DDF858
:101820000CA0884275EB0303CBDA97F86F3406F50A
:101830000055012B2ED095F8E335012B2AD006F563
:101840004058002442F29E5087F868443044D8F84B
:10185000543787F84A44A7F86A4487F86D4487F8F4
:101860006F449B68C5F89A45A5F8924498470123B0
:1018700043F2127085F8E145A5F8DE35D8F8543703
:10188000304485F8E3459B68C8F80E47A8F806463B
:10189000984796E706F5405898F86437002BD0D162
:1018A000012388F86437D8F86037002BC9D01A694B
:1018B00001321A61C5E700BF002800F090802DE9D1
:1018C000F04F00F5805A87B007469AF8491400296E
:1018D00078D000F5A251D1E90001904271EB0304E8
:1018E00070D29AF84A44002C6CD04FEA034BBB6A82
:1018F00016044BEA124B03220904B046A3FB023242
:10190000D94641EA104100041B1842EB01019AF844
:101910004824B342019271EB0B0256DB41F26A425A
:1019200007F5A354CDE9026B02EB070BCDE90431B7
:1019300054E902C0019A5946C44570EB09034FDAD5
:101940002568BB6A6E1C05F0010E2660666846F1CC
:10195000000613EB0C0340F1000044F8083C9AF831
:101960006B3444F8040C384666602BBB9AF86A2442
:101970009B4208BF964506D1019B8AF86C344FF014
:1019800001038AF86B3407F5005642F2DE5105F088
:101990000105019A96F8DF3539443846C3B996F8FF
:1019A000DE259B4208BF9542C2D1019B86F8E035F7
:1019B000012386F8DF35BBE7FFF7E4FB9AF84A34EA
:1019C000002BE0D107B0BDE8F08F98468946A5E727
:1019D000FFF7D8FB9AF84A34002BA9D1F2E77047F9
:1019E000DDE9026BDDE90431B34271EB0B0BE9DA9F
:1019F0009AF86F3407F50055012B30D095F8E33590
:101A0000012B2CD007F54056002442F29E508AF854
:101A100068443844D6F854378AF84A44AAF86A44E5
:101A20008AF86D448AF86F449B68C5F89A45A5F812
:101A300092449847012343F2127085F8E145A5F8D6
:101A4000DE35D6F85437384485F8E3459B68C6F848
:101A50000E47A6F8064607B0BDE8F04F184707F551
:101A6000405696F86437002BCED1012386F86437B0
:101A7000D6F86037002BC7D01A6901321A61C3E764
:101A8000002B18BF002922D02DE9F04FB0FA80FAC0
:101A9000B3B083464FEA5A1AA8B198464B689146AC
:101AA0000C46B2EB830F0ED30B7B032B0BD90B7CB5
:101AB000042B08D80B89013B9BB2FF2B03D8D8F825
:101AC0000430402B05D9002033B0BDE8F08F002052
:101AD0007047264643F2687251465D4609F086FA21
:101AE0000BF540570FCE0FC563684FEA430C96E8DD
:101AF0000F0085E80F00CBE9089C624653464FEA89
:101B000009404FEA1941D146FEF7D2FB3C9BCBF886
:101B10002800D646C7F860373D9BC7F85487C7F8FA
:101B200058373E9BC7F85C370BF580539BF8101075
:101B30004D1CEDB26A00CDE9014883F82D2498468A
:101B40005B46BB461A464FF0000A4B465FFA8EF4DE
:101B50008EF0010756469146981906F1010C0022B5
:101B6000C0B25FFA8CFC09EB0020CDE9033A2B30C0
:101B7000CDE9059B7CE0494500F2A9808AF0010A85
:101B80004FF000095FFA8AFBC2F3401A4BEA4303A5
:101B9000D345DBB200F08680494500F2B0808BF07F
:101BA000010B4FF000095FFA8BFA5B00C2F3001BD8
:101BB000DBB2DA454AEA0303DBB200F0858049452F
:101BC00000F297808AF0010B4FF000095FFA8BFB5F
:101BD0005B00C2F3C00ADBB2DA454BEA0303DBB2B7
:101BE0006FD049457FD88BF0010A4FF000095FFAAA
:101BF0008AFA5B00C2F3800BDBB2DA454AEA0303E0
:101C0000DBB25BD0494568D88AF0010B4FF0000980
:101C10005FFA8BFB5B00C2F3400ADBB2D3454BEAB1
:101C20000303DBB247D0494579D88BF0010A4FF066
:101C300000095FFA8AFA5B0002F0010BDBB2DA45B9
:101C40004AEA0303DBB233D049455ED88AF0010B80
:101C50004FF000095FFA8BFB01324BEA43030BFBA9
:101C60000599B2F5807F00F8013F80F8009A5CD0BA
:101C7000C2F3C71AD311544517D0B1424BD8BA4654
:101C80003B464FF00009C2F3801BD3457FF473AF8E
:101C9000C2F3401A4BEA43034FF00009D345DBB2CD
:101CA0007FF47AAF4FF000097FE74FF00009EAE7D1
:101CB0004FF00009D0E74FF00009BCE74FF00009F2
:101CC000A8E74FF0000994E74FF0000980E709F119
:101CD0000109D3465FFA89F956E709F10109D346AC
:101CE0005FFA89F996E709F10109DA465FFA89F99D
:101CF0007FE709F10109D3465FFA89F968E709F13D
:101D00000109DA465FFA89F94FE709F10109D3467B
:101D10005FFA89F9A0E77346E146A246B3E709F105
:101D20000109DA465FFA89F985E7DDE9033ADDE979
:101D3000059B0AF1010A5FFA8AF6B142BFF40CAFC3
:101D40004A469946A94413465FFA89F9BEF1000F45
:101D500002D14FF0010EF5E6019C00215F4693464B
:101D600094F80CA04346019141F270490AF1FF3109
:101D7000E289DDF808800BEB0905C9B241F67F4620
:101D8000D00B03291F90C2F3803038BF032120906D
:101D9000C2F340305145219028BF5146BAF1010F9E
:101DA00098BF012110910139C9B201314FEAC10C2C
:101DB000C2F300312291C2F3C0212391C2F38021EA
:101DC0002491C2F340212591C2F300212691C2F350
:101DD000C0112791C2F380112891C2F340112991BB
:101DE000C2F300112A91C2F3C0012B91C2F380010A
:101DF0002C91C2F3400102F001022D912E920CF1C0
:101E000001020E920CF102020F920CF103021192E8
:101E10000CF1040212920CF1050213920CF106026D
:101E200014920CF1070215920CF1080216920CF1B3
:101E3000090217920CF10A0218920CF10B02199286
:101E40000CF10C0231931A920CF10D021B920CF161
:101E50000E021C920CF110021D920CF10F02CDE942
:101E60002F871E92BAF1000F00F0AE80109B4FF04A
:101E700001215A1C05F1080305EBC20243E90211D6
:101E800008339A42FAD10E9A6446DDE91B38DDE93F
:101E90001D700D931A9B0C93199B0293189B0B9327
:101EA000179B0A93169B0993159B0893149B079302
:101EB000139B0693129B0593119B04930F9B039313
:101EC000019941F2741303FB01B11F9B0C440A44B6
:101ED00004F80930209B02F80930039B219A0B4437
:101EE00003F80920049B229A0B4403F80920059B60
:101EF000239A0B4403F80920069B249A0B4403F809
:101F00000920079B259A0B4403F80920089B269A71
:101F10000B4403F80920099B279A0B4403F8092076
:101F20000A9B289A0B4403F809200B9B299A0B441F
:101F300003F80920029B2A9A0B4403F809200C9B02
:101F40002B9A0B4403F809200D9B2C9A0B4403F8A1
:101F5000092001EB08032D9A03F809200B182E9A8B
:101F600003F80920BB1E05F580529BB217844FF081
:101F700000026F1C85F810282A461F44002312F81F
:101F8000018F13B916E0835DA3B1C81810F809409A
:101F90004445F8D10133BA429BB282F81038EED1F1
:101FA00005F58B55019B14356BBBCDF804E059E763
:101FB00012F8018F2B78984567D04FF00003BA4292
:101FC00082F81038F4D1EBE70C230D220A24062105
:101FD0000F2010274FF00E08CDE90C320B230822FA
:101FE00002930923CDE90A3407230424CDE90832FA
:101FF00005230122CDE906310323CDE90434022370
:10200000544603935CE70BF50055319BB5F89044BB
:10201000DDE92F87002C3FF456ADB7F80426002ADF
:102020003FF451ADA41A18BF0124002C7FF44BAD2E
:1020300042F29E50A3F86A4483F86D4483F86F44DB
:102040005844D8F80830C5F89A45A5F892449847FE
:10205000D7F85437012243F212709B6885F8E145A6
:10206000584485F8E345A5F8DE25C7F80E47A7F8DC
:1020700006469847B5F89034002B3FF424ADB7F8E6
:102080000406003818BF01201EE50123BA4282F879
:10209000103885D012F8018F77E700BF00284BD0A9
:1020A00041F2504200F58053002102442DE9F041F5
:1020B000002400F54057054600F5A256002083F89D
:1020C0002C4483F82E4483F8304446E90201A3F8F7
:1020D000494405F50056C2E9000105F5A35242E95D
:1020E0000201C2E9000183F8684442F29E5087F879
:1020F0006447A3F86A44284483F86D4483F86F4426
:10210000D7F85437C6F89A459B68A6F89244984782
:10211000012343F2127086F8E145A6F8DE35D7F8C0
:102120005437284486F8E3459B68C7F80E47A7F85C
:102130000646BDE8F0411847704700BF002834D07C
:1021400030B5058AADF5057D0446B5F5007F03D9A8
:1021500000200DF5057D30BD4FF404720021684666
:1021600008F044FF2378A2688DF80030636802927B
:10217000ADF80C5001938DB900230D4869461A46FD
:10218000006806F00BFC18B901200DF5057D30BD87
:10219000084A0020136801331360DAE72A46E16831
:1021A0000DF10E0008F0ACFFE6E70020704700BF1D
:1021B000EC050120B405012038B5204C0122204D4A
:1021C0004FF480411F4803F0BBF9204600224FF432
:1021D000004103F0B5F9284600224FF4006103F0F6
:1021E000AFF9284600224FF4007103F0A9F9A5F5D4
:1021F0004065204601224FF4806103F0A1F920469A
:1022000001222021104C03F09BF9284601224FF4B3
:10221000807103F095F9284601224FF4007103F014
:102220008FF9A18C206A002203F08AF9A18BA069A2
:102230000122BDE8384003F083B900BF001402401A
:102240000010024000180240805D01202DE9F04797
:10225000DFF8C4A01E46C2B0BAF808309DF8289135
:102260008B4203D2002042B0BDE8F0870D461446F1
:1022700007464FF48272002101A808F0B7FEDFF88C
:102280009C809AF81B3098F800209B00ADF806500F
:1022900043EAC2031C4A49EA030944EA090444EA3E
:1022A00046038DF80430002388F8003013788DF849
:1022B00005300133137005BB144800224B9B01A964
:1022C000006806F06BFB18B9012042B0BDE8F0874A
:1022D0000F4B01220F499C69086C1444B1F844105B
:1022E00088F800209C615C6B14445C630028B9D0C2
:1022F0000029B7D003F024F9B4E72A46394602A8EA
:1023000008F0FEFED8E700BF17050120F805012000
:10231000285D0120805D0120605D01201405012001
:102320000F4C104D08B54FF4FA7006F0CFFAA18E9D
:10233000206B03F009F9EB6833B96B6923B9AB691A
:1023400013B9EB69002BEED0206CB4F844100028D0
:10235000E9D001220029E6D003F0F2F8E3E700BF5C
:10236000805D0120285D01202DE9F0411D4CADF577
:10237000027D22781AB10DF5027DBDE8F08102F0F0
:10238000FF0319491A46086801A906F05BFB0546D8
:102390000028F0D1BDF804700DF10601134E4FF086
:1023A00001083A46124808F0ABFE3A4610497068F8
:1023B00084F8008005F080FA0028DCD00D4F0E4A2A
:1023C0003B68306C4344B6F844103B602570D369D9
:1023D0004344D3610028CED00029CCD0424603F03C
:1023E000AFF8C8E718050120F0050120805D012045
:1023F00000800020B8050120285D0120124A134901
:1024000008B513681B68D86820F48070D860186A13
:10241000014021B9186A40F2444108420DD00C4BEA
:102420001069918A1A7F03F08BF80A4B186848B13B
:102430000421BDE8084006F01DB9196821F001012A
:102440001960ECE708BD00BF805D0120111111008B
:10245000605D012008060120034B186810B10221BD
:1024600006F008B9704700BF080601200000000010
:102470002DE9F04F484C0023484E494AE168A068D6
:102480002DED028B85B0C6F85827C6F85C3701F0F1
:1024900077FEA0B9434A206C5369B4F84410013365
:1024A000536118B111B1012203F04AF84FF47A7068
:1024B00006F00CFA4FF47A7006F008FAF6E79FED92
:1024C000348BA6F54053384C384DDFF8F8B0DFF8C0
:1024D000F880374E374FDFF8F4A001930122002136
:1024E000104606F051F900212378084603F0FF0951
:1024F00013B101F035FDF1E72B78504603F0FF01F1
:1025000073BB01F02DFD814606F04AF80246B9F191
:10251000000F03D0012338603370DFE73378002BDE
:10252000DCD03B684FF0040C01989342D6D0224B8C
:102530001968D8E90023E1FB0C23CDE90232FFF74B
:10254000BBF9039A029BC8F800201C4AC8F8043063
:1025500013688BF80090013386F800901360BDE794
:102560004946484601F0FCFC0198FFF797FD144BE3
:102570008BF80090A3F8009086F8009088ED008B0F
:1025800006F00EF885F800903860A7E7AFF30080FA
:102590000000000000000000805D0120505001207C
:1025A00071290008285D0120F9040120F8040120A8
:1025B000D0570120CC5701201C5D0120C4570120B9
:1025C000E0570120E2570120D8570120B529000823
:1025D0002DE9F84F0B780C46112B0AD0122B00F086
:1025E0009380102B2CD0674A136801331360BDE829
:1025F000F88F654D2B78002BF5D04A686B689A42AE
:10260000F1D18A68AB699A4204D06049AA610B682B
:1026100001330B60238A298A9942E4D3296A5C48F2
:102620005B18696A41F100012B626962016801313E
:10263000016058490A6001325749AA610B605BE0AA
:102640000B8A2F2B40F29580CD682E89D5F800801B
:10265000D5F804A0D5F80A90EF8D002E00F08980FF
:10266000303B9F4200F28580DFF81CB148220021F8
:10267000584608F0BBFC63680BF1280CCBF81490AB
:10268000CBF80CA0D5F81620D5F81210CBF80430F2
:10269000CBF80880D5F81A30ABF81060D5F80E00EA
:1026A000ACE80F00D5F81E00D5F82210D5F826208A
:1026B000D5F82A30ACE80F0001234022002137482A
:1026C0008BF8003008F092FC3F2F3A4605F13001BC
:1026D000324828BF3F2208F013FD314A6168136871
:1026E000304801331360304B0160304AC3F800902A
:1026F0002F4B1660C3F800802046FFF71FFD00280F
:102700003FF471AFBDE8F88F1F4D2B78002B3FF4DD
:102710006AAF4A686B689A427FF465AF0A8A202ADA
:102720007FF461AF05F12801E06808F04FFC18B1B3
:10273000144A136801331360A2686B699A4203D08C
:10274000124A1368013313601A4A13680133D5E93A
:1027500008011360D5E90223994208BF904203D0D3
:10276000084A1368013313600023134A2B70137057
:10277000C2E7044A13680133136000220E4B1A703B
:10278000BDE8F88F40580120505801203C580120E6
:10279000485801203058012028580120E4570120D2
:1027A0004C58012038580120345801202C58012061
:1027B00024580120445801209958012038B51E4C56
:1027C0001E4A23681B68D96821F48071D960196A90
:1027D0000A4022B9196A40F24442114213D0184DFE
:1027E000A18A20692A7F02F0ABFEAB7E012B02D1C9
:1027F000144D2B7863B9144B1868C0B10121BDE8A2
:10280000384005F037BF1A6822F001021A60E6E787
:10281000FFF7D2FCE06A58B9002301200B490C4AAB
:1028200008702B701370084B18680028E6D138BD6B
:1028300006F04CF8F0E700BF805D01201111110097
:10284000605D01209E05012008060120F80401209A
:10285000F904012000293CD0F0B50546ADF5037D13
:102860000C4616461C4F05E0BDF80410641A0D44D2
:10287000A4B22CB3B4F5007F224629460DF1060020
:1028800028BF4FF40072ADF8042008F039FC33463D
:10289000002201A9386806F081F80028E4D00F4B27
:1028A0000F499A69086C0132B1F844109A615A6B69
:1028B00001325A6300B139B900200DF5037DF0BD36
:1028C00001200DF5037DF0BD012202F039FE00204C
:1028D000F3E70120704700BFF0050120285D0120CB
:1028E000805D012038B3028A40F21221C36810B51E
:1028F000ADF50A7D05AC02910092D0E90112007895
:10290000019402F077F838B90C4A002013680133BB
:1029100013600DF50A7D10BD01464FF0FF322046D1
:10292000FFF798FF0028EFD0054A136801331360C2
:102930000DF50A7D10BD0020704700BFA0050120E5
:10294000A405012030B54FF0FF3583B010240846B0
:1029500011460022CDE90045FFF778FC18B1034A83
:1029600013680133136003B030BD00BFDC58012091
:1029700008B50D48002300681A4606F00FF860B14C
:102980000A4B0B499A69086C0132B1F844109A61FC
:102990005A6B01325A6300B101B908BD0122BDE88A
:1029A000084002F0CDBD00BFF4050120285D0120E4
:1029B000805D0120002845D02DE9F84FB1FA81F45F
:1029C0008B46640900293BD0851EDFF88C801E4FA2
:1029D000DFF88890DFF888A01C4E23E03B883A801F
:1029E000D21A92B2C9F80020CAB1DAF800303168C0
:1029F00003EB4303DFF86CC09A4204D9DCF80030E3
:102A00000133CCF800305218736843F10003C6E973
:102A10000023FEF741FE0E4A1368013313600134B0
:102A2000A3450DD998F800300A4835F8022F002B3D
:102A3000D4D101233A8088F80030D6E90023E8E7B2
:102A4000BDE8F88F704700BFE0570120D85701203C
:102A5000C857012050200120E2570120BC57012017
:102A60001C5D0120C05701202DE9F0432F4F83B09A
:102A7000064605887B78012B39D07B89B3F5805FCA
:102A800028BF4FF48053AB4211D2294B002429496F
:102A9000DA69086C0132B1F84410DA615A6B01321C
:102AA0005A63348000B181BB03B0BDE8F083CDB17F
:102AB0000024DFF88490A046291B09EB04000022C3
:102AC00089B2CDE900883B89994228BF19460C4458
:102AD000A4B2631BB3FA83F35B09FFF7B7FB358836
:102AE000A542E9D80023338003B0BDE8F0830C464B
:102AF0008DB90A78002AD7D01A4629462846CDE94A
:102B00000055FFF7A3FB2570CEE7012203B0BDE817
:102B1000F04302F015BD002729461A460648CDE9C4
:102B20000077FFF793FB37802770BDE7605D0120DA
:102B3000285D0120805D0120100E01202DE9F04F5D
:102B4000DFF83881164683B0814698F801200D469B
:102B5000F9B9012A1AD03188B8F80A304A19B3F500
:102B6000805F28BF4FF480539A4241D9404B0024E4
:102B70004049DA69086C0132B1F84410DA615A6BE5
:102B800001325A63348008B100293DD103B0BDE859
:102B9000F08F3748012AB6F800C001682944016067
:102BA0006146D9D11A700023DFF8CCA0B8F80840EC
:102BB000A5EB030E09EB03010AEB0C00A4EB0C04DC
:102BC0001FFA8EFBA4B2E718A6452246BFB221DB4E
:102BD00008F096FA32883B4614441FFA84FCA6F8A3
:102BE00000C0B8F80820624531D09D42DED8CDE75C
:102BF00021482A460844494608F082FA33881D4491
:102C0000358003B0BDE8F08F012203B0BDE8F04F7E
:102C100002F096BC5A4609EB03010AEB0C0008F0DF
:102C20006FFA32882B4693441FFA8BFCA6F800C03B
:102C3000B8F808206245D8D10024012261460E4828
:102C40002346CDE90044FFF701FB34809EE70023D3
:102C5000614601225046CDE90033FFF7F7FA4FF005
:102C60000003BD4233803B4690D94FF0000C9DE7F6
:102C7000285D0120805D0120100E0120605D012093
:102C80006B4A6C481368013370B513600C466A4D8B
:102C900086B0D1E901212A6001602378802B0CD015
:102CA000112B00F08580122B6AD0102B1CD0634AA8
:102CB00013680133136006B070BD238A012BF6D16F
:102CC000E46800235E482478006802921A46039163
:102CD00001A98DF8044005F061FE0028EBD1594AA6
:102CE000136801331360E6E757480578002D6CD16F
:102CF000564D01212A60564A002301701170554A31
:102D000055481370228A55490D2A03600B60CED9AD
:102D1000E168534A0D68534BD1F80A101D601368DF
:102D200051480133016013602046FFF7DBFD0028A6
:102D3000C1D02378122B68D0D4E901214B4C8020DC
:102D40008DF8003002920122A37E8DF80400934298
:102D50000391CDF810D0ADF8142044D00023444A9C
:102D6000218901A801F0ECFA002837D04149424AF4
:102D70000B6801330B6013680133136006B070BD3C
:102D800031480078002896D030480068824292D1BD
:102D900035480068814212D12F48006881420ED127
:102DA0002C480078A8B9354A136801331360BBE793
:102DB0002548007818B125480068824217D0304A6B
:102DC00013680133136006B070BD204D2E68B24207
:102DD0008FD12C4C206801302060AFE72A4A13685D
:102DE0000133136067E7032005F070FDB6E718486C
:102DF00000780028E3D0184D286881420BD00028C5
:102E0000DDD001388142DAD1E3E712480125D4E967
:102E10000121057092E71D480131104A03682960BD
:102E200001330360238A11680B4413607CE700BF01
:102E3000D4580120B4580120B8580120CC580120A2
:102E4000E8050120D0050120A05801209C58012050
:102E5000A85801209A580120A4580120B0580120F8
:102E6000C8580120AC580120C8050120605D012030
:102E700045290008E0580120D4050120C058012050
:102E8000BC580120CC050120D8580120C45801208D
:102E90002DE9F04FDFF8C0B1ADF25C4DDFF8BC8139
:102EA000DFF8BCA160484FF0FF3300220DA9006895
:102EB00005F0C8FD0028F5D10DF1420381460B93C2
:102EC0009DF834308DF820300F9B0A930E9B0993A8
:102ED000BDF84030ADF8303054490023544A08A8BA
:102EE000098901F02DFA00285ED0DBF800300133AB
:102EF000CBF800309DF82030DDE90967059305F037
:102F00004FFB044600F1640505F04AFBA0EB040CFE
:102F1000002291A9BCF1630FA5EB000334D8D8F8C7
:102F2000000005F08FFD00282ED1929B9E42EBD130
:102F3000939B9F42E8D19DF84432059A9342E3D196
:102F40003C4A91AB8020019313680133136040F237
:102F500012230293012300939DF82030DDE909122A
:102F60008DF81C3007AB01F045FD0146002856D016
:102F70004FF0FF3291A8FFF76DFC002892D02E4A47
:102F80001368013313608DE72C4A09F101091368B6
:102F9000B9F1100F03F1010313600FD0DAF800301C
:102FA0000133CAF8003097E7254A09F1010913688F
:102FB000B9F1100F03F101031360EFD1214A136837
:102FC00001331360204A536B013353631F4B186C5A
:102FD000B3F8441018B111B1012202F0B1FA91AB6B
:102FE0008120019340F212230293012300939DF864
:102FF0002030DDE909128DF81C3007AB01F0FAFC36
:10300000014660B14FF0FF3291A8FFF723FC002882
:103010003FF448AF0E4A13680133136042E70D4A8C
:103020001368013313603DE7EC050120605D01206A
:1030300045290008E4050120B0050120DC05012038
:10304000D8580120D8050120285D0120805D01208D
:10305000AC050120A8050120E0580120E805012069
:10306000E00501202DE98048DFF84C91ADF5437D66
:10307000DFF84881DFF848B1DFF848A1464F474EF6
:103080004FF0FF3300226946D9F8000005F0DAFC62
:103090000028F5D1D8F800309DF800200133110741
:1030A000C8F800309DF8013017D49BF80010A1B18A
:1030B0003B490978994210D0DAF82010386C013178
:1030C000CAF82010B7F8441038B131B1012202F02B
:1030D00037FA9DF801309DF8002001333049BDF8E2
:1030E00002400B704FF001038BF80030D30613D56C
:1030F0002C4922462C480B6801330B602B490B6886
:1031000001330B6001A901F099F90028B8D1284AD0
:10311000136801331360B3E7264A13680133136061
:1031200074B301AD05E0BDF80431E41A1D44A4B246
:1031300034B3B4F5007F224629460DF5837028BFCD
:103140004FF40072ADF8042107F0DAFF002341A923
:1031500030681A4605F022FC0028E4D0DAF818306E
:10316000386C0133B7F84410CAF81830DAF8343044
:103170000133CAF8343018B111B1012202F0E0F97C
:10318000386BB98E00283FF47BAF00293FF478AF4D
:10319000012202F0D5F973E7805D0120F0050120DE
:1031A00016050120FC040120E4580120D05801201C
:1031B000CC58012000050120F40501200405012060
:1031C00015050120285D0120F0B5294DADF23C4DDB
:1031D000284F2B680DA86A680DAE0092AA6801926C
:1031E000EA6802922A6903926A690492AA690592BE
:1031F000EA6906922A6A07926A6A0892AA6A09929A
:10320000EA6A696B0A920B914FF400711A4A07F04F
:10321000A9FE84B205E0BDF83432E41A1E44A4B21B
:103220001CB3B4F5007F224631460DF2362028BF8C
:103230004FF40072ADF8342207F062FF00238DA92D
:1032400038681A4605F0AAFB0028E4D0AB690B4A9F
:103250000133106CAB616B6BB2F8441001336B63DC
:1032600018B111B1012202F06BF90DF23C4DF0BD25
:10327000285D0120F005012084BA0008805D01204E
:103280002DE9F04F002387B0DFF8EC92ADF816304F
:103290008DF8133005F084F906464FF40062AA4910
:1032A000D9F80400019605F017F9A84DA84B68B1AC
:1032B0001A68D9F840000132B9F844101A60EA6976
:1032C0000132EA6110B1002940F0A3814FF00008FB
:1032D000A04FDFF8A8B2DFF8A8A2CDE902530A2276
:1032E0000021072005F050FA821C3DD00028C0F2D2
:1032F0008781430738D5D9F80400002404F01EFB69
:1033000007F0C0FB944B1C703C7007F0E1FB934B43
:103310004FF40062ADF816408DF8134001248A493D
:10332000D9F804001C7005F0D7F880B1039AD9F8D9
:1033300040001368B9F8441023441360029AD3691B
:103340002344D36118B111B1224602F0F9F80021EB
:10335000834B4822834888468BF80010197007F089
:1033600045FE814801F0D8FB07F08CFB7A4B3A7898
:103370001B789A4260D03A783B783AF822600AEBA0
:1033800082020133957803F01F033B7007F0A0FB26
:10339000B04500F29180A6EB0804A4B2002C40F0E6
:1033A0009E80B9F85C10C6F30A08D9F8580011B12C
:1033B00008B102F0C9F89BF80030002B74D1BDF8B9
:1033C0001620002A56D1012D54D1654A1278002AC0
:1033D00040F08D80072C00F0EC80F4B1634A0021AE
:1033E00015464B1C01328EB22878A52806D19C4286
:1033F00040F2A48011785A2900F0C48098B219468E
:10340000A042EDD321460DF113030DF116025748EA
:10341000FFF794FB05F0C4F80190554B1B8B002B74
:10342000A2D0BDF816209A429ED30DF113010DF1E2
:103430001600FFF719FB97E707F04AFB9BF80030EF
:10344000ABB9BDF8163013B99DF813307BB1484CB9
:10345000636963B105F0A4F8019B6269C31A9342E2
:1034600005D30DF113010DF11600FFF7FDFAFEF77C
:103470007BFF34E7002CD0D0394B1B78002BADD02C
:10348000002337490B70394B1B785A2B00F0BD8055
:10349000A5230DF11602012105A88DF814300DF1B8
:1034A0001303FFF74BFB99E7002CB6D022462F49B8
:1034B0002D4801F039FBADE7C8F50064224B2B48DD
:1034C000A4B203EB0801224607F01AFE274B32464E
:1034D0001D491819344407F013FEA4B261E71A4BD2
:1034E0002246224803EB080107F00AFE59E7002CA8
:1034F00093D01B4A13701D4B1B785A2BC8D19DF8D3
:1035000013302BB10DF113010DF11600FFF7ACFADA
:1035100045F6A523022205A91348ADF8143001236E
:103520008BF8003001F000FB012C3FF473AF621EFA
:1035300010490D4892B201F0F7FA6BE7002E4DD119
:103540000123074A137065E700820020285D0120EF
:10355000BC0501209C0501209D05012014050120CA
:103560009858012050580120FC5A012010060120D3
:10357000605D012011060120805D01209958012025
:103580001C0501209EBBBDF8163013B99DF8133001
:103590002BB10DF113010DF11600FFF765FAA21B17
:1035A000012329461E4892B28BF8003001F0BCFA84
:1035B00030E71C4B1C4A1B6893427FF40FAF1B4B38
:1035C0001A8840F674539A427FF408AF184B1B7860
:1035D0000A2B7FF403AFFFF7F7FD1BE731460DF130
:1035E00013030DF116020F48FFF7A8FAA8E70DF133
:1035F00013030DF1160231460A48FFF79FFAC2E79E
:10360000029AD3690133D361AEE6002A7FF47AAF20
:1036100075E70122029301F093FF029B56E600BF7B
:10362000FC5A0120100601203A737461140601202F
:1036300016060120704700BF2DE9F04FCDB0DFF82E
:10364000D492A44C002709AE0DF1280AA24DDFF850
:10365000C8824FF0FF3300220BA9D9F8000005F013
:10366000F1F90028F5D1A06BA18F18B111B1012299
:1036700001F066FF206DB4F8541010B109B101F0EB
:1036800063FF052005F042F8944B954A0BA900937F
:103690004FF48053029628463760CAF800700193B1
:1036A000904B1268FDF7D4FB002800F0BD80316814
:1036B0008A48FFF7BFFF8C4BA28A029301924FF416
:1036C00000522B7F0392CDF810A000932A78316826
:1036D0008248FDF74DFC002800F0A6802368D3F84F
:1036E00020B0BBF1000F00F09F80DAF800304FF6F9
:1036F000FE72013B934200F297807C4B2A7FCBF80D
:1037000040307B4BA18ACBF83C307A4B2069CBF818
:103710004C3001F015FF23686FF0010122691B682E
:10372000584618325F621961DAF800306E4901F0CC
:1037300059FC002878D123681A68D36843F4807351
:10374000D36095F81AB0BBF1010F4BD16A4B1978D1
:103750000791002946D1694A4FF48041684882F8B0
:1037600000B0684A82F800B05A4601F0E9FE5A46B5
:103770004FF40041644801F0E3FE5A464FF4006103
:10378000624801F0DDFE5A464FF400715F4801F0D7
:10379000D7FE079A4FF480615B4801F0D1FE079A8B
:1037A0002021594801F0CCFE079A4FF48071584807
:1037B00001F0C6FE079A4FF40071554801F0C0FEB3
:1037C0005A46A18C206A01F0BBFEA069079AA18B22
:1037D00001F0B6FE484BA06A83F800B0002875D10E
:1037E00023681A6813680021052043F00103136061
:1037F0004FF0FF3204F0C8FF10F0010F834626D0CF
:10380000D8F804300133C8F80430AB7E012B30D037
:10381000A06BA18F00283FF41CAF00293FF419AF23
:10382000002201F08DFE14E7AB7E012B38D0D8F8D2
:103830001430206C0133B4F84410C8F81430002858
:10384000E6D00029E4D0012201F07AFEE0E7D8F8C2
:103850001430206C0133B4F84410C8F81430002838
:10386000D3D00029D1D0012201F06AFEAB7E012B1A
:10387000CED19DF82C309B0702D41BF0040FC7D08B
:103880001D4B1B78002BC3D0FEF796FCE06AD0B925
:10389000194B1C4A1F7001231370184B1F70B7E798
:1038A000154B1B78002BC2D0FEF786FCE06A38B9B6
:1038B000114B144A1F7001231370104B1F70B6E791
:1038C00005F004F8F4E705F001F8E1E704F0FEFF85
:1038D00086E700BF805D0120605D0120501E012051
:1038E000B8570120101E01200000002059240008B4
:1038F000BD270008FD2300089E050120F9040120D2
:1039000000180240F8040120001402400010024098
:1039100000040240F8050120285D0120000000009D
:10392000E0B1F0B50D4685B0A9B10368044693B186
:10393000836883B1436873B1036963B1838A53B108
:103940000B89013B9BB2FF2B05D80B7B032B02D9C4
:103950000B7C042B04D9002005B0F0BD002070477B
:10396000382200217048002607F040FB4822002141
:103970006E4807F03BFB6E4A6E4B167032466E493E
:103980006E481E7001F0BAF832466D496D4800F07D
:1039900047FD214660226C4807F0B2FB6B4EAC46F7
:1039A0003446BCE80F000FC49CE80F0084E80F0009
:1039B000EB7E002B00F0AF80FDF748FA644D2860E5
:1039C000FEF7FAFB0022634B63491A702B680A70FA
:1039D000002BC0D05C4C206BA18E10B109B101F05E
:1039E000AFFDA06BA18F18B111B1002201F0A8FDAD
:1039F000206CB4F8441018B111B1002201F0A0FD00
:103A0000327FA18A206901F09BFD02F0EFF8534B51
:103A10009B6813F4604F736818BF40005B009AD036
:103A2000B0FBF3F203FB1203002B94D1511EB1F54E
:103A3000803F90D227684A4C3B68D3F820E00EEADA
:103A4000040454B9D3F820E040F244441EEA040FC1
:103A500003D11C6824F001041C6000249C62D9621C
:103A6000F9606FF001015C6219613E4B18603E4BDA
:103A70001A6002F0BBF8394B02463C499B6813F4CC
:103A8000604F736818BF42005B000A603FF463AF89
:103A9000B2FBF3F103FB1124002C7FF45CAF34483C
:103AA0002B68CDE9014401603248334904700C8031
:103AB00032481D499FED1A7B0091244980ED007B1F
:103AC0002F4804702F4804602F4804602F4804607A
:103AD0002F4804602F4804602F4804702F4804606A
:103AE0002F4804702F4804602F4804702F48FDF7BA
:103AF000C7FF00283FF42FAF2D4B2E4C03F5805607
:103B0000B3F890542C49B6F804362C4A25800B8023
:103B10000123137020E7FDF795F94FE7AFF300801D
:103B20000000000000000000285D01205058012026
:103B30009958012098580120D1250008FC5A0120ED
:103B4000812C0008E4580120805D0120605D012087
:103B5000B85701209E050120F904012000380240D9
:103B6000111111000C05012008050120205D012024
:103B70001C5D0120E2570120E0570120D8570120A9
:103B8000D0570120CC570120C8570120C45701202D
:103B9000C0570120BC570120A05801209C5801208B
:103BA000A8580120A45801209A5801205020012033
:103BB000504001201205012010050120245D012044
:103BC000654B1B782DE9F043B7B023B9002420469C
:103BD00037B0BDE8F08300224FF4827108205F4CBB
:103BE00004F094FE5E4D034600224FF482712020C3
:103BF0005C4E236004F08AFE5B4F00224FF4047198
:103C00002860022004F082FE00220C21306008208F
:103C100004F07CFE0022386040F20221082004F00B
:103C200075FE524A23681060002BCFD02C68002804
:103C300018BF002C0CBF01240024C7D03368002B10
:103C4000C4D03B68002BC1D02025214601A84FF4E9
:103C500040672A46182607F0C9F9454B2A462146EF
:103C60000AA80093DFF84481DFF84491CDE9057696
:103C700007F0BCF93F4B4FF48052214609932823AB
:103C800013A8CDE90E232A4607F0B0F93A4B2A468D
:103C900021461CA81293CDE9177507F0A7F9374BF9
:103CA0002A46214625A820971B93219607F09EF9C6
:103CB00033494FF400632A462EA8249121462A96C0
:103CC000299307F093F92F484FF48061082309AA3C
:103CD0002D90329121462C48339304F07BFC2B4DE0
:103CE00012AA2146C8F80000294804F073FC294EA6
:103CF0001BAA2146C9F80000274804F06BFC274F97
:103D000024AA21462860264804F064FC2DAA2146F6
:103D10003060244804F05EFC6A4638602146224840
:103D200004F058FC2B68002B3FF451AF3368002B94
:103D30003FF44DAF3B68002B18BF00283FF447AF5E
:103D4000D8F80030002B3FF442AFD9F80040003CD7
:103D500018BF01243BE700BF245D0120F8050120C6
:103D6000F4050120EC050120E8050120F005012003
:103D700018BB000828BB000838BB000848BB000877
:103D800050BB00085CBB0008712400080406012039
:103D9000393600080006012081320008FC050120A8
:103DA0006530000821230008912E00080C06012030
:103DB00008060120034B186810B1012104F05ABC19
:103DC000704700BF0C06012038B51F4B5B6883426B
:103DD00000D038BD1D4D2B68002BFAD00C4604F0E6
:103DE0009FFB01282CD000280CBF4FF0030C4FF094
:103DF000010C174A174913780978013303F01F03A0
:103E0000994211D0C4F30A012868134C157824F89C
:103E100025101178137004EB8104012184F802C08D
:103E2000BDE8384004F026BC0C490D4B0A6801324D
:103E30000A60DA690132DA615A6B01325A6338BDBD
:103E40004FF0020CD5E700BF805D01200406012081
:103E50009D0501209C0501201C050120C4050120B1
:103E6000285D0120074B5B68834200D07047064BFA
:103E700018680028FAD0054B002202211A7004F0BD
:103E8000F9BB00BF805D0120040601201805012058
:103E9000094A0A491368496801338142136000D016
:103EA0007047074B18680028FAD0064A0421D369E6
:103EB0000133D36104F0DEBBC0050120805D012029
:103EC00004060120285D012000231F4A2DE9F0414E
:103ED0009C4604460D4622F813C00133202BFAD12C
:103EE00000231A499C4621F813C001331F2BFAD135
:103EF0002388A64600264FF6FF774FF0010C13806B
:103F0000BEF800300CF1FF383EF8020FC31A22F859
:103F10001C000CF1010C9BB29F4221F8183028BF05
:103F20001F469E4238BF1E46BCF1200FE8D1084B09
:103F3000B4F8FE2F1D60074B07491F60074B0E604A
:103F40001A60BDE8F08100BF205E0120E05D012025
:103F50006C5E0120685E0120645E0120605E0120CD
:103F6000774B1B682DE9F04F85B08BB1754A8346BE
:103F7000894612680C2A08D8DFE802F01007070704
:103F8000BE070707C0070707C2006F4B00221A6071
:103F900000231846019305B0BDE8F08F5C6A002C41
:103FA000F3D06A486A4D0268BFF35F8F23685B688D
:103FB000BFF35F8F01688A42F5D1B3F5805F28BFF8
:103FC0004FF48053D6071946C3F580532B6000F198
:103FD000A380B3F5006FE6D85E4F03EBC2223B68C7
:103FE000D11AB1F5805F019140F29D805A49A2F546
:103FF00080530A683B6001320A604FF4805201929C
:10400000C3F30B0601980021544AC6F580540D46AF
:10401000844228BF04465248202CA24600EB4600AA
:1040200028BF4FF0200A22F8115001312029FAD17F
:1040300000254C49AC4621F815C001351F2DFAD199
:10404000474D012C35F816E0A2F800E05AD0804622
:1040500000254FF6FF764FF0010CCDE902047046C3
:1040600038F802EF0CF1FF34AEEB000022F81CE050
:104070000CF1010C80B2864221F8140028BF0646DC
:10408000854238BF0546E245E9D8374A022111602A
:10409000364ADDE902041660354A15606FF00042C9
:1040A000019D5E46224430F81210324A11600FE042
:1040B000B0473B682D1B23443B6011D0C3F30B007A
:1040C000274AC0F5805402EB4000AC4228BF2C4682
:1040D00021464A46002EEBD123442D1B3B60EDD1F7
:1040E000254A0020019C1368174923441360086087
:1040F000204605B0BDE8F08F9C6A50E7DC6A4EE7C9
:104100001C6B4CE7184A02211160184AC2F800C023
:10411000174AC2F800C0C1E7B3F5006FFFF443AF20
:10412000C1F5006358E700293FF42FAFB1F5006FE8
:10413000BFF466AF11490A6801320A6060E700BF48
:10414000A05E01209C5E0120745E0120985E01202B
:10415000705E0120945E0120785E0120205E0120C7
:10416000008A0020E05D01206C5E0120685E012075
:10417000645E0120605E0120805E01207C5E012083
:1041800000285DD02F4B002270B519602E4B2F4CAC
:104190001A602F4B2F4D1A602F4B304E1A60304B48
:1041A00030601A6013462A6022602E4C22602E4C2A
:1041B00022602E4C22602E4C22602E4C22602E4C0F
:1041C00022602E4C22602E4C22602E4C22602E4CFF
:1041D00024F813200133202BFAD100232B4C1A464C
:1041E00024F8132001331F2BFAD10C2908D8DFE85B
:1041F00001F01C0707071E070707200707070E0027
:104200002B680022013332602B60002070BD036BED
:10421000002BF5D0036800241D4A5C624FF48053E4
:1042200002F022FD38B9012070BD436AF0E7836ACD
:10423000EEE7C36AECE72B68346001332B60E4E7F8
:10424000002070479C5E0120985E0120845E012062
:10425000945E0120885E0120905E0120A05E012016
:104260008C5E0120805E01207C5E0120785E012052
:10427000745E0120705E01206C5E0120685E01208A
:10428000645E0120605E0120205E0120E05D01206F
:10429000008A00200B4B1B68834200D070470A48FD
:1042A00000210A4B0268013210B502601A68084CFE
:1042B000013208481A601B682360FFF705FEFFF70C
:1042C00079FD10BDA05E0120905E0120985E012066
:1042D000845E0120008A00200B4B1B68834200D0C3
:1042E00070470A4801210A4B02680A4410B502606F
:1042F0001A68084C0A4408481A601B682360FFF7D4
:10430000E3FDFFF757FD10BDA05E01208C5E01208C
:10431000985E0120845E0120009A002008B5064BBB
:104320001B68834200D008BD044A13680133136040
:10433000FFF740FD08BD00BFA05E0120885E0120A0
:1043400000286AD02DE9F04F9246C3B08AB1A1F19E
:104350000D02F32A0DD80C39048A05461FFA81F99B
:104360005CB104EB0902013AB2FBF9FBBBF1FF0FB0
:104370004AD9002043B0BDE8F08F4FF00108C34692
:1043800000260193374611E0A6EB0B0304F10C0263
:1043900002A90198B3FA83F392B23C445B09D04777
:1043A0000028E6D05E45A7B233D22C8A4FF0010335
:1043B0002978E41B8DF812608DF8083001368DF8ED
:1043C0000910A4B2A9884C458DF81380ADF80A10E5
:1043D00028BF4C46D5E90123110C120E8DF80C10A4
:1043E0008DF80D202A89ADF80E201A0C1B0E8DF8C1
:1043F00010208DF81130002CC6D0E968224605A89F
:10440000394406F07DFEBFE74A4502D35FFA8BF8D8
:10441000B6E7012043B0BDE8F08F0020704700BF31
:1044200058B170B50E460446154600214FF4067289
:1044300006F0DCFDC4E9846570BD7047002918BF33
:104440000B2A42D9F0B5044687B000283AD00B7841
:10445000012B34D1887A91F80BC091F801E06045C6
:10446000D1F80250D1F8066029D218BB237084F825
:1044700001E084F80CC06073E081C4E90156636810
:10448000AB421CD1A368B34219D1237B634516D13B
:10449000657B854213D10C3AE08997B2C619B6F50F
:1044A000007F0CD85FBB6A1CD2B29A4262730ED0F6
:1044B000012008E023782BB163787345DFD0002317
:1044C0002370E360002007B0F0BD00207047D4E9FE
:1044D0000102617804F1100303928DF80410D4F8FE
:1044E0001022E18902900493ADF814101AB101A9C9
:1044F000D4F81402904700232370E360D8E710300B
:104500003A460C31204406F0FBFDE189657B7A18C0
:10451000237BE281C7E700BF0E4B00220F216FF023
:10452000010010B41C6C83B044F080541C641C6CFB
:1045300004F080540094009C5C6C44F480445C64FF
:104540005B6C03F480430193019B03B05DF8044B63
:1045500000F062BC003802401B4A0023016800B52D
:10456000914289B0CDE90233CDE90433069302D0FC
:1045700009B05DF804FB154B032002A95A6C42F404
:1045800080525A645A6C02F480520092009A1A6B5C
:1045900042F001021A6305221B6B059003F0010330
:1045A0000B4806920193019B9FED057B8DED027BED
:1045B00000F08CFE09B05DF804FB00BFAFF3008093
:1045C000A00000000200000000300140003802405E
:1045D00000000240464A036870B593428AB04FF02B
:1045E00000040546CDE904440694CDE907444FD0C4
:1045F000404A934204D0404A93420DD00AB070BD65
:104600003E4B1A6C42F002021A641B6C03F0020368
:104610000193019B0AB070BD384B04A9384E5A6C07
:1046200042F002025A645A6C02F002020292029AAA
:104630001A6B42F004021A6380221B6B03F004031E
:104640000393022303982F48CDE9042303230893FF
:1046500000F03CFE2C4A4FF060633046C6E9002370
:104660004FF480624FF40063C6E904234FF4005214
:104670004FF48073C6E90244C6E90844C6E906233C
:1046800000F014FC00282FD1AE62B5630AB070BDF3
:104690001A4B1E4E5A6C1E4942F00102F460F4613E
:1046A00074625A6440225B6C31604FF0406103F0E9
:1046B0000103B26071604FF4806100934FF4805346
:1046C0004FF4804200983046B261C6E904134FF4BB
:1046D0004033336200F0EAFB18B92E62B5630AB0CA
:1046E00070BDFCF76BFAF8E7FCF768FACCE700BF9F
:1046F0000000014000040040000401400038024076
:10470000C80101200008024058640240280201202C
:104710008864024000000000134A0023016810B5BD
:10472000914288B0CDE90233CDE90433069301D03C
:1047300008B010BD0D4B022402A90D481A6B42F0BF
:1047400001021A631B6B069403F001039FED047BC7
:104750000193019B8DED027B00F0B8FD08B010BD08
:104760004000000002000000000400400038024049
:104770000000024070B5A8B000210446842207A8BA
:104780000691CDE90211CDE9041106F02FFC3A4B58
:1047900022689A4201D028B070BD4FF4807307A8F8
:1047A000079301F055FA00285CD1344B072002A989
:1047B000334E1A6C42F480221A641A6C02F480227E
:1047C0000092009A1A6B42F008021A634FF440728A
:1047D0001B6B069003F008032A4801930223019DF6
:1047E000CDE9022301220323CDE9042300F06EFD6D
:1047F00025494FF0006200233046C6E900124FF40D
:1048000080614FF48072C6E90233C6E90533316135
:10481000F261C6E9083300F049FB48BB1B4D4FF07D
:1048200000621B4900236A604FF4806229604021C6
:1048300028466667B463EB606B61A960AB612A616F
:104840006B62C5E9073300F031FB70B90022072124
:1048500027202567AC6300F0DFFA272000F018FB63
:1048600028B070BDFCF7AAF99FE7FCF7A7F9EDE7C0
:10487000FCF7A4F9D2E700BF00480040003802402E
:10488000E0000120000C024028600240800001206E
:1048900058600240234B1A6C42F0100270B51A6443
:1048A00088B01B6C054601A903A803F0100302930E
:1048B000029B01F0ABF9069BD3B901F087F90346DF
:1048C000194A1A4CA2FB03231949002220469B0CCB
:1048D000216040F2E731A260013BA261C4E903120A
:1048E000636001F0D7FE064630B1304608B070BDB7
:1048F00001F06CF94300E3E7204601F06DFF064646
:104900000028F2D1362000F0C3FA0F2D01D901267C
:10491000EBE732462946362000F07EFA054B1D6053
:10492000E3E700BF0038024083DE1B43A45E0120A2
:104930000010004008000120FEE700BFFEE700BFB6
:10494000FEE700BFFEE700BFFEE700BF704700BF05
:10495000014800F0E5BB00BFE0000120014800F085
:10496000DFBB00BF80000120014803F0D7B800BFC3
:1049700040010120014802F051BE00BFA45E0120A9
:10498000014800F0CDBB00BFC8010120014800F084
:10499000C7BB00BF280201200D4903460D4A086825
:1049A00010B50D4C121B20B10344934207D80B6085
:1049B00010BD0A4C20460C6003449342F7D906F020
:1049C00073FB0C2203464FF0FF301A6010BD00BF8E
:1049D000F05E01200000052000040000286E022087
:1049E000034AD2F8883043F47003C2F88830704725
:1049F00000ED00E070B5059DBDF81060BDF818C071
:104A0000002D6AD0B6F5007F94BF00240124002C4D
:104A100063D10EB1002B5ED006F11204A4B264453E
:104A20005BD84FF0000E4FF0000C2E7360F3070EB2
:104A3000080E61F30F2E60F3070C080A62F30F2CC7
:104A400060F3174E080C110A60F31F6E100E61F32D
:104A5000174C110C320AC5F803E061F31F6CE872C1
:104A60006A7345F6A522C5F807C02A800122AA70FC
:104A7000002E35D14FF00E0C4FF00C0E681C4FF08D
:104A8000FF311D4A864410F8013F4B405E08DB07AA
:104A900048BF56407108F60748BF51404B08C90748
:104AA00048BF53405908DE0748BF51404B08C9076B
:104AB00048BF53405908DE0748BF51404B08C9075B
:104AC00048BF53405908DB0748BF51408645DAD1FB
:104AD000C94345F80C10204670BD0024204670BD27
:104AE0003246194605F10E0006F00AFB06F10C0EDF
:104AF00006F10E0CC2E700BF2083B8ED58B170B5C7
:104B00000E460446154600214FF4087206F06EFA70
:104B1000C4E9866570BD704728B100230370C0F8F2
:104B20000E3280F816327047002A18BF002900F0B4
:104B300090802DE9F043B0FA80F487B0054664090F
:104B400038B3174603784E1E16F8011F042B00F2E7
:104B50008180DFE803F0584C72350E00002385F8A1
:104B6000163201340423A4B22B70A74211D916F8CF
:104B7000011F95F81622531C2A44DBB2042B85F83A
:104B8000163282F8121275D004230134A4B2A7425F
:104B9000DAD807B0BDE8F0836A78B5F80B30012A9F
:104BA00058D1B3F5007F55D8A5F81032002BD8D0D6
:104BB00001340323A4B22B70A742EAD916F8011FCF
:104BC000B5F80E22531C2A449BB2A5F80E32517040
:104BD000B5F810220C329342C0D00323D5E701343C
:104BE0000123A4B22B70A742D3D916F8011F5A296A
:104BF0000DD0A52939D000232B700134A4B2A742CF
:104C0000C7D916F8011FA529E9D00023BDE7002365
:104C1000A5F80E3285F8163202232B70631C9BB266
:104C20009F42B6D902347378A4B26B700123A742B5
:104C3000A5F80E32ADD916F8021FB5F80E22531C96
:104C40002A449BB20C2BA5F80E325170A4D002233B
:104C50009BE77047364900230A68C5F80E320132D7
:104C600085F816320A602B70C7E70134A4B2A74258
:104C7000BBD88EE7B5F810E205F10C0CD5F812821E
:104C80002846F4444FF0FF312A4A10F8013F4B40C8
:104C90004FEA5309DB0748BF89EA02094FEA590185
:104CA00019F0010F18BF51404B08C90748BF5340C6
:104CB0005908DB0748BF51404B08C90748BF53405C
:104CC0005908DB0748BF51404B08C90748BF53404C
:104CD0005908DB0748BF51406045D6D1C9438845D4
:104CE0000AD0154A13680133136000232B70C5F8EE
:104CF0000E3285F8163280E7AB78104A8DF8043012
:104D00001368D5F803100133ADF814E00291136075
:104D100005F10D030493D5F807300393D5F8183245
:104D2000002BE2D001A9D5F81C029847DDE700BFAF
:104D3000F45E01202083B8EDF85E0120FC5E0120C6
:104D4000DFF834D0FFF74CFE0C480D490D4A002324
:104D500002E0D458C4500433C4188C42F9D30A4A30
:104D60000A4C002301E013600432A242FBD306F098
:104D7000A1F9FBF773FC704700000520000001203B
:104D800060000120E4BB000860000120286E0220C2
:104D9000FEE7000008B5032000F02CF80F20FFF715
:104DA00079FDFFF7B9FB002008BD00BF034A044BA3
:104DB00011681B780B441360704700BF005F01202F
:104DC00004000120014B1868704700BF005F0120FC
:104DD00038B50446FFF7F6FF0546631C02D0044BC6
:104DE0001B781C44FFF7EEFF401BA042FAD338BDEE
:104DF0000400012006494FF6FF0C0002054BCA686B
:104E000000F4E06002EA0C0210430343CB607047F9
:104E100000ED00E00000FA051A4BDB68C3F3022343
:104E200000B5C3F1070E03F1040CBEF1040F28BF57
:104E30004FF0040EBCF1060F1AD9A3F1030C4FF08A
:104E4000FF3303FA0CF322EA03024FF0FF3300288A
:104E500003FA0EF321EA030303FA0CF343EA020315
:104E60004FEA0313DBB206DB074A13545DF804FB79
:104E700000229446E9E700F00F00044A13545DF85D
:104E800004FB00BF00ED00E000E400E014ED00E0F2
:104E9000002807DB00F01F0101234009024A8B4074
:104EA00042F82030704700BF00E100E038B504460A
:104EB000FFF788FF002C74D02368002202210546EA
:104EC00084F8342084F835101A6822F001021A6040
:104ED00005E0FFF777FF431B052B3ED823681A68D0
:104EE000D107F6D4D4E90125E1682A43A0691D68F9
:104EF0000A4321690A4361690A43E16902430A439B
:104F000034492940256A2A430A43616A04292BD07F
:104F10001A605A6922F007021143DAB259612E4829
:104F2000A2F110012D4AA2FB01525F294FF00105A9
:104F30004FF000014FEA1212805C294AE06502EA54
:104F400003024FF03F0388BF043283400846A26546
:104F50009360616584F8355038BD032320221846DC
:104F6000626584F8353038BDD4E90B5129431143CB
:104F7000A26A1960596921F00701114341F0040147
:104F8000002DCAD078B1B0F5005F16D0022A03D93F
:104F9000032AC2D1EA01C0D540220023626584F809
:104FA0003530012038BD012A03D032F00202B4D1DD
:104FB000F0E7B5F1C07FB0D1EEE7032AADD801A08C
:104FC00050F822F0994F0008954F0008994F0008BB
:104FD000B34F00083F8010F080BB0008ABAAAAAA1C
:104FE00000FCFFFF70B490F834C0866DBCF1010F77
:104FF00009D0012480F8344090F83540012C05D0C8
:10500000002380F83430022070BC70470225046809
:1050100080F8355000254565256825F480252560F4
:1050200063608368402B1AD0A160E260C16D3F23AA
:10503000026C8B40B360236843F0160323606369FE
:1050400043F0800363611AB1236843F008032360CF
:105050002368002043F00103236070BC7047A26006
:10506000E160E3E770B50446856DFFF7ABFE94F8A9
:105070003530022B06D0802301206365002384F89D
:10508000343070BD236806461A6822F016021A6092
:105090005A6922F080025A61226C4AB31A6822F0DF
:1050A00008021A601A6822F001021A6005E0FFF790
:1050B00089FE831B052B11D823681B6813F001039D
:1050C000F5D1E16D3F221846002302FA01F10122D9
:1050D000A96084F8352084F8343070BD0323202281
:1050E0001846626584F83530002384F8343070BD8A
:1050F000A26C002AD2D1D5E790F835200346022AC7
:1051000003D0802201205A657047026805210020E3
:1051100083F83510136823F001031360704700BF54
:10512000F0B50022664B83B004461E680192082247
:10513000D0E916733D689A402A4204D00168086895
:10514000400700F1978001229A402A4204D021684A
:105150004969080600F1888004229A402A4203D057
:1051600021680968890779D410229A402A4203D01D
:105170002168086800075ED420229A402A4214D091
:1051800021680868C00610D5BA6094F83520052A51
:1051900033D00B6813F4802F0B687BD0190340F1D8
:1051A0008680E36B0BB120469847636D002B40D09F
:1051B000636DDA071AD522680521424B84F8351051
:1051C000A3FB0636136823F00103B60A136002E05E
:1051D0001368DB0704D5019B0133B3420193F7D970
:1051E0000122002384F8352084F83430E36C03B3C3
:1051F000204603B0BDE8F04018470A6822F01602C6
:105200000A604A6922F080024A61226C002A53D067
:105210000A6822F008020A603F22012102FA03F321
:105220000022BB60236D84F8351084F83420002BF5
:10523000DED103B0F0BDBA600A6812F4802F0A68AC
:1052400022D1D20503D40A6822F008020A60226C37
:10525000002A91D020469047E36D8DE7BA60626DD9
:1052600042F0040262657FE7BA60626D42F00202BA
:10527000626571E7086820F004000860BA60626D3A
:1052800042F0010262655EE71103E0D5A26C002ADC
:10529000E0D171E713F4807383D10A6822F0100221
:1052A0000A60012284F8343084F8352079E7636C91
:1052B000002B7FF478AF78E7A26C002AA8D1ABE787
:1052C00000000120B5814E1B406D70472DE9F04F65
:1052D000002385B04FF0010B0C68DFF844A289462B
:1052E00003E00133102B00F09B800BFA03F202EA7B
:1052F0000408A243F5D1D9F804104FEA430C032562
:1053000001F0030205FA0CF5571EED43012F40F2A0
:105310008A80032A40F0C380076802FA0CF211F475
:10532000403F05EA070542EA05020260D9D0DAF8F3
:10533000442023F0030503F003070F2642F48042C4
:1053400005F18045BF00CAF8442005F59C35DAF820
:10535000442006FA07FC6F4E02F48042B0420392EA
:10536000039AAA6822EA0C0231D006F58066B042A0
:1053700000F0A080684EB04200F0A280DFF8A4C127
:10538000604500F0A380DFF8A0C1604500F0A48074
:10539000DFF898C1604500F0AB80DFF894C160454C
:1053A00000F0AC80DFF88CC1604500F09B80DFF836
:1053B00088C1604500F0A880DFF880C160450CBF5F
:1053C0004FF0090C4FF00A0C0CFA07F73A43AA60A9
:1053D000CE02524A6FEA0805504E03F1010392686B
:1053E00054BF2A4048EA02028F02B260F2684B4E74
:1053F00054BF2A4048EA0202F26072688E03474EA8
:1054000054BF2A4048EA0202C90344497260326824
:1054100054BF2A4048EA0202102B0A607FF465AFAD
:1054200005B0BDE8F08F8768022A07EA050ED9F8B3
:105430000C7007FA0CF747EA0E078760C1F30017F4
:10544000D0F804E007FA03F72EEA080E47EA0E0741
:105450004760D9F80870D0F80CE007FA0CF70EEAAC
:10546000050E47EA0E07C7607FF456AFDF0803F06A
:10547000070E00EB87074FEA8E0E3E6A01970096F3
:105480000F26D9F8107007FA0EF706FA0EFE009EE6
:1054900026EA0E0E019E47EA0E0737623CE7C76810
:1054A00007EA050ED9F8087007FA0CF747EA0E0765
:1054B000C76031E74FF0010C0CFA07F73A4386E773
:1054C0004FF0020C0CFA07F73A4380E74FF0030C59
:1054D0000CFA07F73A437AE74FF0040C0CFA07F797
:1054E0003A4374E74FF0070C0CFA07F73A436EE7BC
:1054F0004FF0050C0CFA07F73A4368E74FF0060C3B
:105500000CFA07F73A4362E74FF0080C0CFA07F77A
:105510003A435CE70000024000080240003C0140C2
:1055200000380240000C024000100240001402400B
:1055300000180240001C02400020024000240240EB
:1055400002B9090481617047436901EA030221EA53
:10555000030141EA02418161704700BF024A1368BA
:1055600043F4807313607047007000401A4B1A6C4C
:1055700042F0805230B51A6483B01B6C174C03F0B4
:1055800080530193019B236843F480332360FFF72A
:1055900019FC054605E0FFF715FC401BB0F57A7FC6
:1055A00017D86368DA03F6D523680C4D43F400334B
:1055B0002360FFF707FC044605E0FFF703FC001B30
:1055C000B0F57A7F05D86B689B03F6D5002003B051
:1055D00030BD032003B030BD0038024000700040F1
:1055E000002800F0E78103682DE9F041DD0782B073
:1055F000044635D59A498A6802F00C02042A00F064
:10560000E0808A6802F00C02082A00F0D680636805
:10561000B3F5803F10D0002B00F0FD80B3F5A02F34
:105620008F4B1A6800F0858122F480321A601A6864
:1056300022F480221A6004E0894A136843F480331C
:105640001360FFF7BFFB864E054605E0FFF7BAFB88
:10565000401B642800F2DB8033689B03F6D5236887
:105660009D0728D57E4A916811F00C0F00F08980C3
:10567000916801F00C0108297FD0E368784D002B78
:1056800000F003812B6843F001032B60FFF79AFBC6
:10569000064605E0FFF796FB801B022800F2B78064
:1056A0002B689F07F6D52B68226923F0F80343EA9D
:1056B000C2032B6023681A0728D45E073DD5684BC8
:1056C0001A6CD50077D41A6C012542F080521A6406
:1056D0001B6C03F080530193019B624E3368D80525
:1056E00040F18580A368012B00F0E180002B00F0E1
:1056F000A880052B5A4B1A6F00F0238122F001027B
:105700001A671A6F22F004021A67D5E06369544DD4
:10571000002B3FD06B6F43F001036B67FFF752FB29
:10572000064604E0FFF74EFB801B02286FD86B6F24
:105730009B07F7D523685E07C1D4A369CBB1484D59
:10574000AA6802F00C02082A00F0C980022B2B681C
:1057500023F080732B6000F0FC80FFF733FB0446DE
:1057600004E0FFF72FFB001B022850D82B689B0199
:10577000F7D4002002B0BDE8F081526851023FF535
:105780007CAF374A1268920725D5E268012A22D0F9
:105790000120EFE76B6F23F001036B67FFF712FB4C
:1057A000064604E0FFF70EFB801B02282FD86B6F24
:1057B0009F07F7D4BEE700258FE74A6851027FF5BF
:1057C00026AF274A126892037FF54AAF6268002A23
:1057D0007FF446AFDCE7224920690A6822F0F8022C
:1057E00042EAC0020A601A077FF567AF8EE73368A6
:1057F00043F480733360FFF7E5FA07463368D90551
:105800003FF570AFFFF7DEFAC01B6428F6D903201E
:1058100002B0BDE8F081124D2B6823F480332B6079
:105820002B6823F480232B60FFF7CCFA064604E0B4
:10583000FFF7C8FA801B6428E9D82B689F03F7D4C8
:105840000DE7074E41F28838336F23F001033367C9
:10585000336F23F004033367FFF7B4FA074608E019
:105860000038024000700040FFF7ACFAC01B404512
:10587000CDD8336F9B07F7D4002D3FF45EAF4E4A6F
:10588000136C23F08053136457E72B6823F0010354
:105890002B60FFF797FA064604E0FFF793FA801BA8
:1058A0000228B4D82B689907F7D4236803E7424A43
:1058B000136F43F001031367FFF784FA3E4F41F281
:1058C0008838064604E0FFF77DFA801B40459ED8E5
:1058D0003B6F9A07F7D5002D3FF42FAFCFE7012B91
:1058E0006A683FF455AF02F48003E1698B427FF4AC
:1058F0004FAF02F03F03216A8B427FF449AF47F676
:10590000C073616A1340B3EB811F7FF441AFA36A98
:1059100002F440315B08013BB1EB034F7FF438AF39
:10592000E36A02F07062B2EB036F14BF0120002043
:1059300020E742F480221A601A6842F480321A602A
:105940007FE642F004021A671A6F42F001021A67FA
:10595000B2E7FFF737FA064605E0FFF733FA801B98
:1059600002283FF654AF2B689901F6D4A26A606A08
:105970005208114ED4E90731013A0B43E16A43EA78
:10598000024343EA801343EA016343F000536B6030
:105990002B6843F080732B60FFF714FA044605E090
:1059A000FFF710FA001B02283FF631AF33689A0167
:1059B000F6D5DEE60120704700380240002800F0EE
:1059C000B380614A136803F00F038B422DE9F04165
:1059D00004460D460CD2136823F00F030B431360EB
:1059E000136803F00F038B4202D00120BDE8F08161
:1059F0002368980714D5590704D554498A6842F496
:105A0000E0528A601A0704D550498A6842F460421D
:105A10008A604E49A0688A6822F0F00202438A60D8
:105A2000DF0720D56268494B012A1B687ED0022A15
:105A300077D09907D9D5454E41F28838B36823F01D
:105A400003031343B360FFF7BDF9074604E0FFF714
:105A5000B9F9C01B40456CD8B368626803F00C0309
:105A6000B3EB820FF3D1384A136803F00F03AB4254
:105A700009D9136823F00F032B431360136803F055
:105A80000F03AB42B1D123685A0706D52F49E0680E
:105A90008A6822F4E05202438A601B0731D42B4902
:105AA0008B6803F00C03042B39D0082B18D14A68FB
:105AB0004B6802F03F02496813F480033BD024484E
:105AC000C1F388110023A1FB0001FAF7F1FB1F4B82
:105AD0005B68C3F3014301335B00B0FBF3F300E009
