:020000040800F2
:1000000000000520AD3E0008F13D0008F53D000868
:10001000F93D0008FD3D0008013E00080000000019
:1000200000000000000000000000000091A4000893
:10003000053E00080000000031A5000895A5000855
:10004000FD3E0008FD3E0008FD3E0008FD3E0008A4
:10005000FD3E0008FD3E0008FD3E0008FD3E000894
:10006000FD3E0008FD3E0008FD3E0008FD3E000884
:10007000093E0008FD3E0008153E0008FD3E000850
:10008000FD3E0008FD3E0008FD3E0008FD3E000864
:10009000FD3E0008FD3E0008FD3E0008FD3E000854
:1000A000FD3E0008FD3E0008FD3E0008FD3E000844
:1000B000FD3E0008FD3E0008FD3E0008FD3E000834
:1000C000FD3E0008FD3E0008FD3E0008FD3E000824
:1000D000FD3E0008FD3E0008FD3E0008213E0008F0
:1000E000FD3E0008FD3E0008FD3E0008FD3E000804
:1000F000FD3E0008FD3E0008FD3E0008FD3E0008F4
:10010000FD3E0008FD3E0008FD3E0008FD3E0008E3
:10011000FD3E0008FD3E00082D3E0008FD3E0008A3
:10012000393E0008FD3E0008FD3E0008FD3E000887
:10013000FD3E0008FD3E0008FD3E0008FD3E0008B3
:10014000FD3E0008FD3E0008FD3E0008FD3E0008A3
:10015000453E0008FD3E0008FD3E0008FD3E00084B
:10016000FD3E0008FD3E0008FD3E0008FD3E000883
:10017000FD3E0008FD3E0008FD3E000800000000B6
:10018000FD3E0008FD3E0008FD3E0008FD3E000863
:10019000FD3E0008FD3E0008FD3E0008FD3E000853
:1001A000FD3E0008FD3E0008FD3E0008FD3E000843
:1001B000FD3E0008FD3E0008FD3E0008FD3E000833
:0801C000FD3E0008FD3E0008B1
:1001D00010B5054C237833B9044B13B10448AFF381
:1001E00000800123237010BD60000120000000008A
:1001F000A8B3000808B5034B1BB103490348AFF38C
:10020000008008BD0000000064000120A8B30008C1
:1002100001F0FF01102A2BDB10F0070F08D010F8B7
:10022000013B013A8B422DD010F0070F42B3F6D1BB
:10023000F0B441EA012141EA014122F007047FF0D4
:1002400000070023F0E80256083C85EA010586EA2B
:10025000010685FA47F5A3FA87F586FA47F6A5FA67
:1002600087F68EB9EED1F0BC01F0FF0102F0070273
:1002700032B110F8013B013A83EA010313B1F8D11E
:100280000020704701387047002D06BF35460338FF
:10029000073815F0010F07D1013015F4807F02BF38
:1002A000013015F4C03F0130F0BC0138704700BF89
:1002B00053B94AB9002908BF00281CBF4FF0FF31CD
:1002C0004FF0FF3000F06AB9ADF1080C6DE904CED3
:1002D00000F006F8DDF804E0DDE9022304B0704721
:1002E0002DE9F047089D0C46002B4ED194468C45D5
:1002F0008646B2FA82F262D94AB1C2F12003914035
:1003000020FA03F30CFA02FC194300FA02FE4FEA4A
:100310001C471FFA8CF6B1FBF7F44FEA1E4307FBAC
:10032000141143EA014304FB06F199420AD91CEB7C
:10033000030304F1FF3080F01281994240F20F81F3
:10034000023C6344591A1FFA8EF3B1FBF7F007FB26
:10035000101143EA014300FB06F69E420AD91CEB4A
:10036000030300F1FF3180F0FC809E4240F2F980EF
:10037000634402389B1B40EA044000211DB1D34076
:100380000022C5E90032BDE8F0878B4205D90DB1E6
:10039000C5E9000100210846F5E7B3FA83F1002919
:1003A00046D1A34202D39042C0F0F080861A64EB9B
:1003B00003030120002DE6D0C5E90063E3E7002A2E
:1003C00040F09080A1EB0C044FEA1C481FFA8CF718
:1003D0000121B4FBF8F64FEA1E4308FB164443EA3A
:1003E000044307FB06F0984208D91CEB030306F10F
:1003F000FF3402D2984200F2CD8026461C1A1FFA22
:100400008EF3B4FBF8F008FB104443EA044300FB0E
:1004100007F79F4208D91CEB030300F1FF3402D217
:100420009F4200F2B0802046DB1B40EA0640A5E771
:10043000C1F120068B4022FA06F71F4320FA06FC82
:1004400004FA01F343EA0C03F44000FA01F8380C13
:100450004FEA1349B4FBF0FE1FFA87FC00FB1E4471
:1004600049EA04440EFB0CF9A14502FA01F20AD94B
:100470003C190EF1FF3A80F08480A14540F2818062
:10048000AEF1020E3C44A4EB09041FFA83F9B4FB5D
:10049000F0F300FB134449EA044403FB0CFCA445BD
:1004A00007D93C1903F1FF3067D2A44565D9023B57
:1004B0003C4443EA0E40A0FB0293A4EB0C049C4294
:1004C000CE469C4651D34ED055B1B8EB0E0364EBEB
:1004D0000C0404FA06F6CB401E43CC40C5E9006488
:1004E000002150E7C2F1200320FA03F10CFA02FCCC
:1004F00024FA03F394400C434FEA1C4800FA02FE2E
:100500001FFA8CF7B3FBF8F008FB1031230C43EA19
:10051000014300FB07F1994208D91CEB030300F1EA
:10052000FF362CD299422AD9023863445B1AA4B20E
:10053000B3FBF8F108FB113344EA034401FB07F372
:10054000A34208D91CEB040401F1FF3613D2A342E5
:1005500011D902396444E41A41EA004139E70446FA
:10056000F0E6084606E7C845AED2B9EB020E63EBEB
:10057000070C0138A8E73146EDE7034699E7304616
:10058000D4E7D6467FE7634402384DE70646234664
:1005900008460FE7023E634430E700BF704700BFE4
:1005A00008B5012007F0A8FEFBE700BF30B595B005
:1005B00030220021022408A80AF020FA0023CDE905
:1005C0000333CDE90533079304F08EF9214A08A8D7
:1005D000214B116C41F080511164126C02F0805279
:1005E0000192019A1A6842F440421A6001221B6883
:1005F00003F4404302934FF4A0230299CDE908236A
:1006000004234FF480021093D823CDE90E421193B6
:1006100002220323CDE9122304F0A8F908B172B62F
:10062000FEE704F069F9034608B172B6FEE70F224F
:100630004FF4A05503A80721CDE903244FF48052BD
:10064000CDE90535079204F07FFB08B172B6FEE7ED
:1006500015B030BD00380240007000402DE9F04375
:10066000A5B0BFF34F8FBFF36F8FBD480022C0F816
:100670005022BFF34F8FBFF36F8F436943F40033B2
:100680004361BFF34F8FBFF36F8FC0F88420BFF378
:100690004F8FD0F8805043F6E07CC5F34E34C5F35D
:1006A000C905640104EA0C012B4641EA8372013B4F
:1006B000C0F860225A1CF8D1203C14F1200FF1D16F
:1006C000BFF34F8F436943F480334361BFF34F8FD0
:1006D000BFF36F8F0024A34D03F012FC4FF40057BB
:1006E000FFF764FF1D9449F2204122469E480126EF
:1006F0004FF400484FF00209CDE91944CDE91B44FD
:100700002B6B43F010032B632B6B03F0100303934D
:10071000039B2B6B43F004032B632B6B03F004034D
:100720000493049B2B6B43F020032B632B6B03F090
:1007300020030593059B2B6B43F080032B632B6BEE
:1007400003F080030693069B2B6B43F001032B639E
:100750002B6B03F001030793079B2B6B43F0020302
:100760002B632B6B03F002030893089B2B6B43F066
:1007700008032B632B6B03F008030993099B2B6B76
:1007800043F040032B632B6B03F040030A930A9B57
:1007900004F09CF8224644F68131744804F096F83F
:1007A00022464FF43E41724804F090F822464FF43E
:1007B0000041704804F08AF8224644F244216E4811
:1007C00004F084F84FF4881319A96C481B94CDE900
:1007D000197303F077FE4FF4A15319A962481993D6
:1007E0001A96CDE91B4403F06DFE44F6813319A936
:1007F0005E4819931C94CDE91A6403F063FE19A9AD
:1008000059481B94CDE9197403F05CFE19A95648A8
:10081000CDF86480CDF87090CDE91A6403F052FEF3
:100820004FF41E4319A9524819931C94CDE91A6438
:1008300003F048FE19A94E481997CDF87090CDE9FC
:100840001A6403F03FFE19A94A48CDF864801C944D
:10085000CDE91A6403F036FE44F2442319A9464850
:1008600019931A96CDE91B4403F02CFE802319A995
:1008700041481B94CDE9193403F024FE602319A9E3
:100880003C481B94CDE9193403F01CFE2B6B072167
:10089000224643F480030C202B632B6B03F480036C
:1008A0000193019B2B6B43F400132B632B6B03F41D
:1008B00000130293029B03F065FB0C2003F09EFBE8
:1008C000224607210E2003F05DFB0E2003F096FB6D
:1008D00022460521382003F055FB382003F08EFB1B
:1008E00022460621442003F04DFB442003F086FB02
:1008F0002348244A4FF4E12304614462C0E9002301
:100900000C23C0E90244C0E90534C0E9074407F0FC
:1009100079FA034608B172B6FEE71B4C6B221B49FD
:100920001290A361CDE91900CDE91B00C4E90010C4
:10093000C4E902022046C4E90433CDE9133305F0CB
:10094000E5FD08B172B6FEE74FF4805619A92046BE
:10095000199606F0C3FA0346D0B172B6FEE700BF9F
:1009600000ED00E0003802400014024000040240A4
:1009700000100240000C0240001802400008024033
:100980004001012000480040C00201200000014059
:10099000204612A91493CDE9123306F0FDFB04465C
:1009A00018BB01460E900B902C2218901190A54D6B
:1009B000CDE91200CDE91400CDE91600CDE90F0014
:1009C000CDE90C0019A80AF019F89F4B28462C61B4
:1009D0002B600F23AC61EB600823C5E901446B6118
:1009E00005F094FD18B172B6FEE772B6FEE70EA9E7
:1009F00028460E9606F072FA08B172B6FEE728464F
:100A000005F07AFE034608B172B6FEE70BA9284648
:100A10000D93CDE90B3306F0BFFB08B172B6FEE7CC
:100A200000236026042212A986481893CDE9126398
:100A3000CDE91433CDE9163306F0BAF808B172B631
:100A4000FEE74FF400531D9019A91E934FF0007359
:100A5000CDE91900CDE91B00CDE91F00CDE9220049
:100A60007848219306F0F2FB044608B172B6FEE71F
:100A700074484FF4806803F087F87448744B4FF45F
:100A800000770725446003604FF4E0638462876168
:100A9000C562C0E90444C0E90844C0E90C44C0E9A7
:100AA000028305F0DDF808B172B6FEE7694C4FF439
:100AB00082736949A060A0622063E562A761C4E90E
:100AC00000134FF47063E3601023E3610823C4E96B
:100AD0000400C4E908002046636305F0C1F808B1CA
:100AE00072B6FEE75D4D5E4B10902B6078231F9031
:100AF0002861A861EB60CDE91200CDE91400CDE9D1
:100B00000E00CDE91900CDE91B00CDE91D00C5E9B6
:100B10000100284605F0FAFC08B172B6FEE74FF472
:100B2000805312A92846129306F0D8F908B172B67C
:100B3000FEE7284605F0E0FD08B172B6FEE70E902C
:100B40000EA91090284606F027FB024608B172B69F
:100B5000FEE73C231B901D9019A9284619961A936D
:100B600006F026F8064608B172B6FEE7284603F0FE
:100B70000BF801224FF480413A4803F0A7FE4FF4EE
:100B800080413948012203F0A1FE32464FF4004172
:100B9000364803F09BFE324635484FF4006103F0BF
:100BA00095FE32463946324803F090FE4146012216
:100BB0002E4803F08BFE012220212C4803F086FEF4
:100BC00001224FF480712B4803F080FE0122394648
:100BD000284803F07BFE3146284605F03BFF6420A1
:100BE00003F0ACF940F20D3332464FF480411D481A
:100BF000ADF8643003F06AFE6423012220460DEB59
:100C0000030105F0BBF84FF480411648012203F0C0
:100C10005DFE1949194802F055FB08B972B6FEE7A6
:100C200007F096F9164A0021164807F0E9F9164B25
:100C3000186002F0E3FC08B972B6FEE707F0A4F909
:100C4000FEE700BF28020120000401406C030120E0
:100C500000340140D0030120003001407402012023
:100C600000040040000C0240001802400014024042
:100C7000001002400004024024B40008C0B3000881
:100C800050B40008A10500087C000120034B026855
:100C90009A4200D0704703F03FB900BF00100040F7
:100CA00072B6FEE710B4034600240846D11D9C60CE
:100CB000C3E90002CA0821465DF8044B09F09EBE54
:100CC0000246D0E90103984240F2918030B4CC0949
:100CD0000FD04FEAD30CDB431468012003F0070365
:100CE00000FA03F314F80C00034304F80C30D2E9C3
:100CF000010301338342936076D24D060CD5DC08A4
:100D0000DB431568012003F0070300FA03F3285DB5
:100D100003432B55D2E9010301338342936063D22D
:100D20008C060CD5DC08DB431568012003F00703B3
:100D300000FA03F3285D03432B55D2E90103013385
:100D40008342936050D2CD060CD5DC08DB43156896
:100D5000012003F0070300FA03F3285D03432B553A
:100D6000D2E901030133834293603DD20C070CD5D5
:100D7000DC08DB431568012003F0070300FA03F3E6
:100D8000285D03432B55D2E901030133834293606D
:100D90002AD24D072DD401338342936024D28C078D
:100DA0000CD5DC08DB431568012003F0070300FACB
:100DB00003F3285D03432B55D2E901030133984225
:100DC000936011D9C9070AD5D8431468DB080121FB
:100DD00000F007008140E05C0143E1549368013377
:100DE000012030BC93607047002030BC7047002069
:100DF0007047DC08DB431568012003F0070300FAA5
:100E000003F3285D03432B55D2E90103C3E700BF79
:100E1000CB08C943C05C01F00701084100F00100A4
:100E2000704700BF00293FD000F1FF3C4FF6FF7034
:100E300000B5614441F2210E1CF8013F80EA032015
:100E4000430002049BB248BF83EA0E035A00180411
:100E500092B248BF82EA0E02530012049BB248BF0E
:100E600083EA0E035A00180492B248BF82EA0E02C7
:100E7000530012049BB248BF83EA0E035A001804C1
:100E800092B248BF82EA0E02530012049BB248BFDE
:100E900083EA0E0358001B0480B248BF80EA0E00AC
:100EA0006145C9D15DF804FB4FF6FF70704700BF84
:100EB00000230380704700BF00B501F0010190F8E6
:100EC00000C04FF0000E41EA4C0190F801C00CF157
:100ED000010CC9B25FFA8CFC0170BCF1080F80F8FC
:100EE00001C082F800E004D1197001231370A0F84A
:100EF00000E001205DF804FBC00070478AB10A449D
:100F000070B51E464C1E551E01E0AC4207D014F8C9
:100F1000011F3046FFF7D4FE0028F6D170BD012036
:100F200070BD0120704700BF0048704780B40008C2
:100F30000020704700285DD02DE9F0470D46C6B06F
:100F4000002953D01646002A50D01F46002B4DD002
:100F50004E9B002B4AD0509B509AB3FA83F35B0907
:100F6000002A43D0B1F80290B9F5807F3ED80A78C4
:100F7000044609F106080DF1140A62F307034A78E2
:100F800062F30F234FEA192262F3174369F31F63D9
:100F90000493B9F1000F4BD109F1040104A8FFF744
:100FA00041FF6B88257B020A02350AF803200DF108
:100FB0001502ED00D0544046736998474F9B054495
:100FC0009D4213D81A464E9901A8FFF76BFE237B6A
:100FD00093B1002502E0227B9A420DD901355521BB
:100FE00001A8FFF76DFEEBB20028F4D1002046B057
:100FF000BDE8F08700207047E18901A8090AFFF7E2
:101000005FFE0028F2D0A17B01A8FFF759FE00285F
:10101000ECD03846B3689847F468424604A938468D
:1010200001ABA0470028E1D0039B509A1360DEE794
:101030004A460431504609F06BFDADE702F0A2BB11
:1010400002F0C0BB02F0DEBB02F0FCBB02F042BC0F
:1010500002F056BC2DE9F04F83B09B4606460D4684
:101060000E9C109B002C18BF00289DF83010BDF876
:1010700034700CBF4FF0010A4FF0000A002B14BF70
:1010800050464AF0010068BB6B0001930F9BB3EB25
:10109000450F24D3002D53D04FEA074832B301F057
:1010A00001090434824651463046FFF7B1FE89F00B
:1010B000010110B10846494681468B450CBF4046A8
:1010C0003846CB450AF1010A44F8040C33D05545A3
:1010D00044F8087BE7D1109B0120019A1A6003B005
:1010E000BDE8F08F002003B0BDE8F08F914604F119
:1010F000040A49463046FFF78BFE002813BF012241
:1011000000224FF0010C4FF0000CDC4514BF3846B4
:101110004046934544F8390006D14AF8398009F130
:101120000109A945E5D1D6E74AF8397009F1010965
:101130004D45DED1CFE7554544F8088BB3D1CAE71A
:101140000195C8E72DE9F043B1F82C780C46064626
:1011500001F62A0097FA97F8C3B01FFA88F909F147
:10116000040189B2631893F82A2893F82B5845EAAA
:101170000225FFF757FE854220D006F50055D5F829
:10118000603795F86417002B5AD0DA680132DA60BC
:1011900029B91A6901210A4485F864171A610023E4
:1011A00004F634106371D5F85427C4F83039A4F824
:1011B0002838936843B0BDE8F0431847B4F82A389C
:1011C000ADF80680ADF80430002F3FD106F500558C
:1011D000D5F8603713B19A6801329A60D5F858375C
:1011E0001BB101A9D5F85C079847002406F5805784
:1011F000D5F8543741F69E50A7F86A449B683044AE
:1012000087F86D4487F86F44C7F89A4DA7F8924C59
:101210009847012342F2127087F8E14DA7F8DE3DAE
:10122000D5F85437304487F8E34D9B68C5F80E472E
:10123000A5F80646984787F84A4443B0BDE8F083CE
:101240000029ACD1012385F86437A8E74A4604F6A3
:101250002E0102A809F05CFCB8E700BF41F26A4326
:101260002DE9F04103440C4689780546B4EB030EA2
:101270004FF0000082B018BF4FF0010E9142607035
:1012800000F095802878002855D0E378002B00F0F6
:10129000C78023792271591AB1FA81F14909874827
:1012A00050F82E20013240F82E206379002B49D1CE
:1012B000B4F828383BB9A6E092F81534A4F82838D9
:1012C000002B00F0A080E21892F806C08C45F3D104
:1012D0007B4E36F81E0080B2984201D226F81E30AE
:1012E00092798A4200F09780B4F82838B4F826281A
:1012F0009A421DD1234405F500560120002193F8A0
:101300001524607104F63410D6F85437C4F8301937
:101310009B68A4F82828984796F864372BB1D6F82C
:10132000603713B15A6A01325A62002386F8643773
:1013300002B0BDE8F081002908BF012A0CBF0121DD
:101340000021ACE7002305F5005604F634170DF133
:1013500006028DF806308DF807303846D6F8543737
:10136000D3F810800DF10703C04700285ED09DF828
:101370000630002BDCD0B4F83039B3F5837F72D25D
:101380005A1C9DF80710234492B2042AA4F830296D
:1013900083F82A1800F08180B4F83239002BC7D0C6
:1013A0009A42C5D121462846FFF7CCFEC0E7454A00
:1013B00052F82E30013342F82E306379012B04D0DD
:1013C0000023E37002B0BDE8F08105F50056D6F8C1
:1013D000602796F86407002A54D0916A013191621F
:1013E00020B9116986F8643701311161002304F6D0
:1013F00034106371D6F85427C4F83039A4F828386B
:1014000093689847DCE72E4A32F81E2022469279EC
:101410008A427FF469AF01339BB2A4F8283865E7AC
:1014200001232271E37002B0BDE8F081D6F8603785
:1014300096F864175BB31A6B01321A6329B901225B
:1014400086F864271A6901321A61002338466371ED
:10145000D6F85427C4F83039A4F828389368984748
:1014600002B0BDE8F08196F86437002BEDD101227F
:10147000D6F8603786F86427002BE6D01A69013267
:101480001A61E2E70028B1D186F86437AEE7002997
:10149000DBD1012386F86437D7E72A89B4F82C38E2
:1014A000B2F5807F5BBA28BF4FF480729BB2934243
:1014B000D9D80633A4F832393AE700BFC404012072
:1014C000C0040120CC0401202DE9F04F002B18BFEF
:1014D0000029B3B0009010D01F4670B115464B687C
:1014E000BB4A0C4693420CD0BA4A934209D0BA4A3E
:1014F000934206D0B94A934203D0002033B0BDE8EE
:10150000F08FB5EB830FF8D3237B043B7C2BF4D80F
:10151000237C042BF1D82389013B9BB2FF2BECD811
:101520007B68402BE9D8009E42F2687200214FF0A0
:10153000000A304606F5005909F060FAA44606F59F
:1015400080580096D346BCE80F000FC663684FEA88
:10155000430E9CE80F0086E80F00009E72460023B1
:101560002804290CC6E9085EFEF7A2FE3C9AB06288
:10157000C646C9F860273D9AC9F85477C9F8582774
:101580003E9AC9F85C27317C4D1CEDB26B0088F89F
:101590002D344B46CDE901474FF000085FFA8BF43C
:1015A0008BF00107D146464609EB0600009A06F18A
:1015B000010CCDF814E0C0B25FFA8CFC02EB002005
:1015C00000222B30CDE903988DE0414500F2BC802C
:1015D00089F001094FF000085FFA89FAC2F3401957
:1015E0004AEA4E0ECA455FFA8EFE00F098804145E9
:1015F00000F2C2808AF0010A4FF000085FFA8AF90F
:101600004FEA4E0EC2F3001A5FFA8EFED14549EA48
:101610000E0E5FFA8EFE00F09480414500F2A68027
:1016200089F0010A4FF000085FFA8AFA4FEA4E0E7D
:10163000C2F3C0095FFA8EFED1454AEA0E0E5FFA88
:101640008EFE7BD0414500F28B808AF001094FF07D
:1016500000085FFA89F94FEA4E0EC2F3800A5FFA7A
:101660008EFED14549EA0E0E5FFA8EFE63D04145EB
:1016700070D889F0010A4FF000085FFA8AFA4FEA41
:101680004E0EC2F340095FFA8EFECA454AEA0E0EBC
:101690005FFA8EFE4CD041457ED88AF001094FF0AA
:1016A00000085FFA89F94FEA4E0E02F0010A5FFA6C
:1016B0008EFED14549EA0E0E5FFA8EFE35D04145C9
:1016C00060D889F0010A4FF000085FFA8AFA013207
:1016D0004AEA4E0E0AFB0588B2F5807F00F801EF5A
:1016E00080F8008A5ED0C2F3C7194FEAE21E4C456B
:1016F00018D0B1424CD8B946BE464FF00008C2F3EC
:10170000801ACA457FF461AFC2F340194AEA4E0E0F
:101710004FF00008CA455FFA8EFE7FF468AF4FF0C5
:1017200000086DE74FF00008E9E74FF00008CEE74A
:101730004FF00008B7E74FF00008A0E74FF00008AF
:1017400089E74FF0000871E708F10108CA465FFA1F
:1017500088F843E708F10108CA465FFA88F88EE77F
:1017600008F10108D1465FFA88F874E708F101082A
:10177000CA465FFA88F859E708F10108D1465FFACE
:1017800088F83DE708F10108CA465FFA88F89EE745
:10179000DE46E046A146B2E708F10108D1465FFA0D
:1017A00088F880E7DDE90398DDF814E008F1010826
:1017B0005FFA88F6B142BFF4F7AECA46AA445FFAB0
:1017C0008AFABBF1000F0BD14FF0010BE4E600BF2A
:1017D00040420F0080841E00C0C62D0000093D005D
:1017E000DDE9014799460022E389F04694F80CA010
:1017F00041F2704ED90B01920AF1FF3241F67F0699
:101800001F91C3F38031D2B22091C3F34031032A38
:101810002191C3F3003138BF03222291C3F3C021C9
:1018200052452391C3F3802128BF5246BAF1010FDC
:101830002491C3F3402198BF01222591C3F30021D5
:101840001092013A2691C3F3C011D2B22791C3F38B
:10185000801101322891C3F34011D2002991C3F3C2
:1018600000110D922A91C3F3C0012B91C3F38001A3
:101870002C91C3F3400103F001032D912E93009BA3
:1018800003EB0E0C134601320E929A1C0F92DA1CD7
:1018900011921A1D12925A1D13929A1D1492DA1D5A
:1018A000159203F10802169203F10902179203F14F
:1018B0000A02CDF8C490189203F10B02199203F1B9
:1018C0000C021A9203F10D021B9203F10E021C92FC
:1018D00003F110020F331D921E93CDE92F78BAF158
:1018E000000F00F0AE80109B4FF001215A1C0CF14C
:1018F00008030CEBC20243E9021108339A42FAD101
:101900001A9A0C92199A0292189A0B92179A0A92A2
:10191000169A0992159A0892149A0792139A0692A7
:10192000129A0592119ADDE91D3704920F9ADDE9AA
:101930001B98DDE90D54039240F67410DDE90012A6
:1019400000FB02111F9A03980D440C44084405F84B
:101950000E200CF10105209A04F80E20219A00F8BF
:101960000E20049A22980A4402F80E00059A239841
:101970000A4402F80E00069A24980A4402F80E005F
:10198000079A25980A4402F80E00089A26980A44F5
:1019900002F80E00099A27980A4402F80E000A9AE3
:1019A00028980A4402F80E000B9A29980A4402F873
:1019B0000E00029A2A980A4402F80E000C9A2B98FC
:1019C0000A4402F80E0001EB09022C9802F80E00FE
:1019D00001EB08022D9802F80E00CA192E9802F8A1
:1019E0000E004FF00002ACF82038023B8CF81024B7
:1019F00062469BB21D44002312F8017F13B915E023
:101A0000835D9BB1C81810F80E40BC42F8D1013379
:101A1000AA429BB282F81034EED1019B0CF6741CE2
:101A200073BBCDF804B05AE712F8017F9CF8003080
:101A30009F4266D04FF00003954282F81034F3D1F4
:101A4000EBE70C220A24082506210C920B22042025
:101A50000F270292092210234FF00E084FF00D09B4
:101A6000CDE90A2407220124CDE90825052255469F
:101A7000CDE906210322CDE90420022203925BE78F
:101A8000DDE92F78DDF8C490B8F8902C002A3FF4F7
:101A900034ADB9F804369A427FF42FADB3FA83F42B
:101AA0006409002B3FF429AD009D41F69E50BB68B0
:101AB0002844A8F86A4488F86D4488F86F44C8F848
:101AC0009A4DA8F8924C9847D9F85437012242F21F
:101AD00012709B6888F8E14D284488F8E34DA8F817
:101AE000DE2DC9F80E47A9F806469847B8F8903C8D
:101AF000002B3FF402ADB9F80406003818BF0120EE
:101B0000FCE40123954282F8103486D012F8017F5C
:101B100078E700BF002849D041F25041002200235D
:101B20002DE9F0410646002400F5805500F5A2504D
:101B3000314406F5005785F82C4485F82E4485F885
:101B4000304440E90223A5F8494441F69E50C1E9DA
:101B5000002306F5A351304441E90223C1E90023E3
:101B600085F86844D7F8543787F864479B68A5F828
:101B70006A4485F86D4485F86F44C5F89A4DA5F818
:101B8000924C9847012342F2127085F8E14DA5F876
:101B9000DE3DD7F85437304485F8E34D9B68C7F8ED
:101BA0000E47A7F80646BDE8F0411847704700BF4A
:101BB000002918BF002800F0D4842DE9F04F037CE1
:101BC0009BB00133DBB21793002A00F02F83013A58
:101BD00000F5A25300F5805B8A180A9316924A1EFC
:101BE000129241F26A4282180F9253F8082C53F86D
:101BF000043C0C920D935B4683469A4612999AF8E0
:101C00002E3411F8012F1291002B00F034849AF831
:101C10002C340BEB032313449AF8492493F82C1A21
:101C200093F82C308AF82C140E93002A00F01284BA
:101C30009AF82F340E9ADB0143EA5203DBB282EAB0
:101C4000030108910C9911F108059AF84A140591BD
:101C500002F0010113910D9941F100049A4200F044
:101C600014849AF848340BF5A35603930F9B03F69C
:101C70003413CDE914540993089B80220C99B3FACC
:101C800083F3039C183BDBB213EB010922FA03F246
:101C90000D9B0E9943F100030A42D2B204934FEA1E
:101CA00003430B924FEA094243EA19430692079312
:101CB00014BF012300230393059B002B00F0068132
:101CC0000A9A0320DBF82810D2E90032A1FB0010A9
:101CD000120442EA13421B0413EB0108079942EB7A
:101CE0000005069A4245019571EB050380F21083C9
:101CF0000191CDE910859046019B56E902124145BC
:101D000072EB03033ADA3568DBF82830681C9AF87E
:101D10006B743060706840F100005B1842F10002A3
:101D200046F8083C7060002346F8042C002F66D16A
:101D300005F001029AF86A34BF4208BF9A4204D102
:101D400001238AF86C448AF86B349AF8DF3D002B43
:101D500040F07F8205F001059AF8DE2D9B4208BF16
:101D60009542C9D101238AF8E04D56E902128AF85A
:101D7000DF3D4145019B72EB0303C4DBDDE91085C8
:101D8000069B9845079B75EB030380F2A1809AF8A8
:101D90006F340BF50054012B00F045839AF8E33DB6
:101DA000012B00F04083002541F69E508AF86854CC
:101DB0005844D4F854378AF84A549B68AAF86A54AD
:101DC0008AF86D548AF86F54CAF89A5DAAF8925C42
:101DD0009847D4F85437012242F212709B688AF86F
:101DE000E15D58448AF8E35DAAF8DE2DC4F80E5789
:101DF000A4F8065698479AF84A34059368E09AF88A
:101E00006C148AF86B34A14200F013829BF8003006
:101E1000002B40F0AD81002908BF012C0CBF01212F
:101E20000021064A9AF86F041368013313600028F2
:101E300040F0AC81BAF8923C4BB917E2C4040120DF
:101E400092F87F38AAF8923C002B00F00F820AEB40
:101E5000030292F870048842F2D1BE48028892B21E
:101E60009A4200D203800AEB030292F870248A425D
:101E700000F00582BAF8923CBAF8902C9A427FF4AE
:101E800064AF53440BF50057099893F87F380297D5
:101E9000AAF8923C01238AF86F340023CAF89A3DCD
:101EA000D7F854379B68984797F864372BB1D7F821
:101EB000603713B15A6A01325A620023029A82F8DB
:101EC00064379AF84A34002B7FF43FAF0023059320
:101ED000A14B1B782BB3A14AA14913680868B9EB41
:101EE00003035268049C64EB02023F280FD80C687D
:101EF000B3F5803F184604F101050D6072F1000151
:101F0000984928BF4FF6FF7080B221F81400202BAB
:101F100072F1000205D2944951F82320013241F8B0
:101F200023208E4B0125049AC3F800905A60DBF8F9
:101F30002840894B059A24FA05F71D700023002AD2
:101F400000F0208256F8082C56F8041C0292D21B8E
:101F5000109161F1000006998A1A079961EB00005F
:101F600096460028019004DAD2F1000E60EB4001A1
:101F70000191E3187D4D4FF0AA3843F10003A5FB12
:101F800003C121F0010C0CEB510CA3EB0C03E31A81
:101F900008FB03F164EB040405FB0411A3FB053506
:101FA00073452944019B994180F292810BF50054BD
:101FB000D4F8602712B1D36A0133D3629AF8683437
:101FC0000133DBB2052B8AF8683445D994F86437BD
:101FD00033B9012384F8643712B1136901331361F3
:101FE000069A41F25043002541F69E504BF80320DB
:101FF000BF185B44079A58445A6042F1000300221C
:1020000046F8087C46F8043C0023C6E900238AF819
:102010006854D4F85437AAF86A549B688AF86D5407
:102020008AF86F54CAF89A5DAAF8925C9847D4F877
:10203000543701228AF8E15D9B688AF8E35DAAF8CB
:10204000DE2DC4F80E57A4F8065642F2127058441A
:1020500098479AF84A3405930A9B049AC3F800906B
:102060005A60039B0B9A8AF84834089B9343089361
:102070007FF402AE059BDDE91454002B00F0BF8015
:102080000A9A03202E042404B04644EA1544D2E9F7
:102090000031DBF8282009040194A2FB002041EA6A
:1020A00013411B049F1841EB0005B74275EB040375
:1020B00001DAB84601950123C14602960695CDE99D
:1020C0000447002B00F09B800BF5A354019B58465E
:1020D000039A0F9954E902C6CC4576EB030380F2CC
:1020E000DB812568DBF828306F1C05F001082760CC
:1020F000676847F1000713EB0C0346F1000644F84C
:10210000083C9AF86B34676044F8046C002B70D17B
:102110009AF86A249B4208BF904506D1039B8AF82F
:102120006C344FF001038AF86B349AF8DF3D05F008
:102130000105002B40F0F1819AF8DE2D9B4208BF8B
:102140009542C3D1039B8AF8E03D01238AF8DF3D25
:10215000BCE700BFC0040120340401203804012082
:10216000D4040120D804012040040120ABAAAAAA6B
:102170009AF86D34002B00F087809AF86E348AF854
:102180006E44591AB1FA81F149094AE60BF5005338
:1021900009981A46029300238DF866308DF867304F
:1021A000D2F854370DF166021B691F460DF1670323
:1021B000B84700286CD09DF86630BBB1BAF89A3D9C
:1021C000B3F5837F80F0CE805A1C9DF8671053448E
:1021D00092B2042AAAF89A2D83F8941C00F0128176
:1021E000BAF89C3D13B19A4200F092819AF84A34B1
:1021F00069E6FFF733F89AF84A34002B95D1139B20
:102200000A9A8AF82F3452E9023208330C9342F1C9
:1022100000030D930A9B0C9A43F8082C0D9A43F87F
:10222000042C129B169A93427FF4E8AC1BB0BDE8D5
:10223000F08FC2499AF86F040A68012802F101027E
:102240000A6068D08AF86D349AF8DF3D002B3FF4BD
:1022500081AD41F6DE51224658465944FEF7FEFF55
:102260009AF84A34002B7FF447AD2FE6B44A12881F
:102270000AEB030292F870248A427FF4FBAD01332B
:102280009BB2AAF8923CF7E501238AF86E44D9E79D
:102290000298D0F8603790F86417002B00F0AB80FC
:1022A0001A6B01321A6329B91A690121013280F8C7
:1022B00064171A610023029A09988AF86F34D2F8D9
:1022C0005427CAF89A3DAAF8923C936898478DE73C
:1022D000002802DA073240F1000041F250410023A9
:1022E000D2088AF868340BEB01045BF8013042EA4B
:1022F000407265689B184BF8013045EBE005029B86
:1023000065609A18109B43EBE00046E90220A3E6C3
:10231000CDE91085F0E40BF50052D2F8603792F861
:1023200064170292002B00F08F809A6A01329A6241
:1023300029B9029A82F864071A6901321A610022E7
:10234000029B09988AF86F24D3F85437CAF89A2D5B
:102350009B68AAF8922C984700229AF84A348AF887
:102360006D24B0E5029A92F86437002BA2D10123C4
:1023700082F86437D2F86037002B9BD01A6901329B
:102380001A6197E7069A41F250438AF84A540BF5CE
:1023900000544BF80320BF185B44079A41F69E5047
:1023A0005A6042F1000346F8087C0022059F584419
:1023B00046F8043C0023C6E900238AF86874D4F880
:1023C0005437AAF86A749B688AF86D748AF86F7437
:1023D000CAF89A7DAAF8927C9847D4F85437AAF89C
:1023E000DE5D8AF8E17D8AF8E37D9B68C4F80E77AC
:1023F000A4F8067629E600297FF45CAF012380F873
:10240000643757E7BBF80820BAF8963CB2F5807FEE
:102410005BBA28BF4FF480729BB29A42A2D30633B4
:10242000AAF89C3DE2E694F86437002B7FF4BBAC3D
:10243000012384F86437D4F86037002B3FF4B3AC41
:102440001A6901321A61AEE400297FF478AF82F88C
:10245000640774E701220A990C98DB098AF8492479
:1024600008600D9848608AF830248AF848348AF861
:102470002F34FFF7DFBB1799D30913FB01F30121B9
:10248000DBB28AF82E14FFF7C4BB059B002B4ED09D
:102490009AF848340393F3E5DDE90447029E069D6C
:1024A000B74275EB0403BFF6AAAE9AF86F340BF58A
:1024B0000055012B46D09AF8E33D012B42D0002471
:1024C00041F69E508AF868445844D5F854378AF843
:1024D0004A449B68AAF86A448AF86D448AF86F44B3
:1024E000CAF89A4DAAF8924C9847012342F212700A
:1024F0008AF8E14DAAF8DE3DD5F8543758448AF8F9
:10250000E34D9B68C5F80E47A5F80646984776E662
:102510000F995846FEF716FE68E641F6DE51039A1B
:1025200058465944FEF79AFE9AF84A34C9E5139B77
:10253000CDE90C548AF82F346CE600BFCC0401209E
:10254000C004012095F86437002BB8D1012385F829
:102550006437D5F86037002BB1D01A6901321A619F
:10256000ADE77047134D144C08B54FF4FA7005F001
:10257000C3FEEB6893B96B6983B9AB6973B9EB6957
:1025800063B9606B0028F0D0218F02F0A3F94FF4FB
:10259000FA7005F0B1FEEB68002BECD0606CB4F87B
:1025A00048100028E1D001220029DED002F08EF987
:1025B000DBE700BFDC470120344801202DE9F04172
:1025C0001B4CADF5027D22781AB10DF5027DBDE8F8
:1025D000F08102F0FF0317491A46086801A905F0C7
:1025E00047FF05460028F0D1BDF804700DF1060143
:1025F000114E4FF001083A46104808F089FA3A4661
:102600000E49B06884F8008004F06CFE0028DCD02D
:102610000B4A2570D369706C4344B6F84810D361F7
:102620000028D2D00029D0D0424602F04FF9CCE7A2
:10263000800501200C060120344801200080002084
:10264000DC470120124A134908B553681B68D86853
:1026500020F48070D860186A014021B9186A40F2ED
:10266000444108420DD00C4B5069118B1A7F02F087
:102670002DF90A4B186848B10421BDE8084005F05F
:102680000FBD196821F001011960ECE708BD00BF1A
:1026900034480120111111001448012020060120A6
:1026A000124A134908B553681B68D86820F4807033
:1026B000D860186A014021B9186A40F244410842C2
:1026C0000DD00C4B5069118B1A7F02F0FFF80A4BAA
:1026D000186848B10121BDE8084005F0E1BC19685F
:1026E00021F001011960ECE708BD00BF344801206A
:1026F000111111001448012020060120034B186815
:1027000010B1022105F0CCBC704700BF20060120AB
:10271000F0B5294DADF23C4D284F2B680DA86A68E5
:102720000DAE0092AA680192EA6802922A690392A9
:102730006A690492AA690592EA6906922A6A07926E
:102740006A6A0892AA6A0992EA6A696B0A920B910C
:102750004FF400711A4A08F01DF984B205E0BDF883
:102760003432E41A1E44A4B21CB3B4F5007F2246EE
:1027700031460DF2362028BF4FF40072ADF83422F6
:1027800008F0C6F900238DA938681A4605F01CFE2A
:102790000028E4D0AB690B4A0133506CAB616B6B22
:1027A000B2F8481001336B6318B111B1012202F085
:1027B0008DF80DF23C4DF0BDDC4701200C060120E8
:1027C00098B400083448012070B50C4601461F48F3
:1027D000C2B01F4D002690F81BC095F800E04FEAEC
:1027E0008C0C1C48ADF806404CEACE0C2E7042EA28
:1027F0000C0C4CEA430C03788DF8053001338DF84E
:1028000004C00370C4B90023134801A91A46006824
:1028100005F0DAFD70B1114B012211499C69486C39
:102820001444B1F848102A709C615C6B14445C63DA
:1028300000B131B942B070BD224602A808F068F973
:10284000E1E702F043F842B070BD00BF1448012038
:102850007C0501207F05012014060120DC470120B2
:102860003448012008B50D48002300681A4605F0D9
:10287000ABFD60B10A4B0B499A69486C0132B1F863
:1028800048109A615A6B01325A6300B101B908BD10
:102890000122BDE8084002F019B800BF100601206F
:1028A000DC470120344801202DE9F0412A4F06463B
:1028B00005887B78012B34D07B89B3F5805F28BFF6
:1028C0004FF48053AB4210D2244B00242449DA69E0
:1028D000486C0132B1F84810DA615A6B01325A6320
:1028E000348000B149BBBDE8F081B5B10024DFF808
:1028F0007480291B3B8908EB0400002289B29942AD
:1029000028BF19460C44A4B2631BB3FA83F35B09D6
:10291000FFF75AFF3588A542EBD800233380BDE886
:10292000F0810C4675B90A78002ADCD01A4629468F
:102930002846FFF749FF2570D5E70122BDE8F041A1
:1029400001F0C4BF1A4629460648FFF73DFF0023A1
:1029500033802370C7E700BF14480120DC47012003
:1029600034480120280E01202DE9F04F002385B0C6
:10297000ADF80E308DF80D3005F028FB0346AC485D
:102980004FF40062AB498068019305F0BBFAAA4B93
:10299000009358B1A64A506CB2F848101A46DB6949
:1029A0000133D36110B1002940F082810025DFF8A6
:1029B0009C82DFF8A4B2A14F0A220021072005F073
:1029C000F9FB821C6BD00028C0F25A81430766D500
:1029D000974D0024A86804F0C7FC07F06BFD984BE6
:1029E0001C708BF8004007F08BFD964B4FF4006293
:1029F000ADF80E408DF80D4001248E49A8681C707A
:102A000005F080FA002840F042814FF000094D4661
:102A100007F050FD8A4B9BF800201B789A4241D06A
:102A20009BF800209BF80030013303F01F038BF864
:102A30000030854B33F822A003EB8202967807F032
:102A40005FFD554548D8AAEB0504A4B2002C40F020
:102A5000E780774BCAF30A05B3F86010D86D11B15F
:102A600008B101F037FFB9F1000F47D1012E45D170
:102A7000072C00F0B580002C68D17B78012B00F08A
:102A8000FD80A146ADF80E403B8B002BC0D04B45DE
:102A9000BED80DF10D010DF10E00FFF705FFBDF8D9
:102AA0000E90B5E707F02CFDB9F1000F02D19DF8AB
:102AB0000D3073B17B6963B105F088FA019BC01AD0
:102AC0007B69984205D30DF10D010DF10E00FFF762
:102AD000EBFEFFF773FD6FE7C5F50064554B5B48F0
:102AE000A4B25919224608F013F808EB0400544424
:102AF00052465049A4B208F00BF8AAE734BB7B78E1
:102B0000012BC1D022464846798903198B4202D84D
:102B1000B3F5805F77D9009AD3690133D361536BE2
:102B2000013353630023ADF80E30414B586CB3F8BA
:102B3000481018B111B1012201F0C8FE4FF0000990
:102B4000002CA1D005F042FA01909DE7009A13688D
:102B50002344136022467B78012BD4D14B464FF09F
:102B600000090122CA46CE468DF80D20384AA4EB52
:102B70000E0CB7F8089008EB0E01D018A9EB030271
:102B800092B20EEB02069445B6B20FDB07F0C0FF1F
:102B90000023012249462E48FFF716FEB4424FF0AB
:102BA0000003B646ADF80EA0E0D8C7E71FFA8CF2D6
:102BB00027484E4608EB0E01184413441FFA83F9C8
:102BC00007F0A6FF4E45ADF80E90B9D1002331466F
:102BD00001221F48FFF7F8FD0023ADF80E30ADE7E6
:102BE000D8F800301B4A934238D0009A1368073354
:102BF00013607B78012BB1D07B89062B8BD909F12F
:102C00000703072200201FFA83F9114B0F491844CC
:102C100007F07EFFADF80E90002C3FF435AF91E742
:102C2000044B22460948591907F072FF11E700BF0B
:102C30003448012000820020DC4701201448012094
:102C4000050601207C0501208405012028060120BD
:102C5000280E01203A73746104060120164B1A886D
:102C600040F674539A42C0D1144B1B780A2BBCD146
:102C7000FFF74EFD05F0AAF90190C9E6A146C7E6A7
:102C8000009ABDF80E90D3690133D361C0E6009A73
:102C9000686CD369B5F848102344D36100283FF429
:102CA000B4AE00293FF4B1AE224601F00FFEACE60F
:102CB000012201F00BFE79E62C0601202E060120F0
:102CC00090490020904BD1F8FC202DE9F04F42F0C4
:102CD00080728E4C8E4D83B0C1F8FC204FF4805230
:102CE000C3F8B04F586019688A4C41F00101C4F82C
:102CF0005C071960884B89492868C4F8583703F085
:102D000005FA002800F0EE80854AB5F848105369AE
:102D1000686C01330192536111B1002840F0EA80E0
:102D2000804EDFF82882DFF828B2DFF828A2DFF82B
:102D3000D891002703E0E20739D4A30776D4002115
:102D40004FF0FF32072005F035FA07F0B3FB346887
:102D5000376007F0D5FB6107EDD5D5E9030103F036
:102D600009FE286803F092FA6F48FEF7D3FE4FF48D
:102D700080526A49286803F0C9F940B9D5E90301CE
:102D800003F05CFD0028D6D0286803F07FFA019A92
:102D9000686C5369B5F84810013353610028CAD0F4
:102DA0000029C8D0012201F091FDE207C5D5D8F86D
:102DB00000305E4A0133C8F800305D4BB3F8903CF8
:102DC000ABF80030534BB3F804361380BBF8003037
:102DD0009BB213B113889BB233B9564A136813B927
:102DE000D8F80030136000BEE86CB5F8501010B190
:102DF00009B101F06FFD504AD9F804301278002A69
:102E000059D14E4A1278002A4CD0D9F804204C49A6
:102E1000D31A4C4A13600A68934200D90B60DAF85F
:102E200000300133CAF80030A30788D5D8F8003045
:102E30003E4A0133C8F800303D4BB3F8903CABF844
:102E40000030344BB3F804361380BBF800309BB22B
:102E500013B113889BB233B9364A136813B9D8F843
:102E60000030136000BEE86CB5F8501010B109B125
:102E700001F030FD304BD9F804401B785BBB2F4B81
:102E80001B780BB3D9F804302E4A1B1B2C49136056
:102E90000A68934200D90B60DAF800300133CAF8AF
:102EA000003046E74FF400621C491F480093FEF7CC
:102EB0007FFE009BA9E71C480093FEF72BFE1E4BEC
:102EC00000221A70009B9CE74FF400621E491648CE
:102ED000FEF76EFED6E71448FEF71CFE0023164AE6
:102EE0001370CCE7D5E9030103F0A8FC30B90C4B13
:102EF000019315E7012201F0E9FC11E7286803F0CE
:102F0000C5F901E700ED00E0001000E055CEACC5CA
:102F1000344801206840012065280008008A00200C
:102F2000DC47012008060120682001206C050120F3
:102F30006830012064050120580501205905012051
:102F40007405012078050120009200206805012009
:102F50006E050120700501202DE98048DFF8F09012
:102F6000ADF5437DDFF8ECB0DFF8ECA0DFF8EC80E6
:102F7000354F364E4FF0FF3300226946D9F8000036
:102F800005F076FA0028F5D19DF800209DF8013073
:102F9000120715D49BF8002092B19AF800209A42AB
:102FA0000ED0D8F82020786C0132B7F84810C8F855
:102FB000202028B121B1012201F088FC9DF80130C8
:102FC00001334FF00102BDF802408BF800208AF86F
:102FD000003074B301AD05E0BDF80431E41A1D44BE
:102FE000A4B234B3B4F5007F224629460DF58370B0
:102FF00028BF4FF40072ADF8042107F089FD0023CB
:1030000041A930681A4605F0DFF90028E4D0D8F865
:103010001830786C0133B7F84810C8F81830D8F871
:1030200034300133C8F8343018B111B1012201F045
:103030004DFC786B398F00289CD000299AD0012252
:1030400001F044FC96E700BF344801200C06012043
:10305000100601207D0501207E050120DC470120AE
:10306000704700BF2DE9F04FCDB0DFF84C92884C8F
:10307000002709AE0DF1280ADFF840B2854DDFF8D0
:1030800040824FF0FF3300220BA9D9F8000005F071
:10309000EFF90028F5D1E06BB4F8401018B111B188
:1030A000012201F013FC606DB4F8581010B109B1A1
:1030B00001F010FC052005F03FF8774B02960BA9B4
:1030C00000934FF4805337602846CAF80070DBF84D
:1030D00000200193714BFDF72DFF002867D0316868
:1030E0006D48FFF7BDFF6E4B228B029301924FF4A8
:1030F00000522B7F0392CDF810A000932A783168FC
:103100006548FDF7A7FF002851D063681B6A002BB4
:103110004DD0DAF800204FF6FE71013A8A4246D8C7
:10312000604A218B1A64604A6069DA635F4A0793D8
:10313000DA642A7F01F0CAFB079B6FF00101626924
:103140001846636818321B685F621961DAF800304C
:10315000534901F043F850BB63681968CB6843F4E6
:103160008073CB60AB7E012B7AD00B684FF0FF32BF
:10317000052043F001030B60002105F01BF8C10797
:10318000034627D5D8F804200132C8F80420AA7EC7
:10319000012A33D0E06BB4F8401000283FF471AF3F
:1031A00000293FF46EAF002201F090FB69E7AB7E8F
:1031B000012B3BD0D8F81430606C0133B4F84810C0
:1031C000C8F814300028E5D00029E3D0012201F02E
:1031D0007DFBDFE7D8F81420606C0132B4F84810AA
:1031E000C8F814200028D2D00029D0D0012207939B
:1031F00001F06CFBAA7E079B012ACBD19DF82C2005
:10320000920701D45B07C5D50022218D606A01F0C9
:103210005DFBE0690122218C01F058FB206BC8B9ED
:103220000123234A1370234B1F70B3E7218D002223
:10323000606A079301F04AFB079BE0691A46218CFC
:1032400001F044FB206B40B90123194A1370194B5C
:103250001F70AFE705F050F8E2E705F04DF8F3E72F
:1032600014490246E0690B70114907930B70218CD9
:1032700001F02CFB079B606A1A46218D01F026FBAA
:10328000E06A10B9636819686FE705F035F8F9E787
:103290003448012014480120681E0120281E012006
:1032A00000000020FD260008A12600084526000891
:1032B000580501205905012014060120D04701209E
:1032C000DC470120002800F0D7802DE9F04F0D46A3
:1032D00085B0B9B103680446A3B1436893B183686C
:1032E00083B1436973B1038B63B14B68A34A9342C3
:1032F0000CD0A34A934209D0A24A934206D0A24AD4
:10330000934203D0002005B0BDE8F08F2B89013B2C
:103310009BB2FF2BF6D82B7B043B7C2BF2D82B7C6B
:10332000042BEFD838220021984807F067FB21468C
:103330006422974807F0ECFB964EAC463446BCE856
:103340000F000FC49CE80F0084E80F00EB7E002BF9
:1033500000F09480FDF7ECFD8D4C00228E4F218D06
:103360003860606A01F0B2FA0122218CE06901F054
:10337000ADFA8A4B00221A703B68002BC2D0606BFA
:10338000218F10B109B101F0A1FAE06BB4F840103F
:1033900018B111B1002201F099FA606CB4F848102C
:1033A00018B111B1002201F091FA327F218B6069CE
:1033B00001F08CFA2568002DA4D0284602F0C6FC46
:1033C00000234FF4806228466B60AB62C5E904338A
:1033D000C5E90633C5E908330723EB624FF4E06320
:1033E000C5E9022302F03CFC00288BD1D4F80C8004
:1033F000B8F1000F86D001F0BFFD694B7268054639
:103400009B6813F4604F18BF4500002A3FF47AAF61
:103410000C23DFF8B8910021A2FB03ABD14571EB7F
:103420000B00FFF46FAF52465B462846FCF740FFA7
:1034300001465C48284448452CBFB0FBF9F0012008
:10344000B1F5803F28BF4FF480318142FFF45AAF7D
:10345000DFF878E1CB070AD4B5FBF1F901FB19538A
:103460002BB9D14573EB0B0C01D3F14509D9884237
:1034700001F1FF31EED145E700207047FDF754FD23
:103480006AE7D8F80030484A186A024042B9186A18
:1034900040F24442104203D11A6822F001021A603D
:1034A0004A1E002049089862DA62C8F80C20226996
:1034B000002A40F08D8059630022012140463B4D97
:1034C0005A6203F0F5FCD8F800306FF00102C5F83D
:1034D00000901A6101F050FD314B9B6813F4604F6E
:1034E000736818BF40005B003FF40CAFB0FBF3F60D
:1034F00003FB1603002B7FF405AF06F1FF3CBCF580
:10350000803FBFF4FFAED4F804E0274BDEF8001094
:103510000A6A134043B90A6A40F244431A4203D18B
:103520000B6823F001030B6000242A686FF001058B
:103530003B688C62C1F82CC0CEF80CC04C620D61A7
:103540001249CDE901441A4C0091206019481149F3
:1035500006601948FDF7B8FF00283FF4D3AE174BBB
:10356000174C03F58056B3F8905C1649B6F804364C
:10357000154A25800B8001231370C4E640420F00DA
:1035800080841E00C0C62D0000093D00DC470120DC
:103590003448012014480120D0470120590501205A
:1035A000003802407FF9370311111100D447012080
:1035B000600501205C0501206820012068300120A1
:1035C0006E0501206C050120D847012080F93703E2
:1035D000043A0C2A08D8DFE802F00F0707070D07A6
:1035E00007070B0707070900D96565E7996563E7D2
:1035F000196461E7D9635FE799635DE74F4B1B7817
:103600002DE9F041AEB023B9002420462EB0BDE82C
:10361000F08100224FF482710820494C04F08CFEA6
:10362000484D034600224FF482710820236004F0C5
:1036300083FE0022286040F20221082004F07CFE74
:10364000414A23681060002BDED02C68002818BF88
:10365000002C0CBF01240024D6D02025214602A82E
:103660004FF440672A46182607F0C8F937494FF447
:103670008052282301910BA8214606922A460793DF
:1036800007F0BCF9324B2A46214614A80A93DFF80A
:10369000F080CDE90F7507F0B1F92E4B2A4621468F
:1036A0001DA818971996139307F0A8F92A494FF403
:1036B00000632A4626A81C9121462296219307F0F2
:1036C0009DF926484FF480610823254F01AA2590D3
:1036D0002A91214623482B9304F092FC224D0AAAFA
:1036E00021463860214804F08BFC214E13AA214664
:1036F000C8F800001F4804F083FC1CAA214628607B
:103700001D4804F07DFC25AA306021461B4804F0CA
:1037100077FC2B68002B3FF478AF3368002B18BF81
:1037200000283FF472AF3B68002B3FF46EAFD8F82F
:103730000040003C18BF012467E700BFD8470120C4
:1037400014060120100601200C0601202CB50008EB
:103750003CB500084CB5000854B5000860B5000839
:1037600024060120C12C00081C0601206530000839
:103770001806012069290008592F0008652500084E
:10378000200601200B4B1B68834200D070470A4B78
:1037900018680028FAD0094B1A68D20703D50849DF
:1037A0004A6901324A611A6801210A431A6004F029
:1037B00077BC00BF34480120240601200806012000
:1037C000DC4701200B4B1B68834200D070470A4B3B
:1037D00018680028FAD0094B1A68920703D50849DF
:1037E0004A6901324A611A6802210A431A6004F0E8
:1037F00057BC00BF344801202406012008060120E0
:10380000DC4701200B4B1B68834200D070470A4BFA
:1038100018680028FAD00421084A10B4084C23681C
:103820000B43236053695DF8044B0133536104F08B
:1038300037BC00BF3448012024060120DC470120AA
:103840000806012038B51D4B9B68834200D038BD67
:103850001B4D2B68002BFAD00C4604F077FB012897
:1038600028D000280CBF4FF0030C4FF0010C154A74
:10387000154913780978013303F01F03994211D0D9
:10388000C4F30A012868114C157824F82510117822
:10389000137004EB8104012184F802C0BDE83840B4
:1038A00004F0FEBB0A4BDA690132DA615A6B01326D
:1038B0005A6338BD4FF0020CD9E700BF34480120ED
:1038C0001C060120050601200406012084050120B4
:1038D000DC470120074B9B68834200D07047064BB2
:1038E00018680028FAD0054B002202211A7004F053
:1038F000D7BB00BF344801201C06012080050120F1
:10390000074B9B68834200D07047064B186800281D
:10391000FAD0054A0421D3690133D36104F0C0BB56
:10392000344801201C060120DC4701200E4B0022F8
:103930000F216FF0010010B41C6C83B044F0805470
:103940001C641C6C04F080540094009C5C6C44F477
:1039500080445C645B6C03F480430193019B03B07F
:103960005DF8044B00F00EBB00380240394A036892
:1039700070B593428AB04FF00004CDE90444069438
:10398000CDE9074404D0344A934222D00AB070BD36
:10399000324B0320A02402255A6C04A942F4805221
:1039A0005A645A6C02F480520092009A1A6B42F0E8
:1039B00001021A6305221B6B079003F001032848DC
:1039C00008920193019BCDE9044500F07BFD0AB00C
:1039D00070BD224B054604A9224E5A6C42F4005297
:1039E0005A645A6C02F400520292029A1A6B42F024
:1039F00010021A6344F204021B6B03F010030393DA
:103A0000022303981848CDE9042303220523CDE9B6
:103A1000072300F057FD4FF00063144A30467360EF
:103A20004FF4807332604FF48062B460F460C6E992
:103A300006434FF44033C6E90424C6E9083400F0D5
:103A4000EBFA18B9AE65B5630AB070BDFDF728F999
:103A5000F8E700BF00300140003401400038024068
:103A6000000002400C0301200010024010640240DC
:103A7000114A0368934203D0104A93420AD0704718
:103A800002F58432A0210E48536C23F48053536412
:103A900000F052BE02F5823244F20401536C23F46A
:103AA000005310B504465364064800F045FEA06D6F
:103AB000BDE8104000F04CBB003001400034014034
:103AC0000000024000100240294A0368934230B5CA
:103AD00085B01FD0274A934204D0274A93420DD085
:103AE00005B030BD254B1A6C42F002021A641B6C03
:103AF00003F002030293029B05B030BD1F4B5A6CCA
:103B000042F002025A645B6C03F002030393039BCE
:103B100005B030BD194B0021194D04465A6CE960BF
:103B200042F00102E96169624FF040615A6440224B
:103B30005B6C69604FF4806103F001031148AA6077
:103B40004FF4804201934FF4805328600198284637
:103B5000AA61C5E904134FF440332B6200F05CFA0C
:103B600018B92562AC6305B030BDFDF799F8F8E7E8
:103B70000000014000040040000401400038024001
:103B8000C80101208864024023490023026810B55F
:103B90008A4288B0CDE90233CDE90433069304D0DC
:103BA0001E4B9A4217D008B010BD1D4B022402A92B
:103BB0001C481A6B42F001021A631B6B069403F057
:103BC00001039FED117B0093009B8DED027B00F0C4
:103BD00079FC08B010BD03F59A33032402A91248FA
:103BE0001A6B42F004021A631B6B069403F0040381
:103BF0009FED077B0193019B8DED027B00F062FC42
:103C000008B010BDAFF300804000000002000000CB
:103C10008000000002000000000400400004014099
:103C200000380240000002400008024070B5A8B011
:103C300000210446842207A80691CDE90211CDE9AE
:103C4000041106F0DBFE3A4B22689A4201D028B0FC
:103C500070BD4FF4807307A8079301F0BFF90028E7
:103C60005CD1344B072002A9334E1A6C42F48022F7
:103C70001A641A6C02F480220092009A1A6B42F0C5
:103C800008021A634FF440721B6B069003F008039E
:103C90002A4801930223019DCDE902230122032337
:103CA000CDE9042300F00EFC25494FF0006200230B
:103CB0003046C6E900124FF480614FF48072C6E9C5
:103CC0000233C6E905333161F261C6E9083300F019
:103CD000A3F948BB1B4D4FF000621B4900236A60EB
:103CE0004FF480622960402128466667B463EB6028
:103CF0006B61A960AB612A616B62C5E9073300F0B3
:103D00008BF970B90022072127202567AC6300F0EA
:103D100039F9272000F072F928B070BDFCF7C0FF18
:103D20009FE7FCF7BDFFEDE7FCF7BAFFD2E700BF66
:103D30000048004000380240E0000120000C024032
:103D4000286002408000012058600240234B1A6C1A
:103D500042F0100270B51A6488B01B6C054601A9C8
:103D600003A803F010030293029B01F015F9069BD0
:103D7000D3B901F0F1F80346194A1A4CA2FB032308
:103D80001949002220469B0C216040F2E731A260D5
:103D9000013BA261C4E90312636002F0B7FB06466F
:103DA00030B1304608B070BD01F0D6F84300E3E70B
:103DB000204602F04DFC06460028F2D1362000F0E5
:103DC0001DF90F2D01D90126EBE732462946362091
:103DD00000F0D8F8054B1D60E3E700BF0038024053
:103DE00083DE1B439848012000100040080001209A
:103DF000FEE700BFFEE700BFFEE700BFFEE700BF33
:103E0000FEE700BF704700BF014800F085BA00BF61
:103E1000E0000120014800F07FBA00BF80000120CF
:103E2000014803F091BB00BF40010120014803F0AD
:103E300007B900BF98480120014800F06DBA00BFE3
:103E40000C030120014800F067BA00BFC80101203F
:103E50000D4903460D4A086810B50D4C121B20B1E0
:103E60000344934207D80B6010BD0A4C20460C60F7
:103E700003449342F7D906F01FFE0C2203464FF08D
:103E8000FF301A6010BD00BFE4480120000005208B
:103E90000004000010580220034AD2F8883043F48E
:103EA0007003C2F88830704700ED00E0DFF834D0CE
:103EB000FFF7F2FF0C480D490D4A002302E0D458E9
:103EC000C4500433C4188C42F9D30A4A0A4C002364
:103ED00001E013600432A242FBD306F0F3FDFCF7CD
:103EE000BDFB70470000052000000120600001209C
:103EF000E8B500086000012010580220FEE700002D
:103F000008B5032000F02CF80F20FFF71FFFFFF784
:103F10000DFD002008BD00BF034A044B11681B784B
:103F20000B441360704700BFE848012004000120E3
:103F3000014B1868704700BFE848012038B50446B7
:103F4000FFF7F6FF0546631C02D0044B1B781C44A8
:103F5000FFF7EEFF401BA042FAD338BD040001205A
:103F600006494FF6FF0C0002054BCA6800F4E060FA
:103F700002EA0C0210430343CB60704700ED00E0FF
:103F80000000FA051A4BDB68C3F3022300B5C3F146
:103F9000070E03F1040CBEF1040F28BF4FF0040E0E
:103FA000BCF1060F1AD9A3F1030C4FF0FF3303FA4B
:103FB0000CF322EA03024FF0FF33002803FA0EF35A
:103FC00021EA030303FA0CF343EA02034FEA031363
:103FD000DBB206DB074A13545DF804FB002294466B
:103FE000E9E700F00F00044A13545DF804FB00BF3A
:103FF00000ED00E000E400E014ED00E0002807DB45
:1040000000F01F0101234009024A8B4042F8203092
:10401000704700BF00E100E038B50446FFF788FFB5
:10402000002C74D0236800220221054684F8342035
:1040300084F835101A6822F001021A6005E0FFF7D3
:1040400077FF431B052B3ED823681A68D107F6D4A7
:10405000D4E90125E1682A43A0691D680A43216962
:104060000A4361690A43E16902430A43344929402A
:10407000256A2A430A43616A04292BD01A605A69C7
:1040800022F007021143DAB259612E48A2F1100161
:104090002D4AA2FB01525F294FF001054FF00001AC
:1040A0004FEA1212805C294AE06502EA03024FF0EF
:1040B0003F0388BF043283400846A2659360616570
:1040C00084F8355038BD032320221846626584F8F1
:1040D000353038BDD4E90B5129431143A26A196028
:1040E000596921F00701114341F00401002DCAD0A4
:1040F00078B1B0F5005F16D0022A03D9032AC2D1E5
:10410000EA01C0D540220023626584F835300120E1
:1041100038BD012A03D032F00202B4D1F0E7B5F184
:10412000C07FB0D1EEE7032AADD801A050F822F04D
:104130000541000801410008054100081F41000831
:104140003F8010F084B50008ABAAAAAA00FCFFFFCC
:10415000002839D090F835200346022AD0B235D055
:104160001A6800201A4930B414681A4D24F001046A
:104170001460106050609060D06010612120506128
:10418000D0B21038A1FB00415F284FF03F004FEA4A
:1041900011116C5C104900FA04F0DC6501EA0201BF
:1041A0004FF0000288BF04319965886010465A6557
:1041B00083F8352083F83420C3E90F2230BCC3E9EB
:1041C0001122C3E91322704701207047704700BFD6
:1041D000ABAAAAAA84B5000800FCFFFF70B490F84F
:1041E00034C0866DBCF1010F09D0012480F8344041
:1041F00090F83540012C05D0002380F8343002209F
:1042000070BC70470225046880F83550002545656C
:10421000256825F48025256063608368402B1AD0CB
:10422000A160E260C16D3F23026C8B40B3602368E4
:1042300043F016032360636943F0800363611AB19E
:10424000236843F0080323602368002043F0010340
:10425000236070BC7047A260E160E3E770B504467C
:10426000856DFFF765FE94F83530022B06D080236C
:1042700001206365002384F8343070BD236806464E
:104280001A6822F016021A605A6922F080025A61F6
:10429000226C4AB31A6822F008021A601A6822F0E7
:1042A00001021A6005E0FFF743FE831B052B11D8BE
:1042B00023681B6813F00103F5D1E16D3F22184616
:1042C000002302FA01F10122A96084F8352084F864
:1042D000343070BD032320221846626584F83530DF
:1042E000002384F8343070BDA26C002AD2D1D5E707
:1042F00090F835200346022A03D0802201205A6517
:10430000704702680521002083F83510136823F0F8
:1043100001031360704700BFF0B50022664B83B005
:1043200004461E6801920822D0E916733D689A403F
:104330002A4204D001680868400700F197800122F2
:104340009A402A4204D021684969080600F1888011
:1043500004229A402A4203D021680968890779D447
:1043600010229A402A4203D02168086800075ED4D0
:1043700020229A402A4214D021680868C00610D52D
:10438000BA6094F83520052A33D00B6813F4802FD7
:104390000B687BD0190340F18680E36B0BB120469C
:1043A0009847636D002B40D0636DDA071AD52268F9
:1043B0000521424B84F83510A3FB0636136823F021
:1043C0000103B60A136002E01368DB0704D5019B02
:1043D0000133B3420193F7D90122002384F8352039
:1043E00084F83430E36C03B3204603B0BDE8F040FA
:1043F00018470A6822F016020A604A6922F0800211
:104400004A61226C002A53D00A6822F008020A602E
:104410003F22012102FA03F30022BB60236D84F8DE
:10442000351084F83420002BDED103B0F0BDBA6023
:104430000A6812F4802F0A6822D1D20503D40A68D0
:1044400022F008020A60226C002A91D02046904790
:10445000E36D8DE7BA60626D42F0040262657FE74A
:10446000BA60626D42F00202626571E7086820F08E
:1044700004000860BA60626D42F0010262655EE7A6
:104480001103E0D5A26C002AE0D171E713F4807328
:1044900083D10A6822F010020A60012284F83430C5
:1044A00084F8352079E7636C002B7FF478AF78E7E8
:1044B000A26C002AA8D1ABE700000120B5814E1BF9
:1044C000406D70472DE9F04F002385B04FF0010B90
:1044D0000C68DFF844A2894603E00133102B00F09A
:1044E0009B800BFA03F202EA0408A243F5D1D9F843
:1044F00004104FEA430C032501F0030205FA0CF502
:10450000571EED43012F40F28A80032A40F0C380FA
:10451000076802FA0CF211F4403F05EA070542EA87
:1045200005020260D9D0DAF8442023F0030503F035
:1045300003070F2642F4804205F18045BF00CAF808
:10454000442005F59C35DAF8442006FA07FC6F4E46
:1045500002F48042B0420392039AAA6822EA0C0253
:1045600031D006F58066B04200F0A080684EB042BF
:1045700000F0A280DFF8A4C1604500F0A380DFF85E
:10458000A0C1604500F0A480DFF898C1604500F04C
:10459000AB80DFF894C1604500F0AC80DFF88CC1DF
:1045A000604500F09B80DFF888C1604500F0A8807E
:1045B000DFF880C160450CBF4FF0090C4FF00A0CCA
:1045C0000CFA07F73A43AA60CE02524A6FEA08058E
:1045D000504E03F10103926854BF2A4048EA020298
:1045E0008F02B260F2684B4E54BF2A4048EA020282
:1045F000F26072688E03474E54BF2A4048EA0202B6
:10460000C90344497260326854BF2A4048EA020232
:10461000102B0A607FF465AF05B0BDE8F08F8768A6
:10462000022A07EA050ED9F80C7007FA0CF747EAD8
:104630000E078760C1F30017D0F804E007FA03F70C
:104640002EEA080E47EA0E074760D9F80870D0F83E
:104650000CE007FA0CF70EEA050E47EA0E07C760F2
:104660007FF456AFDF0803F0070E00EB87074FEA31
:104670008E0E3E6A019700960F26D9F8107007FA41
:104680000EF706FA0EFE009E26EA0E0E019E47EA7F
:104690000E0737623CE7C76807EA050ED9F80870CD
:1046A00007FA0CF747EA0E07C76031E74FF0010C35
:1046B0000CFA07F73A4386E74FF0020C0CFA07F7BB
:1046C0003A4380E74FF0030C0CFA07F73A437AE7D6
:1046D0004FF0040C0CFA07F73A4374E74FF0070C5D
:1046E0000CFA07F73A436EE74FF0050C0CFA07F7A0
:1046F0003A4368E74FF0060C0CFA07F73A4362E7D3
:104700004FF0080C0CFA07F73A435CE70000024050
:1047100000080240003C014000380240000C02400A
:10472000001002400014024000180240001C024029
:1047300000200240002402402DE9F04F002383B006
:104740000126DFF870A14FF00F09554F02E0013349
:10475000102B7BD006FA03F232EA010402EA010CC4
:10476000F5D123F0030503F003045544A400D5F864
:1047700008E009FA04F801954A4D08EA0E0EA8422D
:1047800027D005F58065A84263D0474DA84263D085
:10479000464DA84265D0464DA84267D0DFF818B113
:1047A000584568D0DFF814B1584569D0DFF810B12A
:1047B00058456AD0DFF80CB158456BD0DFF808B126
:1047C000584514BF4FF00A0B4FF0090B0BFA04F4D5
:1047D00000E00024A64514D13C68019D24EA0C04A5
:1047E0003C607C6824EA0C047C60FC6824EA0C04CD
:1047F000FC60BC6824EA0C04BC60AC6824EA0804D1
:10480000AC605C0003254FEAD30CA540046800EBC4
:104810008C0C24EA0504046003F00704DCF820E0B3
:104820000133A400102B09FA04F42EEA0404CCF896
:104830002040C46824EA0504C460446824EA0202F3
:104840004260826822EA0502826083D103B0BDE83B
:10485000F08F06FA04F4BDE74FF0020B0BFA04F4F4
:10486000B8E74FF0030B0BFA04F4B3E74FF0040B77
:104870000BFA04F4AEE74FF0050B0BFA04F4A9E7CA
:104880004FF0060B0BFA04F4A4E74FF0070B0BFAFA
:1048900004F49FE74FF0080B0BFA04F49AE700BF0B
:1048A000003C01400000024000080240000C0240B1
:1048B000001002400038014000140240001802407D
:1048C000001C0240002002400024024002B90904FA
:1048D00081617047436901EA030221EA030141EA69
:1048E00002418161704700BF024A136843F480733C
:1048F00013607047007000401A4B1A6C42F08052EF
:1049000030B51A6483B01B6C174C03F080530193CD
:10491000019B236843F480332360FFF709FB0546BE
:1049200005E0FFF705FB401BB0F57A7F17D86368F9
:10493000DA03F6D523680C4D43F400332360FFF708
:10494000F7FA044605E0FFF7F3FA001BB0F57A7FAB
:1049500005D86B689B03F6D5002003B030BD03205B
:1049600003B030BD0038024000700040002800F065
:10497000E78103682DE9F041DD0782B0044635D5B3
:104980009A498A6802F00C02042A00F0E0808A68E2
:1049900002F00C02082A00F0D6806368B3F5803F6D
:1049A00010D0002B00F0FD80B3F5A02F8F4B1A68BC
:1049B00000F0858122F480321A601A6822F4802285
:1049C0001A6004E0894A136843F480331360FFF7E8
:1049D000AFFA864E054605E0FFF7AAFA401B6428A9
:1049E00000F2DB8033689B03F6D523689D0728D54A
:1049F0007E4A916811F00C0F00F08980916801F0F7
:104A00000C0108297FD0E368784D002B00F003816A
:104A10002B6843F001032B60FFF78AFA064605E096
:104A2000FFF786FA801B022800F2B7802B689F07E9
:104A3000F6D52B68226923F0F80343EAC2032B6002
:104A400023681A0728D45E073DD5684B1A6CD50039
:104A500077D41A6C012542F080521A641B6C03F063
:104A600080530193019B624E3368D80540F18580E5
:104A7000A368012B00F0E180002B00F0A880052B3B
:104A80005A4B1A6F00F0238122F001021A671A6F45
:104A900022F004021A67D5E06369544D002B3FD021
:104AA0006B6F43F001036B67FFF742FA064604E0C1
:104AB000FFF73EFA801B02286FD86B6F9B07F7D574
:104AC00023685E07C1D4A369CBB1484DAA6802F040
:104AD0000C02082A00F0C980022B2B6823F0807397
:104AE0002B6000F0FC80FFF723FA044604E0FFF798
:104AF0001FFA001B022850D82B689B01F7D4002016
:104B000002B0BDE8F081526851023FF57CAF374AF0
:104B10001268920725D5E268012A22D00120EFE72A
:104B20006B6F23F001036B67FFF702FA064604E0A0
:104B3000FFF7FEF9801B02282FD86B6F9F07F7D471
:104B4000BEE700258FE74A6851027FF526AF274A66
:104B5000126892037FF54AAF6268002A7FF446AF7D
:104B6000DCE7224920690A6822F0F80242EAC00222
:104B70000A601A077FF567AF8EE7336843F48073E6
:104B80003360FFF7D5F907463368D9053FF570AFB5
:104B9000FFF7CEF9C01B6428F6D9032002B0BDE8A8
:104BA000F081124D2B6823F480332B602B6823F4A3
:104BB00080232B60FFF7BCF9064604E0FFF7B8F945
:104BC000801B6428E9D82B689F03F7D40DE7074EB4
:104BD00041F28838336F23F001033367336F23F0DA
:104BE00004033367FFF7A4F9074608E000380240E2
:104BF00000700040FFF79CF9C01B4045CDD8336FD3
:104C00009B07F7D4002D3FF45EAF4E4A136C23F0A0
:104C10008053136457E72B6823F001032B60FFF7E1
:104C200087F9064604E0FFF783F9801B0228B4D811
:104C30002B689907F7D4236803E7424A136F43F0C0
:104C400001031367FFF774F93E4F41F288380646B7
:104C500004E0FFF76DF9801B40459ED83B6F9A0733
:104C6000F7D5002D3FF42FAFCFE7012B6A683FF453
:104C700055AF02F48003E1698B427FF44FAF02F03D
:104C80003F03216A8B427FF449AF47F6C073616AE4
:104C90001340B3EB811F7FF441AFA36A02F44031AC
:104CA0005B08013BB1EB034F7FF438AFE36A02F0DE
:104CB0007062B2EB036F14BF0120002020E742F4C2
:104CC00080221A601A6842F480321A607FE642F04D
:104CD00004021A671A6F42F001021A67B2E7FFF77F
:104CE00027F9064605E0FFF723F9801B02283FF667
:104CF00054AF2B689901F6D4A26A606A5208114E2B
:104D0000D4E90731013A0B43E16A43EA024343EA3B
:104D1000801343EA016343F000536B602B6843F058
:104D200080732B60FFF704F9044605E0FFF700F9F4
:104D3000001B02283FF631AF33689A01F6D5DEE654
:104D40000120704700380240002800F0B380614A1B
:104D5000136803F00F038B422DE9F04104460D4622
:104D60000CD2136823F00F030B431360136803F096
:104D70000F038B4202D00120BDE8F0812368980721
:104D800014D5590704D554498A6842F4E0528A6020
:104D90001A0704D550498A6842F460428A604E4935
:104DA000A0688A6822F0F00202438A60DF0720D5FB
:104DB0006268494B012A1B687ED0022A77D0990786
:104DC000D9D5454E41F28838B36823F00303134325
:104DD000B360FFF7ADF8074604E0FFF7A9F8C01B82
:104DE00040456CD8B368626803F00C03B3EB820FE4
:104DF000F3D1384A136803F00F03AB4209D91368A3
:104E000023F00F032B431360136803F00F03AB422F
:104E1000B1D123685A0706D52F49E0688A6822F481
:104E2000E05202438A601B0731D42B498B6803F0A0
:104E30000C03042B39D0082B18D14A684B6802F0B8
:104E40003F02496813F480033BD02448C1F3881122
:104E50000023A1FB0001FBF72BFA1F4B5B68C3F398
:104E6000014301335B00B0FBF3F300E01C4B1A4A33
:104E70001C4C92681C48C2F303121C490068A25CD7
:104E8000D3400B60FEF762FF0020BDE8F081124ABC
:104E90002169936823F4604343EAC1030E49936098
:104EA0008B6803F00C03042BC5D10C4BDFE7980192
:104EB00087D460E7012070479E0382D45BE703201C
:104EC0005AE70748C1F38811A1FB0001FBF7F0F98D
:104ED000C3E700BF003C02400038024000127A00E5
:104EE0000024F40074B5000808000120000001202F
:104EF000164908B58B6803F00C03042B1BD0082B54
:104F000017D14A684B6802F03F02496813F48003E6
:104F100013D10F48C1F38811A1FB0001FBF7C8F9B9
:104F20000A4B5B68C3F3014301335B00B0FBF3F052
:104F300008BD074808BD074808BD0648C1F38811E9
:104F40000023A1FB0001FBF7B3F9E9E700380240B9
:104F50000024F40000127A00044B05499B68054ABE
:104F6000C3F382230868D35CD840704700380240FE
:104F7000000001206CB50008044B05499B68054AF8
:104F8000C3F342330868D35CD8407047003802400E
:104F9000000001206CB500080E4B0F2202609A68D9
:104FA00002F0030242609A6802F0F00282609A689E
:104FB00002F4E052C2609B68DB0810B403F4E053D3
:104FC000054C036123685DF8044B03F00F030B608D
:104FD000704700BF00380240003C024003682DE9E2
:104FE000F04313F0010683B004460BD0A84A916841
:104FF00021F400019160466B91683143B6FA86F660
:105000007609916013F4002510D0A149E56BD1F821
:105010008C20B5F5801F22F4401242EA0502C1F847
:105020008C2000F01482B5FA85F56D09DF0210D5E9
:105030009748216CD0F88C20B1F5800F22F4400203
:1050400042EA0102C0F88C2000F00482002908BF67
:10505000012513F0807F18BF0126980600F1B28168
:10506000D9060CD58A4AD2F88C1021F08071C2F88A
:105070008C10D2F88C10A06B0143C2F88C105A042B
:1050800008D58349606ED1F8902022F44032024363
:10509000C1F890201F0408D57D49A06ED1F890205A
:1050A00022F440220243C1F89020D80308D5784961
:1050B000E06ED1F8902022F440120243C1F8902013
:1050C000990308D57249206FD1F8902022F440024C
:1050D0000243C1F890205A0608D56D49606CD1F89A
:1050E000902022F003020243C1F890201F0608D549
:1050F0006749A06CD1F8902022F00C020243C1F85D
:105100009020D80508D56249E06CD1F8902022F0B3
:1051100030020243C1F89020990508D55C49206D02
:10512000D1F8902022F0C0020243C1F890205A0525
:1051300008D55749606DD1F8902022F4407202439F
:10514000C1F890201F0508D55149A06DD1F89020D5
:1051500022F440620243C1F89020D80408D54C499B
:10516000E06DD1F8902022F440520243C1F8902023
:10517000990408D54649206ED1F8902022F4404287
:105180000243C1F890205A0208D54149A06FD1F8D6
:10519000902022F080620243C1F890209F020CD53B
:1051A0003B49E06FD1F89020B0F1006F22F000622F
:1051B00008BF01250243C1F8902013F0080F18BF63
:1051C0000125580308D53249606FD1F8902022F0AC
:1051D00040720243C1F8902019026AD4012E01D016
:1051E0009A0160D52A4E336823F080633360FEF75E
:1051F0009FFE074605E0FEF79BFEC31B642B00F2F3
:10520000DD8033681B01F6D42368DF0712D5626B9B
:1052100082B9D6F88420D6F8841002F4403201F026
:1052200070610A43616842EA8112A16842EA017230
:10523000C6F884201E0304D5E26BB2F5801F00F08F
:105240001A81D80204D5226CB2F5800F00F01381C8
:10525000D90111D50E49D1F88420D1F8840002F08B
:10526000706200F0E0400243606842EA8012206908
:1052700042EA0042C1F884209A0100F1ED80044E18
:10528000336843F080633360FEF752FE074607E061
:1052900000380240FEF74CFEC01B642800F28E80EE
:1052A00033681B01F6D5012D0ED0002003B0BDE8F8
:1052B000F0839149D4F88000D1F8902022F08052F8
:1052C0000243C1F8902089E78B4D2B6823F080536F
:1052D0002B60FEF72DFE064604E0FEF729FE801B3C
:1052E00064286BD82B689F00F7D423681D0340F116
:1052F000FB80E26B002A40F0F7807F49D1F88820DC
:10530000D1F8880002F4403200F0E04002436069C6
:1053100042EA8012A06942EA0062C1F88820D1F80E
:105320008C20A06A22F4F852013842EA0022C1F827
:105330008C20990215D5E26FB2F1006F11D16E4940
:10534000D1F88820D1F8880002F0706200F0E040C7
:105350000243606942EA8012206A42EA0042C1F8D0
:1053600088201A0719D5644A6569D2F88810D2F8DE
:10537000883001F07061E06903F440330B4343EA85
:10538000851343EA0073C2F88830D2F88C30E16AA2
:1053900023F440330B43C2F88C30574C236843F05E
:1053A00080532360FEF7C4FD054623689B003FF54C
:1053B0007CAFFEF7BDFD401B6428F6D9032003B087
:1053C000BDE8F0834C4B4D4F1A6C42F080521A648A
:1053D0001B6C03F080530193019B3B6843F4807383
:1053E0003B60FEF7A5FD804605E0FEF7A1FDA0EBC2
:1053F00008006428E2D83B68D905F6D53E4F236BF8
:105400003A6F03F4407112F4407210D08A420ED009
:105410003A6F386F22F4407240F480303867386F4A
:1054200020F4803038673A673A6FD20748D4B1F534
:10543000407F3CD030498A6822F4F8128A602E4AB4
:10544000C3F30B03116F0B431367236808E60025B2
:105450000126EBE50126FCE5236961681B04E2688F
:1054600043EA8113A16843EA0263234A43EA0173D2
:10547000C2F8843003E72049D1F88420D1F88400B1
:1054800002F4403200F0E0400243606842EA8012D9
:10549000E06842EA0062C1F88420D1F88C00626AB8
:1054A00020F01F00013A0243C1F88C20D0E61248D8
:1054B00013498268194022F4F8120A438260BEE759
:1054C000FEF736FD41F28839804606E0FEF730FDF2
:1054D000A0EB080048453FF671AF3B6F9807F5D544
:1054E000236B03F44071A2E7D8027FF522AF226C50
:1054F000002A7FF41EAF00E7003802400070004031
:10550000FFFCFF0F2DE9F04115460E4682B0002347
:10551000354407468DF80330FEF70AFD2D1AFEF7D5
:1055200007FD314B80463C681B68224603EB830332
:10553000C3EBC3031B0D05FB03F30193731C21D1C4
:10554000936813F4C06F09D0237BDBB28DF803306E
:105550009DF80330936813F4C06FF5D1002002B0BA
:10556000BDE8F081237BDBB28DF803309DF803307A
:10557000FEF7DEFCA0EB0800A84208D2019B3A68C7
:1055800013BB1D46936813F4C06FEBD1E6E7D7E970
:1055900000315A68B1F5827F22F0E0025A6017D0DC
:1055A000BA6AB2F5005F07D11A6822F400521A6095
:1055B0001A6842F400521A6001220023032087F87F
:1055C0005D2087F85C30CAE7019B013B0193B5E79A
:1055D000BA68B2F5004F02D0B2F5806FE0D11A6818
:1055E00022F040021A60DBE7000001202DE9F04FB5
:1055F000002385B001EB0208DFF860A18DF80330CD
:105600000D4616460746FEF793FCA8EB0009FEF789
:105610008FFCDAF80030834603EB8303C3EBC3034C
:105620001B0D09FB03F302936B1C3C6830D1A3688C
:1056300013F4C05FFBD1484ADAF80030A2FB032321
:105640004FF47A725B0D02FB03F301937B68B3F5B1
:10565000827F06D127E0019B013B0193A3681B06D3
:1056600002D5019B002BF6D1324629463846FFF77A
:1056700049FF90B905B0BDE8F08FFEF759FCA0EBEB
:105680000B00484533D2029B002B50D13C68994611
:10569000A36813F4C05FF0D1CDE73B6E43F0200365
:1056A0003B660320E6E7FEF743FCA8EB0004FEF7A9
:1056B0003FFCDAF800308046C3F3CB3304FB03F33E
:1056C0000393681C3A680ED193681906FCD4CBE7A3
:1056D000FEF72EFCA0EB0803A34208D2039B002B8D
:1056E00035D13A681C4693681A06F1D4BCE7D7E96D
:1056F00000315A68B1F5827F22F0E0025A601AD078
:10570000BA6AB2F5005F07D11A6822F400521A6033
:105710001A6842F400521A600123002287F85D30B3
:105720003B6E87F85C2043F020033B66B9E7029BA1
:10573000013B029378E7BA68B2F5004F02D0B2F5A8
:10574000806FDDD11A6822F040021A60D8E7039B0F
:10575000013B0393B5E700BF819F5E160000012067
:1057600070B50C4682B00646FEF7E2FB6434241A9C
:10577000FEF7DEFB234B05461B68C3F3CB3304FB6C
:1057800003F3019307E0FEF7D3FB401BA0420AD2CC
:10579000019B33BB1C4633689B6813F08003F2D136
:1057A000184602B070BDD6E900315A68B1F5827F63
:1057B00022F0E0025A6018D0B26AB2F5005F07D159
:1057C0001A6822F400521A601A6842F400521A60F1
:1057D00001220023032086F85D2086F85C3002B0A9
:1057E00070BD019B013B0193D5E7B268B2F5004F54
:1057F00002D0B2F5806FDFD11A6822F040021A6041
:10580000DAE700BF000001202DE9F0410F4684B027
:105810000023DFF80C8107F1640405468DF807309A
:10582000FEF786FB241AFEF783FBD8F80030064605
:1058300003EB8303C3EBC3031B0D04FB03F30393CD
:1058400008E0FEF775FB801BA0422AD2039B002BC9
:1058500048D11C462B689A6812F4C05FF1D12F49D9
:10586000D8F80020A1FB02124FF47A71520D01FB0F
:1058700002F26968B1F5827F029206D136E0029A9F
:10588000013A02929A68120602D5029A002AF6D1CB
:105890003A4664212846FFF735FE68BB04B0BDE8F0
:1058A000F081D5E900315A68B1F5827F22F0E0023B
:1058B0005A6026D0AA6AB2F5005F07D11A6822F4AE
:1058C00000521A601A6842F400521A600123002242
:1058D00085F85D302B6E85F85C2043F020032B6645
:1058E0000320DBE7039B013B0393B3E739462846DC
:1058F000FFF736FF0028CBD02B6E43F020032B663A
:10590000EEE7AA68B2F5004F02D0B2F5806FD1D1B0
:105910001A6822F040021A60CCE700BF819F5E1631
:1059200000000120324B6421324A1B68A2FB032392
:1059300002685B0A10B501FB03F382B004460193D1
:10594000536823F08003536005E0019B013B019302
:105950005368180606D5019B002BF6D1236E43F041
:1059600040032366FEF7E4FA01462046FFF74CFFAA
:1059700008B1402323662268136823F040031360B4
:10598000FEF7D6FA642102462046FFF7BBFD08B1B8
:105990004023236622685368590624D5536823F0B0
:1059A0004003536005E0019B013B019353685B0694
:1059B00006D5019B002BF6D1236E43F040032366EE
:1059C000FEF7B6FA01462046FFF7CAFE08B14023AB
:1059D0002366FEF7ADFA642102462046FFF792FDEA
:1059E00008B140232366072384F85D3002B010BD60
:1059F00000000120F11976054368B3F5827F2DE997
:105A0000F041044682B019D0494B4FF47A71494AAB
:105A10001B68A2FB03235B0D01FB03F3009306E06D
:105A2000009B2268013B009393681B0602D5009BF4
:105A3000002BF5D1002002B0BDE8F08183680E464E
:105A40001546B3F5004F3CD0B3F5806F39D07719C8
:105A5000FEF76EFA3F1AFEF76BFA354B80461B686D
:105A6000C3F3CB3307FB03F30193731C206824D1EA
:105A700083681906FCD46368B3F5827FDAD1A36822
:105A8000B3F5004F02D0B3F5806FD3D12A4631462B
:105A90002046FFF737FD0028CCD0236E43F02003CB
:105AA00023660320C7E7FEF743FAA0EB0800B842DD
:105AB00011D2019B5BB920681F4683681A06F2D495
:105AC000D9E72268136823F040031360BFE7019B06
:105AD000013B0193C9E7D4E900315A68B1F5827FEF
