:020000040800F2
:1000000000000820353B00086D3A0008713A0008EE
:10001000753A0008793A00087D3A000800000000AF
:10002000000000000000000000000000E194000853
:10003000813A00080000000081950008E59500085D
:10004000853B0008853B0008853B0008853B000890
:10005000853B0008853B0008853B0008853B000880
:10006000853B0008853B0008853B0008853B000870
:10007000853A0008853B0008913A0008853B000856
:10008000853B0008853B0008853B0008853B000850
:10009000853B0008853B0008853B0008853B000840
:1000A000853B0008853B0008853B0008853B000830
:1000B000853B0008853B0008853B0008853B000820
:1000C000853B0008853B0008853B0008853B000810
:1000D000853B0008853B0008853B00089D3A0008E9
:1000E000853B0008853B0008853B0008853B0008F0
:1000F000853B0008853B0008853B0008853B0008E0
:10010000853B0008853B0008853B0008853B0008CF
:10011000853B0008853B0008A93A0008853B00089C
:10012000B53A0008853B0008853B0008C13A000845
:10013000853B0008853B0008853B0008853B00089F
:10014000853B0008853B0008853B0008853B00088F
:10015000CD3A0008853B0008853B0008853B000838
:10016000853B0008853B0008853B0008853B00086F
:10017000853B0008853B0008853B00080000000027
:10018000853B0008853B0008853B0008853B00084F
:10019000853B0008853B0008853B0008853B00083F
:1001A000853B0008853B0008853B0008853B00082F
:1001B000853B0008853B0008853B0008853B00081F
:1001C000853B0008853B000800000000853B0008D7
:1001D000853B0008853B0008853B0008853B0008FF
:1001E000853B0008853B0008853B0008853B0008EF
:0801F000853B0008853B000877
:1002000010B5054C237833B9044B13B10448AFF350
:1002100000800123237010BD600002200000000058
:10022000F8A3000808B5034B1BB103490348AFF31B
:10023000008008BD0000000064000220F8A3000850
:1002400001F0FF01102A2BDB10F0070F08D010F887
:10025000013B013A8B422DD010F0070F42B3F6D18B
:10026000F0B441EA012141EA014122F007047FF0A4
:1002700000070023F0E80256083C85EA010586EAFB
:10028000010685FA47F5A3FA87F586FA47F6A5FA37
:1002900087F68EB9EED1F0BC01F0FF0102F0070243
:1002A00032B110F8013B013A83EA010313B1F8D1EE
:1002B0000020704701387047002D06BF35460338CF
:1002C000073815F0010F07D1013015F4807F02BF08
:1002D000013015F4C03F0130F0BC0138704700BF59
:1002E00053B94AB9002908BF00281CBF4FF0FF319D
:1002F0004FF0FF3000F06AB9ADF1080C6DE904CEA3
:1003000000F006F8DDF804E0DDE9022304B07047F0
:100310002DE9F047089D0C46002B4ED194468C45A4
:100320008646B2FA82F262D94AB1C2F12003914004
:1003300020FA03F30CFA02FC194300FA02FE4FEA1A
:100340001C471FFA8CF6B1FBF7F44FEA1E4307FB7C
:10035000141143EA014304FB06F199420AD91CEB4C
:10036000030304F1FF3080F01281994240F20F81C3
:10037000023C6344591A1FFA8EF3B1FBF7F007FBF6
:10038000101143EA014300FB06F69E420AD91CEB1A
:10039000030300F1FF3180F0FC809E4240F2F980BF
:1003A000634402389B1B40EA044000211DB1D34046
:1003B0000022C5E90032BDE8F0878B4205D90DB1B6
:1003C000C5E9000100210846F5E7B3FA83F10029E9
:1003D00046D1A34202D39042C0F0F080861A64EB6B
:1003E00003030120002DE6D0C5E90063E3E7002AFE
:1003F00040F09080A1EB0C044FEA1C481FFA8CF7E8
:100400000121B4FBF8F64FEA1E4308FB164443EA09
:10041000044307FB06F0984208D91CEB030306F1DE
:10042000FF3402D2984200F2CD8026461C1A1FFAF1
:100430008EF3B4FBF8F008FB104443EA044300FBDE
:1004400007F79F4208D91CEB030300F1FF3402D2E7
:100450009F4200F2B0802046DB1B40EA0640A5E741
:10046000C1F120068B4022FA06F71F4320FA06FC52
:1004700004FA01F343EA0C03F44000FA01F8380CE3
:100480004FEA1349B4FBF0FE1FFA87FC00FB1E4441
:1004900049EA04440EFB0CF9A14502FA01F20AD91B
:1004A0003C190EF1FF3A80F08480A14540F2818032
:1004B000AEF1020E3C44A4EB09041FFA83F9B4FB2D
:1004C000F0F300FB134449EA044403FB0CFCA4458D
:1004D00007D93C1903F1FF3067D2A44565D9023B27
:1004E0003C4443EA0E40A0FB0293A4EB0C049C4264
:1004F000CE469C4651D34ED055B1B8EB0E0364EBBB
:100500000C0404FA06F6CB401E43CC40C5E9006457
:10051000002150E7C2F1200320FA03F10CFA02FC9B
:1005200024FA03F394400C434FEA1C4800FA02FEFD
:100530001FFA8CF7B3FBF8F008FB1031230C43EAE9
:10054000014300FB07F1994208D91CEB030300F1BA
:10055000FF362CD299422AD9023863445B1AA4B2DE
:10056000B3FBF8F108FB113344EA034401FB07F342
:10057000A34208D91CEB040401F1FF3613D2A342B5
:1005800011D902396444E41A41EA004139E70446CA
:10059000F0E6084606E7C845AED2B9EB020E63EBBB
:1005A000070C0138A8E73146EDE7034699E73046E6
:1005B000D4E7D6467FE7634402384DE70646234634
:1005C00008460FE7023E634430E700BF704700BFB4
:1005D00008B5012006F0BCFEFBE700BF00000000EC
:1005E00010B596B034220021042408A809F02EFA90
:1005F0000023CDE90333CDE90533079303F0A6FFCC
:100600002D4A08A82D4B116C41F080511164126CD9
:1006100002F080520192019A1A6842F440421A6034
:100620001B6803F4404302930223029A4FF48002B2
:100630000E931493D8239FED1E7BCDE90F241193C5
:10064000022209238DED087BCDE9122303F0C0FFC0
:10065000A8B903F083FFD8B90F21022300244FF477
:10066000A05203A8CDE903134FF480530721CDE92D
:100670000542079304F0A2F980B916B010BD01221B
:1006800021460F4803F054FF03F068FF0028E3D031
:10069000012204210A4803F04BFFDDE70122042177
:1006A000074803F045FF16B010BD00BFAFF3008050
:1006B000010000000000050000380240007000400A
:1006C0000018024080B594B0BFF34F8FBFF36F8F17
:1006D000BE480022C0F85022BFF34F8FBFF36F8F88
:1006E000436943F400334361BFF34F8FBFF36F8F10
:1006F000C0F88420BFF34F8FD0F8804043F6E075F8
:10070000C4F34E3CC4F3C9044FEA4C1C0CEA050187
:10071000234641EA8372013BC0F860225A1CF8D19B
:10072000ACF1200C1CF1200FF0D1BFF34F8F4369C7
:1007300043F480334361BFF34F8FBFF36F8FA44DFA
:10074000002403F021FA0126FFF74AFF129444F235
:10075000810122469F484427CDE90E44CDE910444B
:100760002B6B43F004032B632B6B03F00403029306
:10077000029B2B6B43F080032B632B6B03F08003F6
:100780000393039B2B6B43F001032B632B6B03F051
:1007900001030493049B2B6B43F002032B632B6B2D
:1007A00003F002030593059B2B6B43F020032B639F
:1007B0002B6B03F020030693069B2B6B43F0100377
:1007C0002B632B6B03F010030793079B2B6B43F0FA
:1007D00008032B632B6B03F008030893089B2B6B18
:1007E00043F040032B632B6B03F040030993099BF9
:1007F00003F09EFE22464FF48041774803F098FEB6
:1008000022464FF42851754803F092FE22464421B7
:10081000734803F08DFE4FF400524FF488130EA975
:1008200070481094CDE90E2303F07EFC44F281035E
:100830000EA968480E931194CDE90F6403F074FC7F
:100840004FF480430EA964480E931194CDE90F64D0
:1008500003F06AFC4FF400730EA960480E93032363
:10086000CDE90F64119303F05FFC4FF420530EA900
:100870005A480E931194CDE90F6403F055FC0EA96C
:100880005748CDE90E76CDE9104403F04DFC8022A7
:1008900000230EA952481094CDE90E2303F044FC26
:1008A0002B6B2246072143F480030C202B632B6B18
:1008B00003F480030093009B2B6B43F400132B6322
:1008C0002B6B03F400130193019B03F08DF90C20B3
:1008D00003F0C6F9224607210E2003F085F90E2009
:1008E00003F0BEF922460621382003F07DF93820B6
:1008F00003F0B6F9224606213B2003F075F93B20B0
:1009000003F0AEF922460621384603F06DF9384669
:1009100003F0A6F93448354B046103604FF4E1332A
:10092000846143600C2344624361C0E90244C0E92E
:10093000074406F0D1FA002877D12D484FF482728F
:100940002C490023C0E900124FF400724FF4E0611B
:10095000836082610722C1601021C26208220361A4
:1009600043610362C161C0E90933C0E90C3204F09C
:100970001DFF00287DD100231F4820496B220A93C8
:100980008361CDE90E33CDE91033C0E90013C0E92E
:100990000232C0E90433CDE90B3305F0B3F9002886
:1009A00061D14FF480530EA913480E9305F09EFABF
:1009B000002852D10024002500230AA90E480C93D8
:1009C000CDE90A4505F0F0FB1AE000BF00ED00E0BC
:1009D00000380240000402400014024000100240AF
:1009E0000018024000080240400102200048004078
:1009F00034030220003001402802022000000140A0
:100A000028BB1F491F4802F0F7FAD0B106F00AFBD5
:100A10001D4A00211D4806F05DFB1D4B186002F0C9
:100A2000B7FC40B106F01AFBFEE732460421194834
:100A300003F07EFD81E701220421164803F078FDD2
:100A4000F0E701220421134803F072FDDEE70122E2
:100A50000421104803F06CFDD3E7012204210D4866
:100A600003F066FDA6E7012204210A4803F060FDB9
:100A700097E701220421074803F05AFD7BE700BFF6
:100A800054A4000810A400087CA40008D1050008A4
:100A90007C00022000180240034B02689A4200D0FA
:100AA000704703F07DB800BF001000400122042110
:100AB000014803F03DBD00BF0018024010B40346DA
:100AC00000240846D11D9C60C3E90002CA082146E3
:100AD0005DF8044B08F0BABF0246D0E90103984222
:100AE00040F2918030B4CC090FD04FEAD30CDB43F5
:100AF0001468012003F0070300FA03F314F80C0054
:100B0000034304F80C30D2E90103013383429360BC
:100B100076D24D060CD5DC08DB431568012003F0C6
:100B2000070300FA03F3285D03432B55D2E90103C1
:100B300001338342936063D28C060CD5DC08DB431F
:100B40001568012003F0070300FA03F3285D03434F
:100B50002B55D2E9010301338342936050D2CD0675
:100B60000CD5DC08DB431568012003F0070300FA0D
:100B700003F3285D03432B55D2E90103013383427C
:100B800093603DD20C070CD5DC08DB4315680120CF
:100B900003F0070300FA03F3285D03432B55D2E962
:100BA00001030133834293602AD24D072DD40133D0
:100BB0008342936024D28C070CD5DC08DB43156894
:100BC000012003F0070300FA03F3285D03432B55CC
:100BD000D2E9010301339842936011D9C9070AD5BC
:100BE000D8431468DB08012100F007008140E05C75
:100BF0000143E15493680133012030BC9360704796
:100C0000002030BC704700207047DC08DB431568CB
:100C1000012003F0070300FA03F3285D03432B557B
:100C2000D2E90103C3E700BFCB08C943C05C01F0B0
:100C30000701084100F00100704700BF00293FD0C4
:100C400000F1FF3C4FF6FF7000B5614441F2210E08
:100C50001CF8013F80EA0320430002049BB248BF16
:100C600083EA0E035A00180492B248BF82EA0E02C9
:100C7000530012049BB248BF83EA0E035A001804C3
:100C800092B248BF82EA0E02530012049BB248BFE0
:100C900083EA0E035A00180492B248BF82EA0E0299
:100CA000530012049BB248BF83EA0E0358001B0492
:100CB00080B248BF80EA0E006145C9D15DF804FBEF
:100CC0004FF6FF70704700BF00230380704700BFDE
:100CD00000B501F0010190F800C04FF0000E41EAAC
:100CE0004C0190F801C00CF1010CC9B25FFA8CFC08
:100CF0000170BCF1080F80F801C082F800E004D157
:100D0000197001231370A0F800E001205DF804FBC6
:100D1000C00070478AB10A4470B51E464C1E551E6D
:100D200001E0AC4207D014F8011F3046FFF7D4FEB3
:100D30000028F6D170BD012070BD0120704700BFB2
:100D400000487047ACA400080020704700285DD020
:100D50002DE9F0470D46C6B0002953D01646002AAB
:100D600050D01F46002B4DD04E9B002B4AD0509B9D
:100D7000509AB3FA83F35B09002A43D0B1F802908A
:100D8000B9F5807F3ED80A78044609F106080DF1CE
:100D9000140A62F307034A7862F30F234FEA192219
:100DA00062F3174369F31F630493B9F1000F4BD14A
:100DB00009F1040104A8FFF741FF6B88257B020AB3
:100DC00002350AF803200DF11502ED00D05440461B
:100DD000736998474F9B05449D4213D81A464E9914
:100DE00001A8FFF76BFE237B93B1002502E0227B75
:100DF0009A420DD90135552101A8FFF76DFEEBB2DE
:100E00000028F4D1002046B0BDE8F08700207047EC
:100E1000E18901A8090AFFF75FFE0028F2D0A17B53
:100E200001A8FFF759FE0028ECD03846B368984770
:100E3000F468424604A9384601ABA0470028E1D037
:100E4000039B509A1360DEE74A460431504608F08F
:100E500087FEADE702F060BB02F07EBB02F09CBBF8
:100E600002F0BABB02F000BC02F014BC2DE9F04F56
:100E700083B09B4606460D460E9C109B002C18BF67
:100E800000289DF83010BDF834700CBF4FF0010AF7
:100E90004FF0000A002B14BF50464AF0010068BB17
:100EA0006B0001930F9BB3EB450F24D3002D53D060
:100EB0004FEA074832B301F0010904348246514633
:100EC0003046FFF7B1FE89F0010110B108464946EE
:100ED00081468B450CBF40463846CB450AF1010A96
:100EE00044F8040C33D0554544F8087BE7D1109BF7
:100EF0000120019A1A6003B0BDE8F08F002003B012
:100F0000BDE8F08F914604F1040A49463046FFF7E8
:100F10008BFE002813BF012200224FF0010C4FF07E
:100F2000000CDC4514BF38464046934544F8390070
:100F300006D14AF8398009F10109A945E5D1D6E77A
:100F40004AF8397009F101094D45DED1CFE7554521
:100F500044F8088BB3D1CAE70195C8E72DE9F043FF
:100F6000B1F8AC700C46064601F1AA0097FA97F862
:100F7000C3B01FFA88F909F1040189B2631893F824
:100F8000AA2093F8AB5045EA0225FFF757FE8542A9
:100F900020D006F58055D5F8583895F85C18002B08
:100FA00058D0DA680132DA6029B91A6901210A4495
:100FB00085F85C181A61002304F5DA706371D5F8BE
:100FC0004C28C4F8B031A4F8A830936843B0BDE809
:100FD000F0431847B4F8AA30ADF80680ADF80430F5
:100FE000002F3DD106F58055D5F8583813B19A68D1
:100FF00001329A60D5F850381BB101A9D5F85408D0
:1010000098470024D5F84C3841F216609B6830446C
:10101000A5F8624485F8654485F86744C5F812462A
:10102000A5F80A459847D5F84C3841F60A00012240
:101030009B68304485F8594685F85B46A5F85626E6
:10104000C5F80648A5F8FE46984785F8424443B0DF
:10105000BDE8F0830029AED1012385F85C38AAE70A
:101060004A4604F1AE0102A808F07AFDBAE700BFD3
:1010700041F262432DE9F04103440C46897805466C
:10108000B4EB030E4FF0000082B018BF4FF0010E1A
:101090009142607000F095802878002855D0E37860
:1010A000002B00F0C78023792271591AB1FA81F11F
:1010B0004909874850F82E20013240F82E206379E4
:1010C000002B49D1B4F8A8303BB9A6E092F85530CE
:1010D000A4F8A830002B00F0A080E21892F806C017
:1010E0008C45F3D17B4E36F81E0080B2984201D277
:1010F00026F81E3092798A4200F09780B4F8A83022
:10110000B4F8A6209A421DD1234405F5805601204B
:10111000002193F85520607104F5DA70D6F84C3848
:10112000C4F8B0119B68A4F8A820984796F85C38DA
:101130002BB1D6F8583813B15A6A01325A620023DB
:1011400086F85C3802B0BDE8F081002908BF012AAA
:101150000CBF01210021ACE7002305F5805604F502
:10116000DA770DF106028DF806308DF80730384633
:10117000D6F84C38D3F810800DF10703C04700288B
:101180005ED09DF80630002BDCD0B4F8B031B3F55A
:10119000837F72D25A1C9DF80710234492B2042A0E
:1011A000A4F8B02183F8AA1000F08180B4F8B2311D
:1011B000002BC7D09A42C5D121462846FFF7CEFE64
:1011C000C0E7454A52F82E30013342F82E30637999
:1011D000012B04D00023E37002B0BDE8F08105F5D7
:1011E0008056D6F8582896F85C08002A54D0916AA0
:1011F0000131916220B9116986F85C3801311161C1
:10120000002304F5DA706371D6F84C28C4F8B031C5
:10121000A4F8A83093689847DCE72E4A32F81E20DD
:10122000224692798A427FF469AF01339BB2A4F8D7
:10123000A83065E701232271E37002B0BDE8F081B8
:10124000D6F8583896F85C185BB31A6B01321A63FB
:1012500029B9012286F85C281A6901321A61002333
:1012600038466371D6F84C28C4F8B031A4F8A830D9
:101270009368984702B0BDE8F08196F85C38002B7F
:10128000EDD10122D6F8583886F85C28002BE6D03C
:101290001A6901321A61E2E70028B1D186F85C3898
:1012A000AEE70029DBD1012386F85C38D7E72A892D
:1012B000B4F8AC30B2F5807F5BBA28BF4FF48072CF
:1012C0009BB29342D9D80633A4F8B2313AE700BFB3
:1012D0002C0402202804022034040220002B18BF12
:1012E000002900F017812DE9F04F8246B1B078B1A6
:1012F00015469846B44A0F464B6893420CD0B34A01
:10130000934209D0B24A934206D0B24A934203D0E4
:10131000002031B0BDE8F08FB5EB830FF8D33B7BF5
:10132000043B042BF4D83B7C042BF1D83B89013BD4
:101330009BB2FF2BECD8D8F80430402BE8D84FF400
:10134000C35200215046564608F080FBBC460AF5C1
:1013500080544FF00009BCE80F000FC67B68CB46F5
:101360009CE807004FEA430E002386E80700CAE91D
:10137000075E72462804290CFEF7B2FF3A9BCAF8B2
:101380002400A646C4F858383B9BC4F84C88C4F8DF
:1013900050383C9B0097C4F854389AF810104D1CF4
:1013A000EDB26B0084F829345346C2461A464FF01A
:1013B00000084B465FFA8BF48BF0010746469146D6
:1013C000F01806F1010C0022C0B25FFA8CFC09EBA8
:1013D0000020CDE901832730CDE9039A7DE0414526
:1013E00000F2AC8089F001094FF000085FFA89FA39
:1013F000C2F340194AEA4303CA45DBB200F08780D2
:10140000414500F2B3808AF0010A4FF000085FFA0C
:101410008AF95B00C2F3001ADBB2D14549EA030343
:10142000DBB200F08880414500F29A8089F0010A21
:101430004FF000085FFA8AFA5B00C2F3C009DBB222
:10144000D1454AEA0303DBB272D0414500F2828003
:101450008AF001094FF000085FFA89F95B00C2F3D6
:10146000800ADBB2D14549EA0303DBB25DD04145D6
:101470006AD889F0010A4FF000085FFA8AFA5B0027
:10148000C2F34009DBB2CA454AEA0303DBB249D0E2
:1014900041457BD88AF001094FF000085FFA89F9CD
:1014A0005B0002F0010ADBB2D14549EA0303DBB27B
:1014B00035D0414560D889F0010A4FF000085FFA45
:1014C0008AFA01324AEA43030AFB0588B2F5807FB3
:1014D00000F8013F80F8008A5ED0C2F3C719D3112B
:1014E0004C4519D0B1424DD8B9463B464FF00008A3
:1014F000C2F3801ACA457FF472AFC2F340194AEAB8
:1015000043034FF00008CA45DBB27FF479AF4FF0D8
:1015100000087EE7002070474FF00008E8E74FF032
:101520000008CEE74FF00008BAE74FF00008A6E742
:101530004FF0000892E74FF000087DE708F101083E
:10154000CA465FFA88F853E708F10108CA465FFA0D
:1015500088F894E708F10108D1465FFA88F87DE73A
:1015600008F10108CA465FFA88F865E708F1010842
:10157000D1465FFA88F84CE708F10108CA465FFADD
:1015800088F89EE75B46E046A146B1E708F101080E
:10159000D1465FFA88F883E7DDE90183DDE9039A44
:1015A00008F101085FFA88F6B142BFF409AF4A4674
:1015B0009946A94413465FFA89F9BBF1000F0BD194
:1015C0004FF0010BF2E600BF40420F0080841E0086
:1015D000C0C62D0000093D00009FD0469246002263
:1015E000397B7446009241F2684E4A1EFB89019194
:1015F0000AEB0E0CD2B241F2B747032A38BF0322DE
:101600008A4228BF0A460129C3F3003188BF9146A8
:101610004FEAD3322191C3F3C0211E92C3F380322B
:101620002291C3F380211F9298BF4FF001092391AB
:10163000C3F34021C3F340322491C3F3002120922D
:1016400009F1FF322591C3F3C011D2B22691C3F341
:10165000801101322791C3F34011D2002891C3F3C6
:1016600000110D922991C3F3C0012A91C3F38001A7
:101670002B91C3F3400103F001032C912D931346EA
:1016800001320E929A1C0F92DA1C10921A1D1192BE
:101690005A1D12929A1D1392DA1D149203F1080238
:1016A000159203F10902169203F10A02179203F14F
:1016B0000B02189203F10C02199203F10D021A9217
:1016C00003F10E021B9203F110020F331C921D93C3
:1016D000CDE92E84019B002B00F0D0804FF0012338
:1016E000B9F1010FCCE9003329D9B9F1020FCCE9E6
:1016F000023324D0B9F1030FCCE904331FD0B9F180
:10170000040FCCE906331AD0B9F1050FCCE9083340
:1017100015D0B9F1060FCCE90A3310D0B9F1070F93
:10172000CCE90C330BD0B9F1080FCCE90E3306D05D
:10173000B9F1090FCCE9103318BFCCE91233DDE958
:101740001A28DDE91C340C92199A0D9E0B92189AF6
:101750000292179A0A92169A0992159A0892149A66
:101760000792139A0692129A0592119ADDE90E5089
:101770000492109A039200994FF4FA7202FB01A1AD
:101780001E9A0E440D44084406F80E200CF1010682
:101790001F9A05F80E20209A00F80E20039A21982F
:1017A0000A4402F80E00049A22980A4402F80E0035
:1017B000059A23980A4402F80E00069A24980A44CF
:1017C00002F80E00079A25980A4402F80E00089ABB
:1017D00026980A4402F80E00099A27980A4402F84B
:1017E0000E000A9A28980A4402F80E00029A2998D4
:1017F0000A4402F80E000B9A2A980A4402F80E00D6
:101800000C9A2B980A4402F80E0001EB08022C985F
:1018100002F80E000A192D9802F80E004FF000028F
:10182000ACF8A030023B8CF8502062469BB21E44BC
:10183000002312F8015F13B915E0C35D9BB1C8180E
:1018400010F80E40AC42F8D1013396429BB282F8B8
:101850005030EED1009B0CF5FA7C6BBBCDF800B09C
:1018600038E712F8015F9CF80030AB4263D04FF0CC
:101870000003964282F85030F3D1EBE70C220D21A1
:101880000A2506201E460F2410234FF00E08CDE92E
:101890000B210B22082102920922CDE909250722FA
:1018A0000425CDE907210522CDE9052003220220E8
:1018B000CDE9032501255EE7DDE92E84B4F808258E
:1018C000002A3FF425ADB4F8FC369A427FF420ADEF
:1018D000B3FA83F56D09002B3FF41AAD41F216609F
:1018E000D8F80830A4F86254504484F8655484F859
:1018F0006754C4F81256A4F80A559847D4F84C38DF
:10190000012241F60A009B68504484F8595684F835
:101910005B56A4F85626C4F80658A4F8FE56984715
:10192000B4F80835002B3FF4F3ACB4F8FC060038EB
:1019300018BF0120EDE40123964282F8503089D08F
:1019400012F8015F7BE700BF002847D00022002388
:1019500041F2504170B500F58054064641F23040E6
:1019600000253144304484F8285484F82A5484F8FB
:101970002C54C0E9002306F5A350A4F8415441E9D2
:101980000223C1E90023D4F84C1840E9022341F2B4
:10199000166084F8605484F85C588B683044A4F86E
:1019A000625484F8655484F86754C4F81256A4F855
:1019B0000A559847D4F84C38012241F60A009B6832
:1019C000304484F85956A4F8562684F85B56C4F877
:1019D0000658A4F8FE56BDE870401847704700BF8F
:1019E000002918BF002800F0D4842DE9F04F037CB3
:1019F0009DB00133DBB21993002A00F02784013A2D
:101A000041F2304300F580598A1818924A1E139209
:101A1000C218C35815920C9341F26243C3180F9336
:101A200053680D934B4681469846139998F82A348B
:101A300011F8012F1391002B00F03A8498F8283404
:101A400009EB0323134498F8412493F8281A93F8D8
:101A5000283088F828140E93002A00F0158498F88E
:101A60002B340E9ADB0143EA5203DBB282EA030114
:101A700008910C9911F1080698F84214069102F0A9
:101A8000010114910D9941F100059A4200F01A8468
:101A90000C9B41F2504498F840A40B4316964C44DA
:101AA000564614BF012300231795129309F5A2533C
:101AB0000B930F9B03F5DA730993089BB3FA83F337
:101AC00080220D99183BDBB2DA40D2B20A920C9A0E
:101AD0009A1841F100010392049133B9129B23B18A
:101AE000531E039361F1000304930A9A0E9B134261
:101AF000049B4FEA034B039B14BF012200224BEAD5
:101B0000134B1B0405920793069B002B00F00981E1
:101B10000B9A0320D9F8241052E90232A1FB0010DD
:101B2000120442EA13421B0413EB010A42EB0005C4
:101B3000079A524501957BEB050380F27982CDF837
:101B400004B0CDF808B09346CDE910A5D4E90072F1
:101B5000019B5F4572EB030340DA09F5A351D9F805
:101B6000243098F863C44FF0000A51F8085C681CF0
:101B700041F8080C51F8040C40F10000DB1942F167
:101B8000000241F8040C23606260BCF1000F65D1D3
:101B900005F0010298F86234E44508BF9A4204D186
:101BA000012388F8646488F8633498F85736002B6A
:101BB00040F0E28105F0010598F856269B4208BFE7
:101BC0009542C3D1012388F85866D4E9007288F899
:101BD00057365F45019B72EB0303BEDBDDE910A5C1
:101BE000079BDDF808B09A4575EB0B0380F29B80EC
:101BF00098F86734012B00F02C8398F85B36012BA2
:101C000000F027830025D8F84C3841F2166088F898
:101C1000605448449B6888F84254A8F8625488F895
:101C2000655488F86754C8F81256A8F80A559847BA
:101C3000D8F84C38012241F60A009B68484488F8DD
:101C4000595688F85B56C8F80658A8F8FE56A8F802
:101C50005626984798F84234069364E098F864143E
:101C600088F863A4B14200F0778199F80030002B26
:101C700040F02781002908BF012E0CBF012100215F
:101C8000AD4A98F86704136801331360002840F0E8
:101C90002581B8F80A353BB97BE192F8B734A8F84A
:101CA0000A35002B00F0758108EB030292F86804F6
:101CB0008842F2D1A148028892B29A4200D20380AF
:101CC00008EB030292F868248A4200F06B81B8F8AE
:101CD0000A35B8F808259A427FF467AF43440122D9
:101CE000099893F8B73488F867240022A8F80A35D1
:101CF000D8F84C389B68C8F81226984798F85C3892
:101D00002BB1D8F8583813B15A6A01325A620023FD
:101D100088F85C3898F84234002B7FF446AFDDF841
:101D200008B000230693864B1B782BB3854A039893
:101D300013688549C31A52680868049D65EB02025E
:101D40003F280FD80D68B3F5803F184605F101060E
:101D50000E6072F100017D4928BF4FF6FF7080B21E
:101D600021F81500202B72F1000205D2784951F8B4
:101D70002320013241F82320724B0126039AD9F81F
:101D800024501A60049A25FA06F75A606C4B069A9A
:101D90001E700023002A00F081812268616802928F
:101DA000D21B109161F1000007998A1A6BEB0000B9
:101DB00096460028019004DAD2F1000E60EB400153
:101DC0000191EB18634E4FF0AA3A43F10003A6FBD2
:101DD00003C121F0010C0CEB510CA3EB0C03EB1A2B
:101DE0000AFB03F165EB050506FB0511A3FB0636AF
:101DF00073453144019B994180F2FD80D8F8582801
:101E000012B1D36A0133D36298F860340133DBB284
:101E1000052B88F8603442D998F85C3833B901232F
:101E200088F85C3812B1136901331361079B0025F0
:101E3000D8F84C2841F21660FE184FF0000A4844CA
:101E40004BF1000144E9023B09F5A3534FF0000BAD
:101E500043E902ABC4E9006188F86054A8F8625411
:101E6000936888F8655488F86754C8F81256A8F83B
:101E70000A559847D8F84C38012288F859569B687B
:101E800088F85B56C8F80658A8F8FE56A8F85626F3
:101E900041F60A004844984798F8423406930B9B51
:101EA000039A43F8082C049A43F8042C059B0A9AD9
:101EB00088F84034089B9343089300F03B81059ECB
:101EC000FCE598F86534002B71D098F8663488F8F2
:101ED0006664591AB1FA81F14909D1E6D8F84C384B
:101EE0000DF16E0209981F6900238DF86E308DF890
:101EF0006F300DF16F03B84700285ED09DF86E304B
:101F0000BBB1B8F81236B3F5837F80F0B8805A1CA5
:101F10009DF86F10434492B2042AA8F8122683F861
:101F20000C1500F0F680B8F8143613B19A4200F0A0
:101F30000C8298F84234EFE62C0402202804022098
:101F400098030220A00302203C0402204004022047
:101F5000A8030220ABAAAAAAC64A98F86714136875
:101F6000012903F10103136068D098F8573688F807
:101F700065A4002B3FF41EAE41F25661324648463E
:101F80004944FFF775F898F84234002B7FF4DEAD32
:101F9000C5E6B94A128808EB030292F868248A421F
:101FA0007FF495AE01339BB2A8F80A3591E6012380
:101FB00088F8666488F86534F7E5D8F8583898F8F2
:101FC0005C18002B00F09E801A6B01321A6329B94D
:101FD0001A690121013288F85C181A6100230998F6
:101FE00088F86734C8F81236A8F80A35D8F84C389B
:101FF0009B6898479DE7002802DA073240F100000D
:102000000023D208029988F8603442EA407254F8FA
:10201000083C9B1844F8083C54F8043C43EBE003AC
:102020008F18109A42EBE00044E90137606036E710
:10203000CDF808B0D346CDE910A587E5D8F85838D3
:1020400098F85C08002B00F019819A6A01329A62B4
:1020500020B91A6988F85C1801321A610027D8F88B
:102060004C38099888F86774C8F812769B68A8F805
:102070000A75984798F8423488F865744CE698F8E1
:102080005C38002BAAD1012388F85C38D8F858387E
:10209000002BA3D01A6901321A619FE7079B4FF00A
:1020A000000A88F8426441F21660FF18D8F84C28FC
:1020B00048444BF1000544E9023B09F5A3534FF0B6
:1020C000000B43E902ABC4E90075069D88F8605433
:1020D000A8F86254936888F8655488F86754C8F87B
:1020E0001256A8F80A559847D8F84C38A8F85666FA
:1020F0009B6888F8595688F85B56C8F80658A8F8BF
:10210000FE56C5E600297FF469AF012388F85C38E4
:1021100064E7B9F80820B8F80E35B2F5807F5BBAED
:1021200028BF4FF480729BB29A42A8D30633A8F816
:102130001436FEE6069BDDE91665002B71D00B9B7D
:1021400003212D0453E90272D9F8243045EA1645DB
:102150001204A3FB0131360442EA17423F04FF1880
:1021600042EB0104B74274EB05034FF00103CDE9E4
:102170000165CDE90365B8BFCDE90174CDE9067409
:10218000002B4ED041F2504609F5A35A4E44019B14
:102190004846059A0F99D6E900C59C45029B75EB08
:1021A000030380F299805AF8084CD9F82430671C50
:1021B00004F0010B4AF8087C5AF8047C47F1000748
:1021C00013EB0C034AF8047C45F10005336098F8E2
:1021D00063347560FBB998F862249B4208BF93454D
:1021E00005D10123059A88F8633488F8642498F8A7
:1021F000573604F00104002B40F0AC8098F85626C6
:102200009B4208BF9442C2D1059B88F858360123EF
:1022100088F85736BBE7FEF72BFF98F84234002BBF
:10222000E5D1149B159A88F82B34D2E900320A3391
:102230000C9342F100030D93159B0C9A1A600D9AB2
:102240005A60139B189A93427FF4EFAB1DB0BDE820
:10225000F08F98F85C38002B7FF4D4AC012388F819
:102260005C38D8F85838002B3FF4CCAC1A690132EE
:102270001A61C7E4340402202804022000287FF4F5
:10228000EDAE88F85C18E9E6012209F5A2510C9838
:10229000DB0988F8412441F8080C0D9841F8040C3A
:1022A00088F82C2488F8403488F82B34FFF7D9BB01
:1022B0001999D30913FB01F30121DBB288F82A1421
:1022C000FFF7BEBB069B002B4ED098F84034059319
:1022D00009F5A2530B9332E7DDE90365DDE90674E6
:1022E000B74274EB05059CDA98F86734012B41D0AE
:1022F00098F85B36012B3DD00025D8F84C3841F2D8
:10230000166088F8605448449B6888F84254A8F8DE
:10231000625488F8655488F86754C8F81256A8F8CB
:102320000A559847012341F60A0088F85956A8F83B
:102330005636D8F84C38484488F85B569B68C8F83D
:102340000658A8F8FE5698476BE70F994846FEF7DF
:1023500005FEEEE541F25661059A48464944FEF70E
:1023600087FE98F842340BE7149BCDE90C6588F89A
:102370002B3461E798F85C38002BBDD1012388F835
:102380005C38D8F85838002BB6D01A6901321A6177
:10239000B2E77047124D134C08B54FF4FA7004F0D1
:1023A000D7FFEB6893B96B6983B9AB6973B9EB6914
:1023B00063B960690028F0D0218B02F0BDF84FF4BA
:1023C000FA7004F0C5FFEB68002BECD0606A218D39
:1023D0000028E2D001220029DFD002F0A9F8DCE7D2
:1023E00044380220983802202DE9F0411B4CADF50D
:1023F000027D22781AB10DF5027DBDE8F08102F070
:10240000FF0317491A46086801A905F05DF805465B
:102410000028F0D1BDF804700DF10601114E4FF007
:1024200001083A46104807F09BFB3A460E49B0684F
:1024300084F8008003F018FF0028DCD00B4A2570D8
:10244000D369706A4344318DD3610028D3D0002909
:10245000D1D0424602F06CF8CDE700BFEC04022078
:10246000780502209838022000800020443802209D
:102470000F4B104A5B681B68D96821F48071D960E2
:10248000196A0A4022B9196A40F24442114205D041
:10249000094B186850B1042104F06CBE1A6822F090
:1024A00001021A60044B18680028F4D1704700BF7D
:1024B00098380220111111008C0502200F4B104A90
:1024C0005B681B68D96821F48071D960196A0A4079
:1024D00022B9196A40F24442114205D0094B1868EA
:1024E00050B1012104F046BE1A6822F001021A60C0
:1024F000044B18680028F4D1704700BF98380220B8
:10250000111111008C050220034B186810B1022133
:1025100004F030BE704700BF8C050220F0B5294D95
:10252000ADF23C4D284F2B680DA86A680DAE0092A5
:10253000AA680192EA6802922A6903926A6904927F
:10254000AA690592EA6906922A6A07926A6A08925B
:10255000AA6A0992EA6A696B0A920B914FF40071B8
:102560001A4A07F03FFA84B205E0BDF83432E41AA3
:102570001E44A4B214B3B4F5007F224631460DF2D6
:10258000362028BF4FF40072ADF8342207F0E8FA85
:1025900000238DA938681A4604F042FF0028E4D0D1
:1025A000AB690B4A0133506AAB616B6B118D013320
:1025B0006B6318B111B1012201F0BAFF0DF23C4D6D
:1025C000F0BD00BF4438022078050220C4A40008F2
:1025D0009838022070B50C4601461E48C2B01E4D08
:1025E000002690F81AC095F800E04FEA8C0C1B48C2
:1025F000ADF806404CEACE0C2E7042EA0C0C4CEAC8
:10260000430C03788DF8053001338DF804C0037056
:10261000BCB90023124801A91A46006804F000FF63
:1026200068B1104B012210499C69486A1444098D15
:102630002A709C615C6B14445C6300B131B942B098
:1026400070BD224602A807F08BFAE2E701F070FFA6
:1026500042B070BD7C380220E8040220EB04022066
:1026600080050220443802209838022008B50C4822
:10267000002300681A4604F0D3FE58B1094B0A49FA
:102680009A69486A0132098D9A615A6B01325A631C
:1026900000B101B908BD0122BDE8084001F048BF02
:1026A0007C05022044380220983802202DE9F041B0
:1026B000294F064605887B78012B33D07B89B3F5FB
:1026C000805F28BF4FF48053AB420FD2234B0024CE
:1026D0002349DA69486A0132098DDA615A6B01329D
:1026E0005A63348000B149BBBDE8F081B5B1002424
:1026F000DFF87080291B3B8908EB0400002289B2B7
:10270000994228BF19460C44A4B2631BB3FA83F361
:102710005B09FFF75FFF3588A542EBD800233380C4
:10272000BDE8F0810C4675B90A78002ADCD01A465B
:1027300029462846FFF74EFF2570D5E70122BDE860
:10274000F04101F0F5BE1A4629460648FFF742FF60
:10275000002333802370C7E77C38022044380220EE
:1027600098380220940D02202DE9F04F002387B005
:10277000DFF8D8A2ADF816308DF8153004F090FCD3
:102780000346A9484FF40062A8498068039304F007
:1027900023FC58B1A44B586A198DDAF81C30013368
:1027A000CAF81C3010B1002940F0D7814FF0000961
:1027B0005546DFF890B29E4ECA46DFF88C820A2258
:1027C0000021072004F022FD43074FD4A94606F05C
:1027D00099FE9849984B0A781B789A4266D00A78F5
:1027E0000B78013303F01F030B70944B33F8224036
:1027F00003EB82029378009306F0AAFEA24570D8FC
:10280000A4EB0A07BFB2002F40F05F81864BC4F3F0
:102810000A0AB3F84010D86B11B108B101F08CFE70
:10282000009BBDF81650A3F10101B1FA81F14909ED
:10283000002D69D1002967D0072F00F00981002FF2
:1028400040F088807378012B00F08281ADF816701B
:10285000338B002BBBD0BDF816209A42B7D30DF1B5
:1028600015010DF11600FFF721FFB0E76E4F0024B0
:10287000B86803F03BFD06F045FE6F4B1C706D4BD6
:102880001C7006F065FE6E4B4FF40062ADF816400A
:102890008DF8154001246549B8681C7004F09CFB54
:1028A000002840F046814FF0000A8FE706F050FE06
:1028B00073784D46012B11D19DF8153073B17369B2
:1028C00063B104F0EDFB039B7269C31A934205D315
:1028D0000DF115010DF11600FFF7E8FEFFF784FD7D
:1028E0006DE7CAF50067514B5648BFB203EB0A01CA
:1028F0003A4607F035F90BEB0700274422464B49CF
:10290000BFB207F02DF981E727BB7378012B00F0E8
:10291000F9803A467389EC199C4240F2DE80D9F87E
:102920001C300133C9F81C30D9F834300133C9F8F0
:1029300034300023ADF816303B4B586A198D18B16E
:1029400011B1012201F0F4FD002F81D004F0A8FBA9
:1029500003907DE7D9F800303A463B44C9F800308F
:102960007378012BD6D10123CDF808900024AE4610
:1029700089468DF81530CDF804A03589A7EB040CF5
:102980000BEB040108EB0E00A5EB0E031FFA8CF213
:102990009BB202EB0E0A9C451FFA8AFA04EB030C69
:1029A0001DDB1A461FFA8CF407F0DAF82946BC4200
:1029B00014BF002509F00105012223482B46FFF72B
:1029C00009FE4FF00003AE46ADF816307DB18DF82C
:1029D0001530DDE901A9002F3FF43AAFB6E707F063
:1029E000BFF855453C46D646ADF816A0DED0BC42F1
:1029F000C3D3009B7546DDF804A0012BDDF80890D9
:102A0000A2D1002D00F08380012329460E481A46EA
:102A1000FFF7E0FD0023ADF816308DF81530002FDC
:102A20003FF416AF92E700BF9838022000820020E2
:102A30007C3802207005022071050220F00402207B
:102A4000E804022094050220940D0220443802205C
:102A5000DBF80030434A934244D0D9F800300733C2
:102A6000C9F800307378012B3FF47DAF7389062BD2
:102A70007FF655AFEC1D0722002508EB05003A490B
:102A800007F06EF8009BA4B2012BADF816407FF45E
:102A90005BAF9CB10025611B338908EB0500002268
:102AA00089B2994228BF19460D44ADB2631BB3FAEF
:102AB00083F35B09FFF78EFDAC42ECD80023ADF841
:102AC0001630002F3FF4C4AE40E7284B3A46264864
:102AD00003EB0A0107F044F898E6B4F5805F3FF68F
:102AE0001EAFCAE7224B1A8840F674539A42B4D1FB
:102AF000204B1B780A2BB0D1FFF710FD04F0D0FA61
:102B00000390A5E6009B012B3FF47BAFA0E69DF868
:102B10001530002B3FF418AF012300211A46084658
:102B2000FFF758FD00238DF81530002F3FF490AECD
:102B30000CE7EB69786A2344398DEB6100283FF498
:102B4000B2AE00293FF4AFAE224601F0F1FCAAE696
:102B50009DF81530002BDFD17AE6012201F0E8FC68
:102B600024E600BF3A7374619405022000820020BD
:102B7000980502209A0502206E4900206E4AD1F87D
:102B8000FC302DE9F04F43F080736C4CDFF8E0919E
:102B900083B0C1F8FC304FF48053C2F8B04F50609E
:102BA0001168674E41F00101C9F85408306811609E
:102BB000644A6549C9F85028644A02F085FE002835
:102BC00040F0A680624B0193624DDFF8A881DFF8E8
:102BD000A8B1DFF8A8A1002703E0E20724D4A307E7
:102BE0005ED400214FF0FF32072004F00FFB06F007
:102BF00089FC2C682F6006F0ABFC6107EDD55648C8
:102C0000FEF7A2FE306802F03DFF4FF480534F4ABA
:102C10004D49306802F058FE0028DED0019A536911
:102C200001335361E207DAD5D8F800304B4A01335B
:102C3000C8F80030B9F80835ABF80030B9F8FC3600
:102C40001380BBF800309BB213B113889BB233B929
:102C5000434A136813B9D8F80030136000BEF06A15
:102C6000318E10B109B101F067FC334B4FF40062B3
:102C700036495B6838480093FEF7B2FE2E4B009A47
:102C80005B6838499B1A384A13600A68934200D936
:102C90000B60DAF800300133CAF80030A307A0D582
:102CA000D8F800302D4A0133C8F80030B9F808359B
:102CB000ABF80030B9F8FC361380BBF800309BB29B
:102CC00013B113889BB233B9254A136813B9D8F8E6
:102CD0000030136000BEF06A318E10B109B101F00E
:102CE0002BFC154F4FF4006220491B487C68FEF70F
:102CF00077FE7B681C4A1B1B1A4913600A689342C3
:102D000000D90B60DAF800300133CAF8003062E70E
:102D10000F4A318D5369706A013301925361002962
:102D20003FF452AF00283FF44FAF012201F000FC06
:102D30004AE700BF00ED00E0001000E055CEACC552
:102D4000983802206D260008008A0020009A002092
:102D50004438022074050220D81F0220D804022023
:102D6000D0040220E0040220E404022000A200209B
:102D7000D82F0220D4040220DA040220DC0402202E
:102D80002DE98048DFF8EC90ADF5437DDFF8E8B041
:102D9000DFF8E8A0DFF8E880344F354E4FF0FF331E
:102DA00000226946D9F8000004F08EFB0028F5D116
:102DB0009DF800209DF80130120714D49BF80020E4
:102DC0008AB19AF800209A420DD0D8F82020786A6B
:102DD0000132398DC8F8202028B121B1012201F03B
:102DE000A7FB9DF8013001334FF00102BDF802400E
:102DF0008BF800208AF800306CB301AD05E0BDF817
:102E00000431E41A1D44A4B22CB3B4F5007F224669
:102E100029460DF5837028BF4FF40072ADF80421E8
:102E200006F09EFE002341A930681A4604F0F8FA25
:102E30000028E4D0D8F81830786A0133398DC8F802
:102E40001830D8F834300133C8F8343018B111B123
:102E5000012201F06DFB7869398B00289ED0002992
:102E60009CD0012201F064FB98E700BF9838022053
:102E7000780502207C050220E9040220EA040220F1
:102E800044380220704700BF2DE9F04FCDB0DFF885
:102E90005C814E4C002709AD0DF1280ADFF850B1D6
:102EA000DFF850914A4E4FF0FF3300220BA9D8F8BB
:102EB000000004F009FB0028F5D1E069218C18B16D
:102EC00011B1012201F034FB606B218F10B109B107
:102ED00001F032FB3F4B0BA90295484600934FF49B
:102EE00080532F60CAF80070DBF8002001933A4B42
:102EF000FDF72CFF00285AD029683648FFF7C2FF9B
:102F0000364BCDF810A00293238A009701934FF41B
:102F1000005399F8002003932E4899F81B30296834
:102F2000FDF7A4FF002842D06268106A00283ED056
:102F3000DAF800304FF6FE7103F1FF3C8C4536D8CD
:102F400011686FF0010C264A0264264AC263264AC1
:102F5000C264E2684F621832C1F810C01F4900F025
:102F60006FFF0146079010BB63684FF0FF320520EA
:102F70001B68D3F80CC04CF4807CC3F80CC0D3F8A9
:102F800000C04CF0010CC3F800C004F03FF9034648
:102F9000E069218C28B121B1079A069301F0C8FAA3
:102FA000069BDB0703D57368013373607BE77369A6
:102FB000606A0133218D736100283FF474AF0029EA
:102FC0003FF471AF012201F0B3FA6CE798380220A8
:102FD00044380220D41D0220941D0220000000204D
:102FE00009250008BD24000871240008800502207E
:102FF000383802207C380220002800F0D8802DE9E3
:10300000F0430D4685B0B9B103680446A3B14368E7
:1030100093B1836883B1C36873B1038A63B14B68AA
:10302000644A93420CD0644A934209D0634A934263
:1030300006D0634A934203D0002005B0BDE8F08378
:103040002B89013B9BB2FF2BF6D82B7B043B042B37
:10305000F2D82B7C042BEFD838220021594806F0F7
:10306000F5FC21464422584806F07AFD574FAC46FD
:103070003C46BCE80F000FC49CE8070084E807004A
:10308000AB7E002B00F02F81FDF75EFEDFF848815C
:10309000C8F800000028CFD04B4E00214FF48052DA
:1030A0004B4806F0D3FC7069318B18B111B1002286
:1030B00001F03EFAF069318C18B111B1002201F033
:1030C00037FA706A318D18B111B1002201F030FA6F
:1030D000FA7E318AF06801F02BFA01F087FD7B68F7
:1030E000010A044603EB4303B1EB830F4FEA83026B
:1030F00074D2B2EBD01F40F2F980364B8109B3EBAA
:10310000901F02D38A4240F20681324B6109B3EB31
:10311000541F02D38A4240F213812E4B2109B3EB94
:10312000141F02D38A4240F20E812A4BE108B3EB0E
:10313000D40F02D38A4240F20981264BA108B3EB97
:10314000940F02D38A4240F20481224B6108B3EB10
:10315000540FFFF471AF9142FFF46EAF4FF00209CC
:103160003568284602F098FB0023AB60C5E90433BC
:103170004FF482736B604FF4E063EB604FF40073C5
:10318000AB61A9F102031E2B39D8DFE803F0A838A0
:10319000AA383838A638383838383838A438383863
:1031A000383838383838383838383838A2000020BD
:1031B000704700BF40420F0080841E00C0C62D0033
:1031C00000093D0044380220983802207C38022053
:1031D000008A002080F937033838022035682846F5
:1031E00002F05AFB0023AB60C5E904334FF482734D
:1031F0006B604FF4E063EB604FF40073AB614FF42E
:1032000080793823EB6100232846AB62C5E9083397
:103210000723EB6202F0CAFA00287FF40DAF4E4D8F
:10322000B4FBF9F32B604D4B1C604D4BC3F8009081
:1032300001F0DCFC4B4B9B6813F4604F7B6818BFBC
:1032400040005B003FF4F8AEB0FBF3F703FB17035D
:10325000002B7FF4F1AE07F1FF3CBCF5803FBFF4DB
:10326000EBAE7668404B31680A6A134043B90A6A8C
:1032700040F244431A4203D10B6823F001030B6070
:1032800000242A686FF00105D8F800308C62C1F87C
:103290002CC0C6F80CC04C620D613449CDE9014424
:1032A000334C009120603348334907603348FEF7C0
:1032B00015F800283FF4C0AE314B324CB3F8085536
:1032C00031492580314AB3F8FC4601230C80137044
:1032D000B3E64B4696E7182394E7102392E70023C2
:1032E00090E708238EE7FDF72BFDCFE635684FF01A
:1032F0008009284602F0D0FA0023AB60C5E9043308
:103300004FF482736B604FF4E063EB604FF4007333
:10331000AB61302376E735684FF04009284602F06C
:10332000BBFA0023AB60C5E904334FF482736B60D2
:103330004FF4E063EB604FF40073AB61282361E767
:103340004FF020090CE74FF0100909E74FF008098A
:1033500006E74FF0040903E73C380220CC040220C2
:10336000C404022000380240111111004438022028
:10337000C8040220C00402207C380220D81F02208A
:10338000D82F0220DA040220D8040220403802207C
:103390004F4B1B782DE9F041AEB023B900242046F5
:1033A0002EB0BDE8F08100224FF482710820494C14
:1033B00003F0EEFF484D034600224FF482710820CF
:1033C000236003F0E5FF0022286040F2022108207C
:1033D00003F0DEFF414A23681060002BDED02C682A
:1033E000002818BF002C0CBF01240024D6D02025B3
:1033F000214602A84FF440672A46182606F026FB0D
:1034000037494FF48052282301910BA82146069298
:103410002A46079306F01AFB324B2A46214614A887
:103420000A93DFF8F080CDE90F7506F00FFB2E4B05
:103430002A4621461DA818971996139306F006FBF5
:103440002A494FF400632A4626A81C912146229659
:10345000219306F0FBFA26484FF480610823254F9C
:1034600001AA25902A91214623482B9303F032FE8E
:10347000224D0AAA21463860214803F02BFE214E36
:1034800013AA2146C8F800001F4803F023FE1CAA17
:10349000214628601D4803F01DFE25AA3060214604
:1034A0001B4803F017FE2B68002B3FF478AF3368FE
:1034B000002B18BF00283FF472AF3B68002B3FF48D
:1034C0006EAFD8F80040003C18BF012467E700BF8A
:1034D00040380220800502207C0502207805022069
:1034E00058A5000868A5000878A5000880A5000870
:1034F0008CA5000890050220792B00088805022081
:10350000892E00088405022069270008812D000803
:10351000952300088C0502200B4B1B68834200D0CA
:1035200070470A4B18680028FAD0094B1A68D2076E
:1035300003D508494A6901324A611A6801210A43E0
:103540001A6003F017BE00BF9838022090050220D1
:1035500074050220443802200B4B1B68834200D0C4
:1035600070470A4B18680028FAD0094B1A6892076E
:1035700003D508494A6901324A611A6802210A439F
:103580001A6003F0F7BD00BF9838022090050220B2
:1035900074050220443802200B4B1B68834200D084
:1035A00070470A4B18680028FAD00421084A10B462
:1035B000084C23680B43236053695DF8044B0133C7
:1035C000536103F0D7BD00BF983802209005022058
:1035D000443802207405022038B51D4B9B68834295
:1035E00000D038BD1B4D2B68002BFAD00C4603F0E1
:1035F00017FD012828D000280CBF4FF0030C4FF016
:10360000010C154A154913780978013303F01F039B
:10361000994211D0C4F30A012868114C157824F896
:1036200025101178137004EB8104012184F802C085
:10363000BDE8384003F09EBD0A4BDA690132DA6119
:103640005A6B01325A6338BD4FF0020CD9E700BF04
:10365000983802208805022071050220700502209A
:10366000F004022044380220074B9B68834200D0BC
:103670007047064B18680028FAD0054B002202213B
:103680001A7003F077BD00BF983802208805022029
:10369000EC040220074B9B68834200D07047064B26
:1036A00018680028FAD0054A0421D3690133D36190
:1036B00003F060BD983802208805022044380220BB
:1036C0000E4B00220F216FF0010010B41C6C83B070
:1036D00044F080541C641C6C04F080540094009CE2
:1036E0005C6C44F480445C645B6C03F48043019341
:1036F000019B03B05DF8044B00F076BA003802403D
:10370000364B026870B59A4288B04FF00004CDE99C
:1037100002440494CDE9054401D008B070BD03F51E
:103720008433054602A92E4E5A6C42F480525A64E4
:103730005A6C02F480520092009A1A6B42F0010215
:103740001A63E0221B6B03F001030193022301982B
:103750002448CDE9022303220523CDE9052300F007
:10376000E3FC4FF0C063204A304673604FF480732F
:1037700032604FF48062B460F460C6E906434FF4EF
:103780004033C6E90424C6E9083400F077FAF8B9F2
:10379000164C4FF0C0621649002362604FF48062FD
:1037A0002160402122614FF44032A1604FF48071CA
:1037B0002046AE65B563E3606361A3616362C4E9FB
:1037C000071200F05BFA30B96C65A56308B070BDF4
:1037D000FDF76CF9DCE7FDF769F9F5E7003001402A
:1037E000D402022000000240106402407402022051
:1037F000586402400B4B02689A4200D070470A4A54
:10380000E021536C23F4805310B5044653640748F9
:1038100000F0C4FDA06D00F0CDFA606DBDE8104071
:1038200000F0C8BA003001400038024000000240F9
:103830001A4B02689A4200D0704703F59C3300216E
:103840005A6C30B542F00102154D83B00446E96070
:10385000E96169624FF040615A6440225B6C6960C3
:103860004FF4806103F001030E48AA604FF48042D8
:1038700001934FF48053286001982846AA61C5E956
:1038800004134FF440332B6200F0F8F918B92562A5
:10389000AC6303B030BDFDF709F9F8E70000014063
:1038A000C80102208864024070B5ACB00021044613
:1038B000902208A80691CDE90211CDE9041106F085
:1038C000C5F83A4B22689A4201D02CB070BD4FF433
:1038D000807308A8089301F0BBF900285CD1344B31
:1038E000072002A9334E1A6C42F480221A641A6C23
:1038F00002F480220092009A1A6B42F008021A63C6
:103900004FF440721B6B069003F008032A480193A2
:103910000223019DCDE9022300220323CDE90423E4
:1039200000F002FC25494FF0006200233046C6E952
:1039300000124FF480614FF48072C6E90233C6E989
:1039400005333161F261C6E9083300F097F948BBED
:103950001B4D4FF000621B4900236A604FF48062E8
:103960002960402128466667B463EB606B61A960FB
:10397000AB612A616B62C5E9073300F07FF970B96A
:103980000022072127202567AC6300F02DF92720AE
:1039900000F066F92CB070BDFDF788F89FE7FDF7E1
:1039A00085F8EDE7FDF782F8D2E700BF0048004058
:1039B00000380240E0000220000C02402860024073
:1039C0008000022058600240234B1A6C42F0100223
:1039D00070B51A6488B01B6C054601A903A803F0F2
:1039E00010030293029B01F011F9069BD3B901F079
:1039F000EDF80346194A1A4CA2FB03231949002289
:103A000020469B0C216040F2E731A260013BA2619D
:103A1000C4E90312636002F075F9064630B130461E
:103A200008B070BD01F0D2F84300E3E7204602F091
:103A30000BFA06460028F2D1362000F011F90F2DBE
:103A400001D90126EBE732462946362000F0CCF8B2
:103A5000054B1D60E3E700BF0038024083DE1B43D7
:103A6000DC3802200010004008000220FEE700BF02
:103A7000FEE700BFFEE700BFFEE700BFFEE700BFB6
:103A8000704700BF014800F079BA00BFE000022093
:103A9000014800F073BA00BF80000220014802F024
:103AA00093BD00BF40010220014802F0D1BA00BF1F
:103AB000DC380220014800F061BA00BFD4020220C5
:103AC000014800F05BBA00BF74020220014800F018
:103AD00055BA00BFC80102200D4903460D4A0868C7
:103AE00010B50D4C121B20B10344934207D80B6054
:103AF00010BD0A4C20460C6003449342F7D906F0EF
:103B000003F80C2203464FF0FF301A6010BD00BFCF
:103B10002839022000000820000400005848032033
:103B2000034AD2F8883043F47003C2F888307047F3
:103B300000ED00E0DFF834D0FFF7F2FF0C480D494C
:103B40000D4A002302E0D458C4500433C4188C42F8
:103B5000F9D30A4A0A4C002301E013600432A2425E
:103B6000FBD305F0D7FFFCF7ADFD70470000082040
:103B7000000002206000022014A60008600002205D
:103B800058480320FEE7000008B5032000F01AF8AB
:103B90000F20FFF719FFFFF793FD002008BD00BFBE
:103BA000034A044B11681B780B441360704700BF35
:103BB0002C39022004000220014B1868704700BF16
:103BC0002C39022006494FF6FF0C0002054BCA684B
:103BD00000F4E06002EA0C0210430343CB6070473C
:103BE00000ED00E00000FA051A4BDB68C3F3022386
:103BF00000B5C3F1070E03F1040CBEF1040F28BF9A
:103C00004FF0040EBCF1060F1AD9A3F1030C4FF0CC
:103C1000FF3303FA0CF322EA03024FF0FF330028CC
:103C200003FA0EF321EA030303FA0CF343EA020357
:103C30004FEA0313DBB206DB074A13545DF804FBBB
:103C400000229446E9E700F00F00044A13545DF89F
:103C500004FB00BF00ED00E000E400E014ED00E034
:103C6000002807DB00F01F0101234009024A8B40B6
:103C700042F82030704700BF00E100E038B504464C
:103C8000FFF79AFF002C74D023680022022105461A
:103C900084F8342084F835101A6822F001021A6082
:103CA00005E0FFF789FF431B052B3ED823681A6800
:103CB000D107F6D4D4E90125E1682A43A0691D683B
:103CC0000A4321690A4361690A43E16902430A43DD
:103CD00034492940256A2A430A43616A04292BD0C2
:103CE0001A605A6922F007021143DAB259612E486C
:103CF000A2F110012D4AA2FB01525F294FF00105EC
:103D00004FF000014FEA1212805C294AE06502EA96
:103D100003024FF03F0388BF043283400846A26588
:103D20009360616584F8355038BD0323202218461E
:103D3000626584F8353038BDD4E90B51294311430D
:103D4000A26A1960596921F00701114341F0040189
:103D5000002DCAD078B1B0F5005F16D0022A03D981
:103D6000032AC2D1EA01C0D540220023626584F84B
:103D70003530012038BD012A03D032F00202B4D11F
:103D8000F0E7B5F1C07FB0D1EEE7032AADD801A0CE
:103D900050F822F0693D0008653D0008693D0008C3
:103DA000833D00083F8010E0B0A50008ABAAAAAA96
:103DB00000FCFFFF002839D090F835200346022A86
:103DC000D0B235D01A6800201A4930B414681A4DA0
:103DD00024F001041460106050609060D0601061A5
:103DE00021205061D0B21038A1FB00415F284FF074
:103DF0003F004FEA11116C5C104900FA04F0DC65D9
:103E000001EA02014FF0000288BF04319965886021
:103E100010465A6583F8352083F83420C3E90F2211
:103E200030BCC3E91122C3E9132270470120704757
:103E3000704700BFABAAAAAAB0A5000800FCFFFF0C
:103E400070B490F834C0866DBCF1010F09D0012424
:103E500080F8344090F83540012C05D0002380F8DC
:103E60003430022070BC70470225046880F8355059
:103E700000254565256825F48025256063608368F5
:103E8000402B1AD0A160E260C16D3F23026C8B40D1
:103E9000B360236843F016032360636943F0800333
:103EA00063611AB1236843F008032360236800208C
:103EB00043F00103236070BC7047A260E160E3E758
:103EC00070B50446856DFFF777FE94F83530022B08
:103ED00006D0802301206365002384F8343070BD50
:103EE000236806461A6822F016021A605A6922F000
:103EF00080025A61226C4AB31A6822F008021A60E2
:103F00001A6822F001021A6005E0FFF755FE831BD4
:103F1000052B11D823681B6813F00103F5D1E16D5F
:103F20003F221846002302FA01F10122A96084F819
:103F3000352084F8343070BD032320221846626592
:103F400084F83530002384F8343070BDA26C002A28
:103F5000D2D1D5E790F835200346022A03D080223B
:103F600001205A65704702680521002083F835104A
:103F7000136823F001031360704700BFF0B50022FF
:103F8000664B83B004461E6801920822D0E916737E
:103F90003D689A402A4204D001680868400700F151
:103FA000978001229A402A4204D021684969080674
:103FB00000F1888004229A402A4203D021680968CF
:103FC000890779D410229A402A4203D021680868D0
:103FD00000075ED420229A402A4214D02168086843
:103FE000C00610D5BA6094F83520052A33D00B6886
:103FF00013F4802F0B687BD0190340F18680E36BAC
:104000000BB120469847636D002B40D0636DDA07F3
:104010001AD522680521424B84F83510A3FB0636D9
:10402000136823F00103B60A136002E01368DB078C
:1040300004D5019B0133B3420193F7D90122002338
:1040400084F8352084F83430E36C03B3204603B0A1
:10405000BDE8F04018470A6822F016020A604A6973
:1040600022F080024A61226C002A53D00A6822F0B2
:1040700008020A603F22012102FA03F30022BB601A
:10408000236D84F8351084F83420002BDED103B082
:10409000F0BDBA600A6812F4802F0A6822D1D205F6
:1040A00003D40A6822F008020A60226C002A91D028
:1040B00020469047E36D8DE7BA60626D42F00402DE
:1040C00062657FE7BA60626D42F00202626571E785
:1040D000086820F004000860BA60626D42F00102D6
:1040E00062655EE71103E0D5A26C002AE0D171E7BA
:1040F00013F4807383D10A6822F010020A6001224F
:1041000084F8343084F8352079E7636C002B7FF431
:1041100078AF78E7A26C002AA8D1ABE700000220B4
:10412000B5814E1B406D70472DE9F04F002385B0DF
:104130004FF0010B0C68DFF844A2894603E001331D
:10414000102B00F09B800BFA03F202EA0408A24352
:10415000F5D1D9F804104FEA430C032501F003020E
:1041600005FA0CF5571EED43012F40F28A80032A11
:1041700040F0C380076802FA0CF211F4403F05EAF0
:10418000070542EA05020260D9D0DAF8442023F09C
:10419000030503F003070F2642F4804205F1804532
:1041A000BF00CAF8442005F59C35DAF8442006FA29
:1041B00007FC6F4E02F48042B0420392039AAA6851
:1041C00022EA0C0231D006F58066B04200F0A080F1
:1041D000684EB04200F0A280DFF8A4C1604500F054
:1041E000A380DFF8A0C1604500F0A480DFF898C18B
:1041F000604500F0AB80DFF894C1604500F0AC8012
:10420000DFF88CC1604500F09B80DFF888C1604515
:1042100000F0A880DFF880C160450CBF4FF0090CAA
:104220004FF00A0C0CFA07F73A43AA60CE02524A42
:104230006FEA0805504E03F10103926854BF2A400B
:1042400048EA02028F02B260F2684B4E54BF2A4025
:1042500048EA0202F26072688E03474E54BF2A4059
:1042600048EA0202C90344497260326854BF2A40D6
:1042700048EA0202102B0A607FF465AF05B0BDE882
:10428000F08F8768022A07EA050ED9F80C7007FA42
:104290000CF747EA0E078760C1F30017D0F804E077
:1042A00007FA03F72EEA080E47EA0E074760D9F827
:1042B0000870D0F80CE007FA0CF70EEA050E47EA92
:1042C0000E07C7607FF456AFDF0803F0070E00EB60
:1042D00087074FEA8E0E3E6A019700960F26D9F89F
:1042E000107007FA0EF706FA0EFE009E26EA0E0E72
:1042F000019E47EA0E0737623CE7C76807EA050EEA
:10430000D9F8087007FA0CF747EA0E07C76031E7DB
:104310004FF0010C0CFA07F73A4386E74FF0020C16
:104320000CFA07F73A4380E74FF0030C0CFA07F753
:104330003A437AE74FF0040C0CFA07F73A4374E774
:104340004FF0070C0CFA07F73A436EE74FF0050CF5
:104350000CFA07F73A4368E74FF0060C0CFA07F738
:104360003A4362E74FF0080C0CFA07F73A435CE770
:104370000000024000080240003C014000380240BA
:10438000000C0240001002400014024000180240DD
:10439000001C024000200240002402402DE9F04FA2
:1043A000002383B00126DFF870A14FF00F09554FAD
:1043B00002E00133102B7BD006FA03F232EA01044B
:1043C00002EA010CF5D123F0030503F00304554480
:1043D000A400D5F808E009FA04F801954A4D08EA66
:1043E0000E0EA84227D005F58065A84263D0474D40
:1043F000A84263D0464DA84265D0464DA84267D03A
:10440000DFF818B1584568D0DFF814B1584569D0C5
:10441000DFF810B158456AD0DFF80CB158456BD0C1
:10442000DFF808B1584514BF4FF00A0B4FF0090BE5
:104430000BFA04F400E00024A64514D13C68019D69
:1044400024EA0C043C607C6824EA0C047C60FC6870
:1044500024EA0C04FC60BC6824EA0C04BC60AC6870
:1044600024EA0804AC605C0003254FEAD30CA540A5
:10447000046800EB8C0C24EA0504046003F00704D4
:10448000DCF820E00133A400102B09FA04F42EEA32
:104490000404CCF82040C46824EA0504C4604468DD
:1044A00024EA02024260826822EA0502826083D125
:1044B00003B0BDE8F08F06FA04F4BDE74FF0020B3D
:1044C0000BFA04F4B8E74FF0030B0BFA04F4B3E76C
:1044D0004FF0040B0BFA04F4AEE74FF0050B0BFAA8
:1044E00004F4A9E74FF0060B0BFA04F4A4E74FF02D
:1044F000070B0BFA04F49FE74FF0080B0BFA04F4D8
:104500009AE700BF003C0140000002400008024062
:10451000000C02400010024000380140001402402C
:1045200000180240001C024000200240002402400B
:1045300002B9090481617047436901EA030221EA73
:10454000030141EA02418161704700BF024A1368DA
:1045500043F4807313607047007000401A4B1A6C6C
:1045600042F0805230B51A6483B01B6C174C03F0D4
:1045700080530193019B236843F480332360FFF74A
:104580001BFB054605E0FFF717FB401BB0F57A7FE4
:1045900017D86368DA03F6D523680C4D43F400336B
:1045A0002360FFF709FB044605E0FFF705FB001B4E
:1045B000B0F57A7F05D86B689B03F6D5002003B071
:1045C00030BD032003B030BD003802400070004011
:1045D000002800F0BD8103682DE9F041DD0782B0BD
:1045E000044635D59A498A6802F00C02042A00F084
:1045F000E0808A6802F00C02082A00F0D680636826
:10460000B3F5803F10D0002B00F0FD80B3F5A02F54
:104610008F4B1A6800F08C8122F480321A601A687D
:1046200022F480221A6004E0894A136843F480333C
:104630001360FFF7C1FA864E054605E0FFF7BCFAA6
:10464000401B642800F2DB8033689B03F6D52368A7
:104650009D0727D57E4A916811F00C0F7ED0916896
:1046600001F00C01082976D0E368794D002B00F0A9
:1046700004812B6843F001032B60FFF79DFA064687
:1046800005E0FFF799FA801B022800F2B8802B683A
:104690009F07F6D52B68226923F0F80343EAC2038B
:1046A0002B6023681A071FD45E0734D5684B1A6C39
:1046B000D5006FD50025674E3368D80540F18F804F
:1046C000A368012B00F0EB80002B00F0B280052BDB
:1046D0005F4B1A6F00F0348122F001021A671A6FE3
:1046E00022F004021A67DFE06369594D002B40D0C5
:1046F0006B6F43F001036B67FFF75EFA064604E059
:10470000FFF75AFA801B022879D86B6F9B07F7D501
:1047100023685E07CAD4A369CBB14D4DAA6802F0E5
:104720000C02082A00F0D380022B2B6823F0807340
:104730002B6000F00F81FFF73FFA044604E0FFF71B
:104740003BFA001B02285AD82B689B01F7D40020A3
:1047500002B0BDE8F0815268510285D43C4A12682B
:10476000920730D5E268012A2DD0012002B0BDE8C1
:10477000F0816B6F23F001036B67FFF71DFA0646AC
:1047800004E0FFF719FA801B022838D86B6F9F07E7
:10479000F7D4BDE71A6C012542F080521A641B6CF5
:1047A00003F080530193019B85E74A6851027FF52E
:1047B00026AF274A126892037FF54AAF6268002A43
:1047C0007FF446AFD1E7224920690A6822F0F80257
:1047D00042EAC0020A601A077FF566AF84E73368D1
:1047E00043F480733360FFF7E7F907463368D90570
:1047F0003FF566AFFFF7E0F9C01B6428F6D9032048
:1048000002B0BDE8F081124D2B6823F480332B6099
:104810002B6823F480232B60FFF7CEF9064604E0D3
:10482000FFF7CAF9801B6428E9D82B689F03F7D4E7
:104830000DE7074E41F28838336F23F001033367E9
:10484000336F23F004033367FFF7B6F9074608E038
:104850000038024000700040FFF7AEF9C01B404531
:10486000CDD8336F9B07F7D4002D3FF454AF524A95
:10487000136C23F0805313644DE72B6823F001037E
:104880002B60FFF799F9064604E0FFF795F9801BC6
:104890000228B4D82B689907F7D4236802E7464A60
:1048A000136F43F001031367FFF786F9424F41F29C
:1048B0008838064604E0FFF77FF9801B40459ED804
:1048C0003B6F9A07F7D5002D3FF425AFCFE7012BBB
:1048D0006A683FF44AAF02F48003E1698B427FF4D7
:1048E00044AF02F03F03216A8B427FF43EAF47F6AC
:1048F000C073616A1340B3EB811F7FF436AFA36AC4
:1049000002F440315B08013BB1EB034F7FF42DAF64
:1049100002F07063E16AB3EB016F7FF426AF236BA3
:1049200002F0E042B2EB037F14BF012000200FE74A
:1049300042F480221A601A6842F480321A6078E6E3
:1049400042F004021A671A6F42F001021A67ABE7DD
:1049500001207047FFF730F9064605E0FFF72CF914
:10496000801B02283FF64BAF2B689901F6D4D4E99F
:104970000731626A0B43216B0F4E43EA8213D4E97D
:104980000A2043EA0063520843EA0173013A43EA0A
:1049900002436B602B6843F080732B60FFF70CF9C8
:1049A000044605E0FFF708F9001B02283FF627AF91
:1049B00033689A01F6D5CAE600380240002800F0B4
:1049C000B380614A136803F00F038B422DE9F04175
:1049D00004460D460CD2136823F00F030B431360FB
:1049E000136803F00F038B4202D00120BDE8F08171
:1049F0002368980714D5590704D554498A6842F4A6
:104A0000E0528A601A0704D550498A6842F460422D
:104A10008A604E49A0688A6822F0F00202438A60E8
:104A2000DF0720D56268494B012A1B687ED0022A25
:104A300077D09907D9D5454E41F28838B36823F02D
:104A400003031343B360FFF7B7F8074604E0FFF72B
:104A5000B3F8C01B40456CD8B368626803F00C0320
:104A6000B3EB820FF3D1384A136803F00F03AB4264
:104A700009D9136823F00F032B431360136803F065
:104A80000F03AB42B1D123685A0706D52F49E0681E
:104A90008A6822F4E05202438A601B0731D42B4912
:104AA0008B6803F00C03042B39D0082B18D14A680B
:104AB0004B6802F03F02496813F480033BD024485E
:104AC000C1F388110023A1FB0001FBF709FC1F4B78
:104AD0005B68C3F3014301335B00B0FBF3F300E019
:104AE0001C4B1A4A1C4C92681C48C2F303121C4906
:104AF0000068A25CD3400B60FEF766FF0020BDE8B3
:104B0000F081124A2169936823F4604343EAC103A8
:104B10000E4993608B6803F00C03042BC5D10C4B3A
:104B2000DFE7980187D460E7012070479E0382D4B5
:104B30005BE703205AE70748C1F38811A1FB000196
:104B4000FBF7CEFBC3E700BF003C02400038024049
:104B500000127A000024F400A0A50008080002203A
:104B600000000220164908B58B6803F00C03042BE3
:104B70001BD0082B17D14A684B6802F03F024968E6
:104B800013F4800313D10F48C1F38811A1FB000176
:104B9000FBF7A6FB0A4B5B68C3F3014301335B00E1
:104BA000B0FBF3F008BD074808BD074808BD06483C
:104BB000C1F388110023A1FB0001FBF791FBE9E79A
:104BC000003802400024F40000127A00044B05492A
:104BD0009B68054AC3F382230868D35CD8407047BA
:104BE000003802400000022098A50008044B054947
:104BF0009B68054AC3F342330868D35CD8407047CA
:104C0000003802400000022098A500080E4B0F2239
:104C100002609A6802F0030242609A6802F0F002B1
:104C200082609A6802F4E052C2609B68DB0810B4AC
:104C300003F4E053054C036123685DF8044B03F073
:104C40000F030B60704700BF00380240003C024079
:104C500003682DE9F04313F0010683B004460BD03E
:104C6000944A916821F400019160466B9168314348
:104C7000B6FA86F67609916013F4002510D08D49B6
:104C8000E56BD1F88C20B5F5801F22F4401242EA82
:104C90000502C1F88C2000F03982B5FA85F56D095E
:104CA000D90210D58348216CD0F88C20B1F5800F43
:104CB00022F4400242EA0102C0F88C2000F029826E
:104CC000002908BF012513F0807F18BF01269A062E
:104CD00000F1D781DA060CD5764AD2F88C1021F093
:104CE0008071C2F88C10D2F88C10A06B0143C2F80E
:104CF0008C105F0408D56F49606ED1F8902022F4C3
:104D000040320243C1F89020180408D56949A06ECA
:104D1000D1F8902022F440220243C1F89020D90318
:104D200008D56449E06ED1F8902022F44012024385
:104D3000C1F890209A0308D55E49206FD1F89020E1
:104D400022F440020243C1F890205F0608D5594979
:104D5000606CD1F8902022F003020243C1F8902049
:104D6000180608D55349A06CD1F8902022F00C0207
:104D70000243C1F89020D90508D54E49E06CD1F81E
:104D8000902022F030020243C1F890209A0508D505
:104D90004849206DD1F8902022F0C0020243C1F8AA
:104DA00090205F0508D54349606DD1F8902022F42A
:104DB00040720243C1F89020180508D53D49A06D06
:104DC000D1F8902022F440620243C1F89020D90427
:104DD00008D53849E06DD1F8902022F440520243C2
:104DE000C1F890209A0408D53249206ED1F890205D
:104DF00022F440420243C1F890205F0208D52D49B9
:104E0000A06FD1F8902022F080620243C1F8902078
:104E100098020CD52749E06FD1F89020B0F1006FCF
:104E200022F0006208BF01250243C1F8902013F070
:104E3000080F18BF0125590308D51E49606FD1F826
:104E4000902022F040720243C1F890201A0209D546
:104E50001849D4F88000D1F8902022F08052024303
:104E6000C1F890205F0109D51249D4F88400D1F827
:104E7000902022F000520243C1F89020180109D579
:104E80000C49D4F88800D1F88C2022F0007202433B
:104E9000C1F88C20D9006BD4012E01D09A0161D5C4
:104EA000044E336823F080633360FEF785FE0746C7
:104EB00008E000BF00380240FEF77EFEC31B642BF3
:104EC00000F2DB8033681B01F6D42368DF0712D5BC
:104ED000626B82B9D6F88420D6F8841002F440328E
:104EE00001F070610A43616842EA8112A16842EAF6
:104EF0000172C6F884201E0304D5E26BB2F5801F50
:104F000000F01881D80204D5226CB2F5800F00F0B1
:104F10001181D90111D5A849D1F88420D1F8840094
:104F200002F0706200F0E0400243606842EA8012E2
:104F3000206942EA0042C1F884209A0100F1EB8026
:104F40009D4E336843F080633360FEF735FE0746BD
:104F500005E0FEF731FEC01B642800F28E80336846
:104F60001B01F6D5012D0ED0002003B0BDE8F08363
:104F70009149D4F88C00D1F88C2022F08062024351
:104F8000C1F88C2088E78C4D2B6823F080532B6070
:104F9000FEF712FE064604E0FEF70EFE801B6428B4
:104FA0006BD82B689F00F7D423681D0340F1FB806A
:104FB000E26B002A40F0F7807F49D1F88820D1F8D1
:104FC000880002F4403200F0E0400243606942EAA7
:104FD0008012A06942EA0062C1F88820D1F88C20D2
:104FE000A06A22F4F852013842EA0022C1F88C206B
:104FF000990215D5E26FB2F1006F11D16E49D1F867
:105000008820D1F8880002F0706200F0E04002438E
:10501000606942EA8012206A42EA0042C1F88820B0
:105020001A0719D5644A6569D2F88810D2F8883011
:1050300001F07061E06903F440330B4343EA8513E8
:1050400043EA0073C2F88830D2F88C30E16A23F466
:1050500040330B43C2F88C30574C236843F08053E5
:105060002360FEF7A9FD054623689B003FF57CAF52
:10507000FEF7A2FD401B6428F6D9032003B0BDE86B
:10508000F0834D4B4D4F1A6C42F080521A641B6CEA
:1050900003F080530193019B3B6843F480733B60B2
:1050A000FEF78AFD804605E0FEF786FDA0EB0800CE
:1050B0006428E2D83B68DB05F6D53F4F236B3A6F97
:1050C00003F4407112F4407210D08A420ED03A6F4D
:1050D000386F22F4407240F480303867386F20F423
:1050E000803038673A673A6FD00748D4B1F5407FCF
:1050F0003CD031498A6822F4F8128A602E4AC3F300
:105100000B03116F0B4313672368E3E500250126AA
:10511000C6E50126D7E5236961681B04E26843EA16
:105120008113A16843EA0263234A43EA0173C2F888
:10513000843005E72049D1F88420D1F8840002F4B6
:10514000403200F0E0400243606842EA8012E068CA
:1051500042EA0062C1F88420D1F88C00626A20F033
:105160001F00013A0243C1F88C20D2E612481449CC
:105170008268194022F4F8120A438260BEE7FEF703
:105180001BFD41F28839804606E0FEF715FDA0EBD5
:10519000080048453FF671AF3B6F9907F5D5236B83
:1051A00003F44071A2E7D8027FF522AF226C002AF7
:1051B0007FF41EAF00E700BF0038024000700040DF
:1051C000FFFCFF0F2DE9F04115460E4682B000238B
:1051D000354407468DF80330FEF7EEFC2D1AFEF736
:1051E000EBFC314B80463C681B68224603EB830393
:1051F000C3EBC3031B0D05FB03F30193731C21D108
:10520000936813F4C06F09D0237BDBB28DF80330B1
:105210009DF80330936813F4C06FF5D1002002B0FD
:10522000BDE8F081237BDBB28DF803309DF80330BD
:10523000FEF7C2FCA0EB0800A84208D2019B3A6826
:1052400013BB1D46936813F4C06FEBD1E6E7D7E9B3
:1052500000315A68B1F5827F22F0E0025A6017D01F
:10526000BA6AB2F5005F07D11A6822F400521A60D8
:105270001A6842F400521A6001220023032087F8C2
:105280005D2087F85C30CAE7019B013B0193B5E7DD
:10529000BA68B2F5004F02D0B2F5806FE0D11A685B
:1052A00022F040021A60DBE70000022070B50C46D5
:1052B00082B00646FEF780FC6434241AFEF77CFCBC
:1052C000234B05461B68C3F3CB3304FB03F3019365
:1052D00007E0FEF771FC401BA0420AD2019B33BBE2
:1052E0001C4633689B6813F08003F2D1184602B065
:1052F00070BDD6E900315A68B1F5827F22F0E00234
:105300005A6018D0B26AB2F5005F07D11A6822F469
:1053100000521A601A6842F400521A6001220023F7
:10532000032086F85D2086F85C3002B070BD019BDA
:10533000013B0193D5E7B268B2F5004F02D0B2F558
:10534000806FDFD11A6822F040021A60DAE700BFEE
:10535000000002202DE9F0410F4684B00023DFF861
:105360000C8107F1640405468DF80730FEF724FC34
:10537000241AFEF721FCD8F80030064603EB83031D
:10538000C3EBC3031B0D04FB03F3039308E0FEF719
:1053900013FC801BA0422AD2039B002B48D11C4641
:1053A0002B689A6812F4C05FF1D12F49D8F8002019
:1053B000A1FB02124FF47A71520D01FB02F26968EF
:1053C000B1F5827F029206D136E0029A013A02924A
:1053D0009A68120602D5029A002AF6D13A4664214A
:1053E0002846FFF7EFFE68BB04B0BDE8F081D5E9C1
:1053F00000315A68B1F5827F22F0E0025A6026D06F
:10540000AA6AB2F5005F07D11A6822F400521A6046
:105410001A6842F400521A600123002285F85D30B8
:105420002B6E85F85C2043F020032B660320DBE71E
:10543000039B013B0393B3E739462846FFF736FF4A
:105440000028CBD02B6E43F020032B66EEE7AA6832
:10545000B2F5004F02D0B2F5806FD1D11A6822F0B8
:1054600040021A60CCE700BF819F5E160000022058
:10547000324B6421324A1B68A2FB032302685B0A99
:1054800010B501FB03F382B004460193536823F087
:105490008003536005E0019B013B019353681806AC
:1054A00006D5019B002BF6D1236E43F04003236603
:1054B000FEF782FB01462046FFF74CFF08B1402370
:1054C00023662268136823F040031360FEF774FB21
:1054D000642102462046FFF775FE08B1402323668B
:1054E00022685368590624D5536823F0400353605B
:1054F00005E0019B013B019353685B0606D5019BC8
:10550000002BF6D1236E43F040032366FEF754FBD5
:1055100001462046FFF7CAFE08B140232366FEF786
:105520004BFB642102462046FFF74CFE08B14023A6
:105530002366072384F85D3002B010BD000002200E
:10554000F11976054368B3F5827F2DE9F0410446F1
:1055500082B019D0494B4FF47A71494A1B68A2FBBB
:1055600003235B0D01FB03F3009306E0009B22681D
:10557000013B009393681B0602D5009B002BF5D1DD
:10558000002002B0BDE8F08183680E461546B3F5F1
:10559000004F3CD0B3F5806F39D07719FEF70CFB84
:1055A0003F1AFEF709FB354B80461B68C3F3CB332C
:1055B00007FB03F30193731C206824D18368190649
:1055C000FCD46368B3F5827FDAD1A368B3F5004FEA
:1055D00002D0B3F5806FD3D12A4631462046FFF77B
:1055E000F1FD0028CCD0236E43F020032366032076
:1055F000C7E7FEF7E1FAA0EB0800B84211D2019B21
:105600005BB920681F4683681A06F2D4D9E722687E
:10561000136823F040031360BFE7019B013B019334
:10562000C9E7D4E900315A68B1F5827F22F0E0027F
:105630005A6016D0A26AB2F5005F07D11A6822F448
:1056400000521A601A6842F400521A6001230022C4
:1056500084F85D30236E84F85C2043F020032366D9
:10566000C5E7A268B2F5004F02D0B2F5806FE1D174
:105670001A6822F040021A60DCE700BF0000022036
:10568000819F5E16F0B5474F6424474985B03B685B
:1056900005460268A1FB031311685B0A21F0400173
:1056A00004FB03F311600293536823F0400353603B
:1056B00005E0029B013B029353685B0606D5029B03
:1056C000002BF6D12B6E43F040032B66FEF774FAE5
:1056D00001462846FFF7EAFD08B140232B66FEF796
:1056E0006BFA0446002364348DF80730FEF764FA41
:1056F000241AFEF761FA3B6806462F6803EB830322
:105700003A46C3EBC3031B0D04FB03F303930EE004
:105710003B7BDBB28DF807309DF80730FEF74CFA83
:10572000801BA0420CD2039B2A685BBB1C4693687B
:1057300013F4C06FECD1072385F85D3005B0F0BDE0
:10574000D5E900315A68B1F5827F22F0E0025A6053
:105750001CD0AA6AB2F5005F07D11A6822F4005281
:105760001A601A6842F400521A6001214023002294
:1057700085F85D102B66072385F85C2085F85D3081
:1057800005B0F0BD039B013B0393D0E7AA68B2F5D7
:10579000004F02D0B2F5806FDBD11A6822F04002D0
:1057A0001A60D6E700000220F1197605002871D0B2
:1057B000426AF8B50446002A5CD00023C0E90433ED
:1057C000002194F85D30A16203F0FF01002B5AD054
:1057D00021680223E66884F85D300B68B6F5E06F57
:1057E00023F040038CBF4FF0000E4FF0010E0B6012
:1057F00026F400634FEA0E3EB3F5E06F40D1A06A95
:1058000000F40050636802F0100CA56906F470669D
:1058100003F48272A36805F400772D0C03F40443AB
:1058200005F004051A43236903F002031A43636970
:1058300003F001031A43636B03F008033A43334355
:10584000E6692B4306F03806256A324343EA0E0325
:1058500005F0800543EA0C032A43024300200A6056
:1058600001224B60CB6923F40063CB61206684F88E
:105870005D20F8BD4368B3F5827FA1D0C2619FE788
:105880000020A062BEE7204684F85C10FDF738FFD8
:10589000626A9DE70120704798B10268022310B543
:1058A00080F85D300446136823F040031360FDF771
:1058B000A1FF00232366184684F85D3084F85C302D
:1058C00010BD0120704700BF70B5044690F85D0020
:1058D000012865680AD0B5F5827F5FD15FFA80FC48
:1058E000A06800285AD1BCF1040F57D1002B18BF73
:1058F000002A51D000294FD094F85C0001284DD0E7
:10590000012084F85C0094F85D00042802D0052092
:1059100084F85D000020A16321682066E568E387C4
:10592000A4F84630B5F5E06FA3872264A4F84430AC
:10593000C4E91300486820F4C0404860A06D2FD827
:105940004D6845F480554D60656DAD69B5F5005FF6
:1059500066D08369B3F5005F4ED094F85D300026C1
:10596000434D0C31042B434B066518BF2B46424D6B
:105970000364424BC364424B18BF2B46C363B4F865
:1059800046309BB2FEF75CFA054670B1236E84F890
:105990005C6043F010032366012070BD022070BDDF
:1059A0004B6823F480534B60D7E72268606D5368DF
:1059B0000C32A16B43F0010342F8083CE38FC5634E
:1059C0009BB20564C0E91355FEF73AFA002833D1BB
:1059D00023681A68520603D41A6842F040021A601B
:1059E000002284F85C205A6842F020025A605A680B
:1059F00042F002025A6070BD4B6823F480534B6042
:105A0000B4F8463013F0010F4B681CD123F4005357
:105A10004B60B4F84630C3F34E03A4F846309CE71D
:105A200013F0010F4B6819D123F480434B60E38FCF
:105A3000C3F34E03E3878CE7236E84F85C5043F096
:105A400010032366A8E743F400534B60B4F84630D4
:105A5000C3F34E030133A4F846307EE743F480439A
:105A60004B60E38FC3F34E030133E38771E700BF5D
:105A70000D5C0008015C0008A95C0008195C0008C6
:105A80003D5C0008584B6421584A1B68A2FB032365
:105A900002685B0A30B501FB03F385B0044601934D
:105AA000019B0093536823F02003536053681D0645
:105AB00013D54F4B0365009B4BB1009B013B0093FB
:105AC00094F85D30072B06D0009B002BF5D1236E98
:105AD00043F040032366019B00935368580612D598
